:100000000C94FD130C942E140C942E140C942E149A
:100010000C942E140C942E140C942E140C942E1458
:100020000C942E140C942E140C942E140C942E1448
:100030000C942E140C9488C30C942E140C942E142F
:100040000C942E140C94552B0C942E140C942E14EA
:100050000C942E140C942E140C940F4E0C94F7CD7B
:100060000C942E140C94119B0C942E140C942E149E
:100070000C942E140C942E140C942E140C942E14F8
:100080000C9467330C942E140C942E140C942E1490
:100090000C942E140C942E140C942E140C942E14D8
:1000A0000C942E140C942E140C9439330C942E149E
:1000B0000C942E140C942E140C942E140C940B33BC
:1000C0000C942E140C942E140C942E140C942E14A8
:1000D0000C942E140C942E140C942E140C942E1498
:1000E0000C942E14084AD73B3BCE016E84BCBFFD56
:1000F000C12F3D6C74319ABD56833DDA3D00C77FF8
:1001000011BED9E4BB4C3E916BAAAABE0000008090
:100110003F05A84CCDB2D44EB93836A9020C50B91F
:10012000918688083CA6AAAA2ABE000000803F004B
:100130004E414E494E495459494E46CDCCCC3D0ACC
:10014000D7233C17B7D13877CC2B329595E6241FAF
:10015000B14F0A000020410000C84200401C462068
:10016000BCBE4CCA1B0E5AAEC59D741000C902100D
:10017000012C014001220170011801B0010E01F0B3
:100180000104015002FA00B002F0003003E600D092
:1001900003DC009004D2007005C800A006BE000079
:1001A00008B400B009AA00D00BA000600E96006051
:1001B000118C000015820020197800C01D6E00A06F
:1001C000226400B0275A00902C500000314600E015
:1001D000343C0010383200903A2800603C1E00A0E9
:1001E0003D1400803E0A00203F0000526573656E9A
:1001F000643A20006F6B0020746F6F206C6F6E6725
:1002000020657874727573696F6E2070726576659B
:100210006E7465640A0020636F6C64206578747284
:100220007573696F6E2070726576656E7465640AA9
:1002300000627573793A2070617573656420666F2A
:100240007220696E7075740A00627573793A207055
:10025000617573656420666F7220757365720A003C
:10026000627573793A2070726F63657373696E6734
:100270000A004B494C4C45442E20004B494C4C2025
:10028000636175736564206279204B494C4C206230
:100290007574746F6E2F70696E0A004B494C4C4533
:1002A000442E20004B494C4C2063617573656420DB
:1002B000627920746F6F206D75636820696E616369
:1002C000746976652074696D65202D20637572727E
:1002D000656E7420636F6D6D616E643A2000506CC2
:1002E00065617365207265736574005052494E54A0
:1002F00045522048414C544544005072696E746523
:10030000722068616C7465642E206B696C6C28299E
:100310002063616C6C6564210A0053544F50504552
:10032000442E20005072696E7465722073746F7071
:100330007065642064756520746F206572726F72D9
:10034000732E2046697820746865206572726F721A
:1003500020616E6420757365204D39393920746FC2
:1003600020726573746172742E202854656D7065F7
:100370007261747572652069732072657365742E7D
:1003800020536574206974206166746572207265FB
:100390007374617274696E67290A00000000C100FD
:1003A000004040000000005761726E696E673A209D
:1003B000486F6D696E672042756D7020446976697B
:1003C000736F72203C20310A000000A0400000A0A2
:1003D000400000004000009A43008094430000BEAB
:1003E00043FFFFFF7C3C3E5E2B3D3F2F5B5D3B2C84
:1003F0002A225C004572726F722077726974696E8E
:100400006720746F20454550524F4D210A00290A3C
:10041000002062797465733B20637263200053652A
:100420007474696E67732053746F7265642028005A
:10043000202863616C63756C6174656429210A000E
:1004400020213D2000454550524F4D20435243202E
:100450006D69736D61746368202D202873746F72E9
:100460006564292000290A002062797465733B20A5
:1004700063726320002073746F7265642073657407
:1004800074696E677320726574726965766564203D
:100490002800204D61726C696E3D563338290A0080
:1004A00028454550524F4D3D00454550524F4D2037
:1004B00076657273696F6E206D69736D61746368C0
:1004C000200048617264636F6465642044656661FE
:1004D000756C742053657474696E6773204C6F611A
:1004E0006465640A0020204D383531205A005A2DA9
:1004F00050726F6265204F666673657420286D6D5B
:10050000293A0A0020440020490020204D33303190
:100510002050005049442073657474696E67733AC3
:100520000A0020460020420020480020204D31349F
:10053000352053004D6174657269616C2068656196
:1005400074757020706172616D65746572733A0ABA
:100550000020204D3432302053004175746F20420A
:100560006564204C6576656C696E673A0A00205AAE
:100570000020590020204D323036205800486F6D41
:1005800065206F66667365743A0A00204500205A3C
:100590000020590020580020420020540020204D07
:1005A000323035205300416476616E6365643A20D1
:1005B000533C6D696E5F66656564726174653E206B
:1005C000543C6D696E5F74726176656C5F666565DB
:1005D00064726174653E20423C6D696E5F7365674D
:1005E0006D656E745F74696D655F6D733E20583C18
:1005F0006D61785F78795F6A65726B3E205A3C6DF9
:1006000061785F7A5F6A65726B3E20453C6D617808
:100610005F655F6A65726B3E0A00205400205200DD
:1006200020204D323034205000416363656C657288
:100630006174696F6E2028756E6974732F73322927
:100640003A20503C7072696E745F616363656C3E02
:1006500020523C726574726163745F616363656CA0
:100660003E20543C74726176656C5F616363656CB7
:100670003E0A00204500205A0020590020204D321B
:1006800030312058004D6178696D756D204163638C
:10069000656C65726174696F6E2028756E6974731C
:1006A0002F7332293A0A00204500205A00205900B1
:1006B00020204D3230332058004D6178696D756DC2
:1006C000206665656472617465732028756E69744F
:1006D000732F73293A0A00204500205A0020590040
:1006E00020204D3932205800537465707320706596
:1006F0007220756E69743A0A0020204D3230302025
:1007000044300A0020204D3230302044002044691B
:100710007361626C65640A0046696C616D656E7434
:100720002073657474696E67733A0020204D31340C
:10073000392043203B20556E69747320696E204335
:10074000656C736975730A002020473231202020C0
:10075000203B20556E69747320696E206D6D0A0010
:1007600020746F6F206C6F6E67206578747275737C
:10077000696F6E2070726576656E7465640A00201C
:10078000636F6C6420657874727573696F6E207026
:10079000726576656E7465640A0024F4D43050C3C3
:1007A0008E20C2A24017828B7011127A910D816C3B
:1007B000D90AA861E108C7586607615143061E4B74
:1007C0005D05C145A7041A411104093D980371391B
:1007D00031034036DB0265339102D4305402802E5F
:1007E0001D02632CEE01752AC501B028A001102757
:1007F00081018F2564012B244B01E0223401AC21BF
:100800001F018D200D01801FFC00841EED00971D2F
:10081000DF00B81CD200E61BC600201BBC00641A17
:10082000B200B219A8000A19A0006A189900D117DD
:10083000910040178B00B516840031167E00B31569
:1008400079003A157300C7146F0058146A00EE134C
:1008500066008813630025135E00C7125B006C12EC
:10086000570015125400C111510070114F00211191
:100870004B00D61049008D1047004610440002106E
:100880004200C00F4000800F3E00420F3C00060FA8
:100890003B00CB0E3800930E37005C0E3500270E60
:1008A0003400F30D3200C10D3100900D3000600DA9
:1008B0002E00320D2D00050D2C00D90C2B00AE0C96
:1008C0002900850C29005C0C2700350C27000E0C34
:1008D0002600E80B2400C40B2400A00B23007D0B92
:1008E00023005A0B2100390B2100180B2000F80AB5
:1008F0001F00D90A1E00BB0A1E009D0A1D00800AA7
:100900001D00630A1C00470A1B002C0A1B00110A69
:100910001A00F7091A00DD091900C4091900AB090A
:100920001900920917007B091800630917004C0988
:10093000160036091600200916000A091500F508E8
:100940001500E0081400CC081400B8081400A4082E
:100950001400900813007D0812006B08130058085B
:100960001200460812003408110023081100120872
:10097000110001081100F0071000E0071000D00777
:100980001000C0071000B0070F00A107100091076A
:100990000E0083070F0074070F0065070E0057074E
:1009A0000E0049070E003B070D002E070E00200722
:1009B0000D0013070D0006070D00F9060C00ED06EB
:1009C0000D00E0060C00D4060C00C8060C00BC06A6
:1009D0000C00B0060C00A4060B0099060C008D0656
:1009E0000B0082060B0077060B006C060B006106FD
:1009F0000A0057060B004C060A0042060A00380699
:100A00000A002E060A0024060A001A060A0010062A
:100A1000090007060A00FD050900F4050900EB05B9
:100A20000900E2050900D9050900D0050900C7053C
:100A30000900BE050900B5050800AD050800A505BB
:100A400009009C050800940508008C050800840531
:100A500008007C050800740508006C0507006505A2
:100A600008005D050700560508004E05070047050C
:100A700007004005080038050700310507002A0572
:100A80000700230507001C050600160507000F05D3
:100A900007000805060002050700FB040600F50430
:100AA0000700EE040600E8040600E2040700DB0489
:100AB0000600D5040600CF040600C9040600C304DE
:100AC0000600BD040600B7040600B1040500AC042E
:100AD0000600A6040600A00405009B040600950479
:100AE0000500900406008A040500850405008004C2
:100AF00006007A04050075040500700405006B0407
:100B0000050066040500610405005C040500570447
:100B10000500520405004D04050048040500430487
:100B200005003E0404003A040500350405003004C5
:100B300004002C04050027040400230405001E04FF
:100B400004001A04040016040500110404000D0436
:100B50000400090405000404040000040400FC036C
:100B60000400F8030400F4030400F0030400EC03A1
:100B70000400E8030400E4030400E0030400DC03D1
:100B80000400D8030400D4030400D0030400CC0301
:100B90000400C8030300C503030024F404D9201B88
:100BA000C40C5C0E9804C4095F0265077101F4056A
:100BB000F900FB04B30048048700C103690058032F
:100BC000550003034500BE023A008402310053027F
:100BD0002A002902250004022000E4011C00C801AB
:100BE0001900AF011700980114008401130071016E
:100BF00010006101100051010E0043010D0036018B
:100C00000B002B010B0020010B00150109000C014A
:100C1000090003010800FB000800F3000800EB00D6
:100C20000700E4000600DE000600D8000600D2003F
:100C30000600CC000500C7000500C2000500BD008D
:100C40000400B9000400B5000400B1000400AD00C8
:100C50000400A9000400A5000300A20003009F00F7
:100C600004009B000300980003009500020093001D
:100C70000300900003008D0002008B000300880039
:100C800002008600020084000300810002007F0051
:100C900002007D0002007B00020079000200770064
:100CA0000100760002007400020072000100710071
:100CB00002006F0002006D0001006C0002006A007B
:100CC0000100690002006700010066000100650084
:100CD0000100640002006200010061000100600088
:100CE00001005F0002005D0001005C0001005B008C
:100CF00001005A000100590001005800010057008E
:100D0000010056000100550001005400010053008D
:100D1000000053000100520001005100010050008A
:100D200001004F0001004E0000004E0001004D0088
:100D300001004C0001004B0000004B0001004A0084
:100D40000100490001004800000048000100470080
:100D5000010046000000460001004500000045007B
:100D60000100440001004300000043000100420074
:100D7000000042000100410000004100010040006D
:100D800001003F0000003F0001003E0000003E0067
:100D900001003D0000003D0001003C0000003C005F
:100DA00000003C0001003B0000003B0001003A0055
:100DB00000003A000100390000003900010038004D
:100DC0000000380000003800010037000000370044
:100DD000010036000000360000003600010035003A
:100DE0000000350000003500010034000000340030
:100DF0000000340001003300000033000000330025
:100E00000100320000003200000032000100310019
:100E1000000031000000310001003000000030000F
:100E20000000300001002F0000002F0000002F0004
:100E300000002F0001002E0000002E0000002E00F8
:100E400001002D0000002D0000002D0000002D00ED
:100E500001002C0000002C0000002C0000002C00E1
:100E600001002B0000002B0000002B0000002B00D5
:100E700001002A0000002A0000002A0000002A00C9
:100E800001002900000029000000290000002900BD
:100E900000002900010028000000280000002800B0
:100EA00000002800000028000100270000002700A3
:100EB0000000270000002700000027000100260096
:100EC000000026000000260000002600000026008A
:100ED000010025000000250000002500000025007D
:100EE000000025000000250001002400000024006F
:100EF0000000240000002400000024000100230062
:100F00000000230000002300000023000000230055
:100F10000000230000002300010022000000220046
:100F20000000220000002200000022000000220039
:100F3000010021000000210000002100000021002C
:100F4000000021000000210000002100010020001D
:100F50000000200000002000000020000000200011
:100F600000002000000020000000200001001F0001
:100F700000001F0000001F0000001F0000001F00F5
:100F800000001F0000001F0001001E0000001E00E6
:100F900000001E0000001E0000004D3834205820C4
:100FA00059205A2045006265640A002C2073797329
:100FB00074656D2073746F7070656421204865617D
:100FC0007465725F49443A200048656174696E67D0
:100FD000206661696C65640048656174696E6720AC
:100FE0006661696C65640048656174696E67206656
:100FF00061696C65640048656174696E672066614B
:10100000696C65640070012C0190012701B0012218
:1010100001C0011D01F00118011002130130020E80
:10102000016002090190020401C002FF000003FAFE
:10103000004003F5008003F000D003EB002004E63D
:10104000007004E100E004DC004005D700C005D2D8
:10105000004006CD00D006C8008007C3003008BE9F
:1010600000F008B900C009B400B00AAF00B00BAA84
:1010700000D00CA500000EA000500F9B00C01096E1
:10108000005012910000148C00C0158700B0178228
:1010900000B0197D00D01B7800001E730040206E48
:1010A0000090226900F024640040275F0090295AD4
:1010B00000E02B5500102E500020304B001032461F
:1010C00000E033410090353C001037370070383273
:1010D00000A0392D00B03A2800A03B2300603C1E40
:1010E00000103D1900903D1400103E0F00703E0AA4
:1010F00000C03E0500003F0000403FFBFF803FF680
:10110000FFC03FF1FF544845524D414C2052554ECF
:101110004157415900546865726D616C2052756E7B
:1011200061776179004572723A204D494E54454DC0
:101130005020424544004572723A204D494E544574
:101140004D50004D494E54454D50207472696767AB
:1011500065726564004572723A204D415854454DA0
:101160005020424544004572723A204D4158544542
:101170004D50004D415854454D5020747269676779
:10118000657265640025753A253032750025303268
:10119000753A25303275002D2D2D005344005A002C
:1011A0005900580001200053746F7720424C546F4F
:1011B000756368004D32383020503020533930008C
:1011C0004465706C6F7920424C546F756368004DB4
:1011D0003238302050302053313000424C546F753B
:1011E00063682053656C662D54657374004D323806
:1011F00030205030205331323000526573657420F6
:10120000424C546F756368004D32383020503020A6
:1012100053313630004D61696E005072696E742032
:1012200070617573656400005072696E742061624C
:101230006F72746564005072696E742066726F6DAF
:101240002053440053746F70207072696E740052A2
:101250006573756D65207072696E74004E6F2053F2
:101260004420636172640050617573652070726917
:101270006E7400436F6E74726F6C005072657061B3
:1012800072650054756E6500496E666F20736372F7
:1012900065656E00466C6F7700466C6F770046613F
:1012A0006E20737065656420320046616E20737035
:1012B00065656420320046616E2073706565642048
:1012C000310046616E2073706565642031004265AF
:1012D0006400426564004E6F7A7A6C65004E6F7AE6
:1012E0007A6C6500537065656400537065656400D1
:1012F0004D61696E005072656865617420504C41A3
:1013000020456E64005072656865617420504C41E0
:1013100020426564005072656865617420504C41DC
:101320000050726570617265005072656865617425
:101330002041425320456E640050726568656174B7
:1013400020414253204265640050726568656174B3
:10135000204142530050726570617265004D343215
:1013600038004D3238302050302053313630004272
:101370004C546F7563682053656C662D54657374A7
:10138000004D32383020503020533132300050720E
:1013900065686561742041425300507265686561FB
:1013A0007420504C4100436F6F6C646F776E005235
:1013B0006573657420424C546F75636800446973AB
:1013C00061626C65207374657070657273004D386E
:1013D000340053657420686F6D65206F66667365B1
:1013E000747300486F6D65205A00473238205A00E8
:1013F000486F6D65205900473238205900486F6D9D
:10140000652058004732382058004175746F2068B5
:101410006F6D6500473238004D6F766520617869E1
:1014200073004D61696E004D6F76652058004D6FF9
:1014300076652059004D6F7665205A0045787472A4
:1014400075646572004D6F766520302E316D6D00CC
:101450004D6F766520316D6D004D6F7665203130B2
:101460006D6D004D6F766520617869730045787405
:101470007275646572004D6F7665205A004D6F7607
:10148000652059004D6F7665205800457874727557
:10149000646572004D6F7665205A004D6F76652049
:1014A00059004D6F76652058005072657061726505
:1014B000004D3530320A4D35303000526573746F4F
:1014C0007265206661696C73616665004C6F61646A
:1014D0002073657474696E677300496E697469611D
:1014E0006C697A6520454550524F4D0053746F72B8
:1014F000652073657474696E677300424C546F7530
:1015000063680046696C616D656E74004D6F746947
:101510006F6E0054656D7065726174757265004D13
:1015200061696E004D3330332055312045256920E7
:1015300053256900507265686561742041425320EB
:10154000636F6E66005072656865617420504C412F
:1015500020636F6E6600504944204175746F747546
:101560006E6500504944204175746F74756E650056
:101570005049442D44005049442D44005049442DC5
:1015800049005049442D49005049442D50005049CC
:10159000442D500020022046616374002002204642
:1015A000616374002002204D6178002002204D61AB
:1015B00078002002204D696E002002204D696E00E7
:1015C0004F6666004F6E20004175746F74656D70D4
:1015D0000046616E20737065656420320046616E5E
:1015E00020737065656420320046616E20737065FB
:1015F000656420310046616E20737065656420313A
:101600000042656400426564004E6F7A7A6C650042
:101610004E6F7A7A6C6500436F6E74726F6C005314
:10162000746F72652073657474696E6773004265C8
:101630006400426564004E6F7A7A6C65004E6F7A82
:101640007A6C650046616E20737065656400466162
:101650006E2073706565640054656D7065726174A9
:1016600075726500434F4D4D554E49434154494FA6
:101670004E0044525952554E004552524F5253005B
:10168000494E464F004543484F004B494C4C45445A
:101690002E200053544F505045442E200050726964
:1016A0006E7465722073746F707065642064756504
:1016B00020746F206572726F72732E2046697820D5
:1016C000746865206572726F7220616E6420757334
:1016D00065204D39393920746F20726573746172D9
:1016E000742E202854656D70657261747572652062
:1016F00069732072657365742E2053657420697454
:101700002061667465722072657374617274696EAB
:1017100067290A004E6F204C696E65204E756D6218
:101720006572207769746820636865636B73756D93
:101730002C204C617374204C696E653A20004E6F0A
:1017400020436865636B73756D2077697468206CDE
:10175000696E65206E756D6265722C204C617374C4
:10176000204C696E653A2000636865636B73756D24
:10177000206D69736D617463682C204C61737420F3
:101780004C696E653A20004C696E65204E756D623D
:101790006572206973206E6F74204C617374204CE5
:1017A000696E65204E756D6265722B312C204C611F
:1017B0007374204C696E653A20004D313130004D14
:1017C0003331004D383420582059205A20450053D9
:1017D000442072656164206572726F720A00446F02
:1017E0006E65207072696E74696E672066696C65DB
:1017F0000A0020496E76616C6964206578747275A0
:10180000646572200000009643000096430000BE0D
:1018100043000000C1000040400000000053544F4E
:10182000502063616C6C65642062656361757365EB
:10183000206F6620424C546F756368206572726F2A
:1018400072202D20726573746172742077697468D8
:10185000204D3939390A00205A3A200020593A20BF
:101860000042656420583A200020706F73697469E3
:101870006F6E206F7574206F662072616E67652EC3
:101880000A003F50726F62652000486F6D65202529
:1018900073257325732066697273740020666972FC
:1018A00073740A005A0059005800486F6D65200093
:1018B0000A0A426564204C6576656C20436F72723B
:1018C000656374696F6E204D61747269783A0020A7
:1018D0002B000A436F72726563746564204265640D
:1018E000204865696768742076732E2042656420FD
:1018F000546F706F6C6F67793A0A00202B000A42B0
:1019000065642048656967687420546F706F6772FA
:10191000617068793A0A2020202B2D2D2D2042411C
:10192000434B202D2D2B0A2020207C2020202020FE
:101930002020202020207C0A204C207C20202020D9
:10194000282B29202020207C20520A2045207C2082
:10195000202020202020202020207C20490A2046F2
:10196000207C20282D29204E20282B29207C204730
:101970000A2054207C2020202020202020202020ED
:101980007C20480A2020207C20202020282D29206F
:101990002020207C20540A2020207C202020202071
:1019A0002020202020207C0A2020204F2D2D204682
:1019B000524F4E54202D2D2B0A2028302C30290A2E
:1019C000004D65616E206F662073616D706C65649B
:1019D00020706F696E74733A200020643A200020F2
:1019E000623A200045716E20636F656666696369BF
:1019F000656E74733A20613A200052756E6E696E9E
:101A00006720696E204452592D52554E206D6F64E7
:101A1000650A00473239204175746F2042656420A1
:101A20004C6576656C696E670A0028422961636BB4
:101A300000284629726F6E740028522969676874FD
:101A400000284C29656674003F4E756D62657220F2
:101A50006F662070726F626520706F696E7473209C
:101A6000697320696D706C61757369626C6520289B
:101A700032206D696E696D756D292E0A003F2856FA
:101A8000296572626F7365206C6576656C20697379
:101A900020696D706C61757369626C652028302DEA
:101AA00034292E0A0044656C6574696F6E20666186
:101AB000696C65642C2046696C653A200046696C47
:101AC000652064656C657465643A006F70656E20AE
:101AD0006661696C65642C2046696C653A2000205B
:101AE00042403A0020403A00202F0020423A002095
:101AF0002F0020543A0048656174696E6720646F56
:101B00006E652E003F0A0020573A004525692025C2
:101B1000730046542D35205232204D61726C696E2F
:101B200020312E312E322072656164792E0042659B
:101B30006420646F6E652E003F0A0020573A004211
:101B400065642048656174696E672E00205A3A000A
:101B500020593A0020436F756E7420583A00204592
:101B60003A00205A3A0020593A00583A0020643A84
:101B70000020693A0020703A0023646566696E654A
:101B8000202044454641554C545F4B64200023645B
:101B90006566696E65202044454641554C545F4B4F
:101BA00069200023646566696E65202044454641CE
:101BB000554C545F4B702000504944204175746F60
:101BC00074756E652066696E69736865642120505E
:101BD000757420746865206C617374204B702C20C0
:101BE0004B6920616E64204B6420636F6E73746177
:101BF0006E74732066726F6D2062656C6F772069FA
:101C00006E746F20436F6E66696775726174696F79
:101C10006E2E680A00504944204175746F74756EC9
:101C200065206661696C6564212074696D656F75F6
:101C3000740A00504944204175746F74756E6520B4
:101C40006661696C6564212054656D7065726174AC
:101C500075726520746F6F20686967680A00204B91
:101C6000643A2000204B693A2000204B703A200053
:101C70000A20436C617373696320504944200A0051
:101C80002054753A2000204B753A2000206D617871
:101C90003A2000206D696E3A200020643A2000202E
:101CA000626961733A200047322F473320626164D2
:101CB00020706172616D65746572730A00536C65A2
:101CC00065702E2E2E005A2070726F6265206F751F
:101CD000742E206265640A005A2070726F6265205B
:101CE0006F75742E2062656400473238205A204692
:101CF0006F7262696464656E0A00473238205A2048
:101D0000466F7262696464656E00205A3A20002052
:101D1000593A200042656420583A200046542D3537
:101D2000205232204D61726C696E20312E312E327C
:101D30002072656164792E00526573756D696E67F6
:101D4000207072696E7400436C69636B20746F203D
:101D5000726573756D652E2E2E004E6F206D6F7639
:101D6000652E00456E642066696C65206C6973742D
:101D70000A00426567696E2066696C65206C69734C
:101D8000740A005344207072696E74696E67206231
:101D900079746520004E6F74205344207072696E10
:101DA00074696E670A002569730025696D202569CD
:101DB00073002569682025696D20256973002569F0
:101DC00064202569682025696D20256973002569CF
:101DD0007920256964202569682025696D20256999
:101DE00073005072696E742074696D653A200050FA
:101DF000726F7465637465642050696E0A004525CE
:101E0000692025730046542D35205232204D6172D1
:101E10006C696E20312E312E322072656164792E0C
:101E2000006F666600851680167916721664164471
:101E3000454255473A004B494C4C45442E20004DF5
:101E40003131332053006F6B0046542D3520523210
:101E5000204D61726C696E20312E312E32204F661A
:101E6000662E004649524D574152455F4E414D4501
:101E70003A4D61726C696E20312E312E3320284725
:101E800069746875622920534F555243455F434F2B
:101E900044455F55524C3A68747470733A2F2F67FB
:101EA00069746875622E636F6D2F4D61726C696E17
:101EB0004669726D776172652F4D61726C696E2033
:101EC00050524F544F434F4C5F56455253494F4E1B
:101ED0003A312E30204D414348494E455F545950C8
:101EE000453A46542D35205232204D61726C696E50
:101EF00020312E312E322045585452554445525FE0
:101F0000434F554E543A3120555549443A63656420
:101F100065326132662D343161322D343734382DDB
:101F2000396231322D633535633632663336376682
:101F3000660A007A5F6D696E3A2000795F6D696E9E
:101F40003A2000785F6D696E3A20005265706F72BA
:101F500074696E6720656E6473746F70207374614A
:101F60007475730A004D31343520533C696E6465D5
:101F7000783E206F7574206F662072616E676520F1
:101F800028302D31290A0053657474696E67205416
:101F9000726176656C20416363656C65726174691A
:101FA0006F6E3A200053657474696E6720526574D1
:101FB0007261637420416363656C65726174696FFB
:101FC0006E3A200053657474696E67205072696EB2
:101FD0007420416363656C65726174696F6E3A2049
:101FE0000053657474696E67205072696E74206165
:101FF0006E642054726176656C20416363656C6524
:10200000726174696F6E3A2000205A00205900589E
:102010000020204D61783A2000205A0020590058B5
:102020000020204D696E3A20004F6E20004F6666FA
:1020300000536F667420656E6473746F70733A201A
:10204000003A200020536572766F2000206F75746F
:10205000206F662072616E67650A00536572766F45
:10206000200043290A0061626C656420286D696E56
:102070002074656D702000436F6C64206578747205
:1020800075646573206172652000426564204C654B
:1020900076656C696E6720004661696C65642074C2
:1020A0006F20656E61626C6520426564204C6576C8
:1020B000656C696E670A00426564204C6576656CE4
:1020C00020436F7272656374696F6E204D61747224
:1020D00069783A004572723A20546F6F20666172D7
:1020E0002100546F6F206661722066726F6D2072DE
:1020F00065666572656E636520706F696E740A004F
:102100004F666673657473206170706C69656400F6
:102110003A20007A5F6D696E3A20202D35207A5F73
:102120006D61783A20202D302E3031005A204F66D4
:102130006673657420004E6F2063617365206C695F
:102140006768740A00416374697665204578747223
:10215000756465723A2000556E6B6E6F776E206302
:102160006F6D6D616E643A20220056547261762064
:102170006D696E005654726176206D696E00566D01
:10218000696E00566D696E00566D61782045005687
:102190006D6178204500566D6178205A00566D615A
:1021A00078205A00566D6178205900566D6178206C
:1021B0005900566D6178205800566D61782058009E
:1021C0004D6F74696F6E00416D6178204500416DFF
:1021D0006178204500416D6178205A00416D617839
:1021E000205A00416D6178205900416D6178205975
:1021F00000416D6178205800416D617820580041A0
:102200002D74726176656C00412D74726176656C17
:1022100000412D7265747261637400412D726574A2
:102220007261637400416363656C00416363656C54
:10223000004D6F74696F6E0056652D6A65726B0094
:1022400056652D6A65726B00567A2D6A65726B0051
:10225000567A2D6A65726B0056792D6A65726B002D
:1022600056792D6A65726B0056782D6A65726B001F
:1022700056782D6A65726B004D6F74696F6E0045FC
:1022800073746570732F6D6D004573746570732F73
:102290006D6D005A73746570732F6D6D005A737491
:1022A0006570732F6D6D005973746570732F6D6D4C
:1022B000005973746570732F6D6D00587374657079
:1022C000732F6D6D005873746570732F6D6D004DB5
:1022D0006F74696F6E0053746570732F6D6D004A73
:1022E00065726B00416363656C65726174696F6EE2
:1022F0000056656C6F63697479005A204F66667387
:102300006574005A204F666673657400436F6E747F
:10231000726F6C0046696C2E204469612E0046691C
:102320006C2E204469612E004F6666004F6E2000BF
:102330004520696E206D6D3300436F6E74726F6C53
:102340000043616E6E6F7420656E746572207375E4
:10235000626469723A2000052E2E004D61696E009C
:10236000436172642072656D6F76656400436172CB
:102370006420696E73657274656400000021002436
:102380000027002A002D0030003300010100000466
:102390000107010A0100002200250028002B002E61
:1023A000003100340002010000050108010B0100AA
:1023B0000020002300260029002C002F00320000FE
:1023C00001000003010601090105050505070508CF
:1023D000080808020202020A0A08080404040401A8
:1023E00001010101010101030303030303030304CA
:1023F0000707070C0C0C0C0C0C0C0C02020202065A
:10240000060606060606060B0B0B0B0B0B0B0B0149
:1024100002102020080810204010204080020102F5
:1024200001080402010102040810204080804020BD
:1024300010080402018004020180402010080402F8
:102440000108040201010204081020408001020476
:10245000081020408000000A0B02090C0D0E08072E
:102460000304010000000000000000000000000064
:10247000000000000000000000000000000000005C
:102480000012111000000000000000000000000019
:102490000000000000000000000000022D2D2D2D86
:1024A0002D2D007C4D61726C696E7C002D2D2D2DC3
:1024B0002D2D00687474703A2F2F6D61726C696EE7
:1024C00066772E6F726700687474703A2F2F6D6193
:1024D000726C696E66772E6F72670020312E312E16
:1024E00033002020506C616E6E65724275666665C1
:1024F0007242797465733A20002046726565204DFA
:10250000656D6F72793A2000436F6D70696C656418
:102510003A204D617220323620323032300A0020AB
:102520007C20417574686F723A20284C6F6E67206A
:102530004C652C20466F6C67657274656368204635
:10254000543520523220546974616E20457874727B
:102550007564657220616E64206533642D7636295A
:102560000A00323031372D30362D30342031323AB6
:10257000303000204C617374205570646174656460
:102580003A2000312E312E330A004D61726C696E93
:102590000020536F667477617265205265736574AD
:1025A0000A00205761746368646F67205265736521
:1025B000740A002042726F776E206F757420526526
:1025C0007365740A002045787465726E616C2052E0
:1025D000657365740A00506F77657255700A0073F1
:1025E000746172740A006572726F72207772697416
:1025F000696E6720746F2066696C650A00456E64B9
:1026000073746F7073202563202563202563202554
:102610006300205A3A0020593A0020583A00656E6B
:102620006473746F7073206869743A2000446F6E2D
:102630006520736176696E672066696C652E0A0095
:102640004D32390053544F502063616C6C656420E7
:1026500062656361757365206F6620424C546F75C7
:102660006368206572726F72202D207265737461C9
:1026700072742077697468204D3939390A005772AD
:102680006974696E6720746F2066696C653A200012
:102690006F70656E206661696C65642C2046696C9C
:1026A000653A20006F70656E206661696C65642C08
:1026B0002046696C653A200046696C652073656C3C
:1026C00065637465640A002053697A653A200046A0
:1026D000696C65206F70656E65643A20006F706587
:1026E0006E206661696C65642C2046696C653A20D1
:1026F000002066696C653A20004E6F77200022202A
:10270000706F73002220706172656E743A220053FC
:102710005542524F5554494E452043414C4C20742C
:1027200061726765743A22004B494C4C45442E2037
:1027300000747279696E6720746F2063616C6C201D
:102740007375622D67636F64652066696C657320BD
:102750007769746820746F6F206D616E79206C6585
:1027600076656C732E204D4158206C6576656C2023
:1027700069733A0043616E6E6F74206F70656E20EE
:10278000737562646972200053442063617264202F
:102790006F6B0A006F70656E526F6F7420666169AF
:1027A0006C65640A00766F6C756D652E696E697470
:1027B000206661696C65640A004572726F723A0046
:1027C000534420696E6974206661696C0A00617502
:1027D000746F25692E67004D3234004D3233202549
:1027E0007300656E7175657565696E672022006599
:1027F00063686F3A0000DEE7C0E711241FBECFEF29
:10280000D1E2DEBFCDBF00E00CBF14E0A0E0B2E03B
:10281000E4E5F9EF01E00BBF02C007900D92A2388A
:10282000B107D9F724E1A2E8B4E001C01D92AE31AE
:10283000B207E1F713E1CCEFD3E100E006C0219746
:102840000109802FFE010E9417FCCB3FD10780E0D9
:102850000807A9F70E9437E90C9499FC0C94000032
:102860002CEA35EC47E25EE360911C0B70911D0B86
:1028700080911E0B90911F0B0E94F8F960937D02CE
:1028800070937E0280937F029093800208952CEAD9
:1028900035EC47E25EE36091200B7091210B809153
:1028A000220B9091230B0E9449F560938102709353
:1028B000820280938302909384020895880F991F67
:1028C000880F991FFC01E45BFA4F408151816281BE
:1028D00073818A58934FFC014083518362837383D1
:1028E000E0914A05F0914B0582899389A489B589C5
:1028F00080939E0A90939F0AA093A00AB093A10A86
:102900000895CF93DF932FB7F894AC01440F551F70
:10291000440F551FFA01E45BFA4F60817181828197
:1029200093812FBFEA01CA59D34F0E94EAF428814C
:1029300039814A815B810E9449F5DF91CF910895E9
:1029400080914705811118C060910D0270910E02AF
:1029500090E080E00E94E8F49B01AC0160915A1085
:1029600070915B1080915C1090915D100E94E4F476
:10297000881F8827881F089580E00895EF92FF92AE
:102980000F931F93CF93DF93E0904A05F0904B0590
:10299000F70182819381A481B581181619061A0660
:1029A0001B06ECF48091990A80FF19C080917E0586
:1029B0009CB1929596959770909590FB80F9982F81
:1029C00080937E0580917D058170892341F08091FF
:1029D000B50C81608093B50C90E080E06FDFF7016B
:1029E00086819781A085B185181619061A061B06DF
:1029F00024F58091990A81FF20C080917E059091F5
:102A00000301969521E09227092F017010E011959E
:102A100001951109082702701127802780937E05F0
:102A200000917D050270082341F08091B50C826011
:102A30008093B50C81E090E041DFF70182859385BA
:102A4000A485B585181619061A061B063CF5809153
:102A5000990A82FF23C08091550C8823F9F0809158
:102A60007E0599B193FB992790F9C92FF0E0DF2FEC
:102A7000D195C195D109C827C470DD278C278093D3
:102A80007E05C0917D05C470C82341F08091B50CCE
:102A900084608093B50C82E090E010DF80917E0529
:102AA00080937D05DF91CF911F910F91FF90EF9063
:102AB0000895CF92DF92EF92FF92C0909902D0904A
:102AC0009A02E0909B02F0909C028091320C882345
:102AD00081F120E030E0A901C701B6010E94E4F4D1
:102AE000882339F120E030E040E05FE3C701B60120
:102AF0000E9449F59B01AC010E9449F52BED3FE096
:102B000049E450E40E9449F59B01AC0160E070E0AB
:102B100080E89FE30E94F8F96093090270930A022B
:102B200080930B0290930C02FF90EF90DF90CF9078
:102B3000089560E070E080E89FE3EECF0C9485CBD1
:102B40000F931F93CF93DF93CDB7DEB76E970FB67A
:102B5000F894DEBF0FBECDBF809178028F93809135
:102B600077028F931F921F9284E295E19F938F9338
:102B70008E010F5F1F4F1F930F930E947DF4C801BA
:102B80000E94B8C00FB6F894DEBF0FBECDBF6E96E0
:102B90000FB6F894DEBF0FBECDBFDF91CF911F916E
:102BA0000F910895CF92DF92EF92FF92CF93C82FAB
:102BB0000E9479CB6B017C0124EA30E74DE75FE3AB
:102BC0006091130B7091140B8091150B9091160B63
:102BD0000E94E4F487FD18C08AEF90E0A0E0B0E026
:102BE0008C0D9D1DAE1DBF1D8093350C9093360C32
:102BF000A093370CB093380CC0939D02CF91FF90F7
:102C0000EF90DF90CF90089580E090E0DC01E8CF76
:102C1000CF93DF9300D01F92CDB7DEB7882349F062
:102C20000E94E9D40F900F900F900F90DF91CF91F9
:102C3000089588EB91E09C838B8384E190E09A83F4
:102C40008983BE016D5F7F4FCE0101960E949DC2B8
:102C5000E9CFCF92DF92EF92FF920F931F93CF9322
:102C6000DF936B017A01EC01C857DA4F28813CE011
:102C7000389F8001399F100D112427FF24C0FB01CC
:102C80001182108288818F5F888388819801280F44
:102C9000311D87FD3A95C90120912C11F6012817A5
:102CA000190629F024F088818C300CF43CC0808116
:102CB0009181049680349C4908F475C0F6018081A6
:102CC0009181049672C088819801280F311D87FD7B
:102CD0003A95C90120912C112817190699F294F2FE
:102CE0008881A801480F511D87FD5A95FA01EE0F02
:102CF000FF1FE40FF51FE054FF4E808186FFC2CF17
:102D00008881F801E80FF11D87FDFA95CF01EE0FDC
:102D1000FF1FE80FF91FE054FF4E808160E08F73C2
:102D20000E945AC3AFCF808191812881A801420FB0
:102D3000511D27FD5A959A01FA01EE0FFF1FE20F70
:102D4000F31FE054FF4E21813281820F931FF70160
:102D50009183808388819801280F311D87FD3A95E2
:102D6000F901EE0FFF1FE20FF31FE054FF4E8081C9
:102D700086FF20C08881080F111D87FD1A95F80174
:102D8000EE0FFF1FE00FF11FE054FF4E808161E066
:102D90008F73DF91CF911F910F91FF90EF90DF9094
:102DA000CF900C945AC380E49CE9F701918380830F
:102DB0008FEF8883DF91CF911F910F91FF90EF905C
:102DC000DF90CF9008954F925F926F927F92AF9273
:102DD000BF92CF92DF92EF92FF920F931F93CF9308
:102DE000DF938C01EB01FC0147A050A461A472A405
:102DF000AFA0B8A4C9A4DAA49501A601C301B20189
:102E00000E94E4F487FF3EC0A3019201C301B20116
:102E10000E9449F52B013C01F80163A974A985A919
:102E200096A990589B01AC010E941CF9F80127A5B6
:102E300030A941A952A90E9449F59B01AC01C301E7
:102E4000B2010E941BF90E9487FB7B018C019B0150
:102E5000AC01B501C6010E94E4F487FF02C0750110
:102E600086019701A801B501C6010E94E4F48823F8
:102E700049F0C701D8018FA398A7A9A7BAA788814D
:102E800081608883DF91CF911F910F91FF90EF9028
:102E9000DF90CF90BF90AF907F906F905F904F90FA
:102EA00008954F925F926F927F928F929F92AF920E
:102EB000BF92CF92DF92EF92FF92CF93DF93CDB785
:102EC000DEB76A970FB6F894DEBF0FBECDBF9A8FFC
:102ED000898F5B014A01DC01D7966D917D918D91BF
:102EE0009C91DA970E94E8F46B017C01F501208146
:102EF0003181428153810E9449F50E94E2F90E948A
:102F000065FA3B015C01D4012D913D914D915C919D
:102F1000C701B6010E9449F50E94E2F90E9465FAD4
:102F20006D827E82AF82B8862D813E814F81588529
:102F3000283731054105510540F428E730E040E0ED
:102F400050E02D833E834F83588769837A838B8338
:102F50009C8389819A81AB81BC8188379105A105C9
:102F6000B10540F428E730E040E050E029833A839F
:102F70004B835C83E98DFA8DED5BFF4F80819181FE
:102F8000A281B3818D879E87AF87B88BBC01CD01AD
:102F90000E94EAF469877A878B879C876D817E819E
:102FA0008F8198850E94E8F4698B7A8B8B8B9C8B40
:102FB00020E030E0A90169857A858B859C850E9497
:102FC000E4F4882309F432C1A7019601C701B601D0
:102FD0000E9449F54B015C0129893A894B895C893A
:102FE000CA01B9010E9449F59B01AC01C501B401B8
:102FF0000E941BF94B015C0129853A854B855C8554
:10300000CA01B9010E941CF99B01AC01C501B401C0
:103010000E94F8F90E94E2F90E9460FA2B013C013B
:103020006D857E858F859889909580957095619541
:103030007F4F8F4F9F4F0E94EAF44B015C016981E3
:103040007A818B819C810E94E8F46D877E878F87CF
:10305000988B20E030E0A901C501B4010E94E4F49E
:10306000882309F4E7C02D853E854F855889CA011C
:10307000B9010E9449F56D8B7E8B8F8B988FA701CC
:103080009601C701B6010E9449F59B01AC016D890B
:103090007E898F89988D0E941BF96B017C01A501A7
:1030A0009401C501B4010E941CF99B01AC01C70148
:1030B000B6010E94F8F90E9491FAA98DBA8D529634
:1030C0008D909D90AD90BC90559775016401C4188A
:1030D000D508E608F7080E9460FAC61AD70AE80A77
:1030E000F90AF7FE67C020E030E0A90169857A851A
:1030F0008B859C850E94E4F4882309F49FC0C50158
:10310000B4010E94E8F46B017C0129853A854B8566
:103110005C85CA01B9010E941CF99B01AC01C70181
:10312000B6010E9449F56B017C0129893A894B89D6
:103130005C89CA01B9010E9449F59B01AC01C70134
:10314000B6010E941BF96B017C012D853E854F85E0
:103150005889CA01B9010E9449F59B01AC01C70118
:10316000B6010E941CF96B017C0120E030E040E8D0
:1031700050E469857A858B859C850E9449F59B0181
:10318000AC01C701B6010E94F8F90E94E2F90E9461
:1031900060FA2B013C0177FE03C0412C512C320117
:1031A000481459046A047B0410F024013501C12C31
:1031B000D12C76018FB7F894E98DFA8D908193FD2B
:1031C0001FC0DF01468A578A608E718EC40CD51CE1
:1031D000E61CF71CC28ED38EE48EF58E2D813E81C7
:1031E0004F81588523AF34AF45AF56AFDF96298165
:1031F0003A814B815C812D933D934D935C93139762
:103200008FBF6A960FB6F894DEBF0FBECDBFDF91B9
:10321000CF91FF90EF90DF90CF90BF90AF909F90B5
:103220008F907F906F905F904F90089560E070E076
:10323000CB01F0CE60E070E0CB013DCF60E070E00C
:10324000CB01A3CFAF92BF92CF92DF92EF92FF92CA
:103250000F931F93CF93DF931F92CDB7DEB76C010F
:103260008B01590180917C0581111BC07B01E40E0B
:10327000F51EF601808191810E9499F88983F801F9
:1032800081938F01BE016F5F7F4FC5010E94D1C244
:10329000F60180819181019691838083E016F10689
:1032A00041F70F90DF91CF911F910F91FF90EF9019
:1032B000DF90CF90BF90AF9008957F928F929F92B2
:1032C000AF92BF92CF92DF92EF92FF920F931F9334
:1032D000CF93DF931F92CDB7DEB7E0917C05E1116C
:1032E00038C059017C018B016B01C40ED51E0C1531
:1032F0001D0579F1F70180809180F80171908F01AF
:103300007982C4010E9499F8781691F1672DC40161
:103310000E94A1F8C4010E9499F89981891741F18E
:103320000FEE17E2F80184910F5F1F4F81110BC060
:1033300004EF13E0F80184910F5F1F4F882331F0F1
:103340000E945E7AF7CF0E945E7AECCF81E0809394
:103350007C050F90DF91CF911F910F91FF90EF901F
:10336000DF90CF90BF90AF909F908F907F90089507
:10337000BE016F5F7F4FC5010E94D1C2F7018081FE
:103380009181019691838083B2CF8091070B863023
:10339000D8F496E0899FF0011124ED51F54F20916A
:1033A000A7023091A8023183208340918B0C509169
:1033B0008C0C60918D0C70918E0C428353836483CE
:1033C00075838F5F8093070B08952091A70230913A
:1033D000A80228173907D9F09093A8028093A70272
:1033E00040938B0C50938C0C60938D0C70938E0CCF
:1033F0008C5C934221F410923D0C1092070B0E94BA
:1034000013C982E08093A90281E08093340C08956F
:1034100080E090E0A0E2B1E48093130B9093140B52
:10342000A093150BB093160B40E050E0BA018091C9
:10343000180B9091190BC9CF80E090E0A0E8BFE392
:103440008093130B9093140BA093150BB093160B52
:1034500040E050E0BA018091180B9091190BB5CF64
:103460008DEC9CECACECBDE38093130B9093140BB0
:10347000A093150BB093160B40E050E0BA01809179
:10348000180B9091190BA1CF40E050E0BA018CECE1
:1034900093E29BCFE091070BEE2381F0E150E093A4
:1034A000070B86E0E89FF0011124ED51F54F4281B2
:1034B0005381648175818081918187CFE5CFEF92BF
:1034C000FF920F93CF93DF93D82F7A01C22F80E022
:1034D0000E94D9C4D11101C0C0E28C2F0E94CCC47B
:1034E000C2E1F7016491662359F0CC2379F08EE5AF
:1034F00090E10E94B1C4C150FFEFEF1AFF0AF1CF73
:10350000C15020F080E20E94CCC4FACF802FDF911E
:10351000CF910F91FF90EF900C94CCC48F929F921B
:10352000AF92BF92CF92DF92EF92FF920F931F93D1
:10353000CF93DF931092420C80918B0C90918C0C66
:10354000A0918D0CB0918E0C81309048A105B105F1
:1035500040F010928B0C10928C0C10928D0C1092EB
:103560008E0CC0918B0C80910D0B1816DCF4282F5B
:10357000082E000C330B215031094C2F0C2E000C5F
:10358000550B4217530774F0CFEFC80F8C2F90E004
:10359000B0E0A0E080938B0C90938C0CA0938D0CEA
:1035A000B0938E0C1092340C8091330CC81714F425
:1035B000C093330C8091330C082E000C990B0396AA
:1035C0002C2F0C2E000C330B8217930724F48DEF55
:1035D0008C0F8093330C1091330CD0E084EBE82EE9
:1035E00081E1F82E9FECC92E91E1D92E2DEEA22E6D
:1035F00021E1B22E38E0832E32E1932E11112DC03D
:103600008091430C811115C08091A902882349F053
:1036100081E0C11180E003E023E045E152E16D2F3C
:103620004EDF1F5FDF5FD43049F785E080930D0BDD
:1036300007C0C111E9CF2EDF8091340C882321F31C
:10364000DF91CF911F910F91FF90EF90DF90CF907E
:10365000BF90AF909F908F9008951130F1F48091BA
:10366000430C81110DC08091A9028823D1F281E021
:10367000C13009F080E000E22EE34AEF51E1CFCF04
:10368000C13089F79092CE0E8092CD0E0E94337792
:103690008091340C882339F3D3CF123009F04BC01A
:1036A0008091430C81110EC08091A902882309F4F6
:1036B000B8CF81E0C23009F080E000E22EE34BEDAC
:1036C00051E1ADCFC23081F7B092CE0EA092CD0EB7
:1036D0000E9433778091340C882331F3B1CF8091ED
:1036E000430C81110EC08091A902882309F499CF5F
:1036F00081E0C33009F080E000E22EE340EC51E1CC
:103700008ECFC33081F7D092CE0EC092CD0E0E94E4
:1037100033778091340C882331F392CFC430A1F4F5
:10372000F092CE0EE092CD0E0E9433778091340C51
:10373000882351F085CF133091F2143009F071CF06
:103740008091430C8111EACF8091A902882309F46A
:1037500068CF81E0C43009F080E000E22EE347EA60
:1037600051E15DCF0F931F93CF93DF931092420CE3
:1037700080918B0C90918C0CA0918D0CB0918E0C43
:1037800081309048A105B10540F010928B0C109249
:103790008C0C10928D0C10928E0CC0918B0C809121
:1037A0001A0B1816DCF4282F082E000C330B2150AE
:1037B00031094C2F0C2E000C550B4217530774F097
:1037C000CFEFC80F8C2F90E0B0E0A0E080938B0C7F
:1037D00090938C0CA0938D0CB0938E0C1092340CA3
:1037E0008091330CC81714F4C093330C8091330CC0
:1037F000082E000C990B03962C2F0C2E000C330B6B
:103800008217930724F48DEF8C0F8093330C109163
:10381000330CD0E0111125C08091430C811115C0EB
:103820008091A902882349F081E0C11180E003E082
:1038300023E049EA54E16D2F42DE1F5FDF5FD430A1
:1038400049F785E080931A0B07C0C111E9CF22DE4A
:103850008091340C882321F3DF91CF911F910F9138
:1038600008951130E1F48091430C81110DC08091D5
:10387000A902882311F381E0C13009F080E00EE352
:103880002EE342EA54E1D7CFC13089F78DE29EE1C1
:103890000E944AD88091340C882349F3DDCF12303E
:1038A00009F044C08091430C81110DC08091A902A0
:1038B000882319F281E0C23009F080E00EE32EE3A4
:1038C0004BE954E1B8CFC23089F782E39EE10E9410
:1038D0004AD88091340C882349F3BECF8091430CA1
:1038E00081110EC08091A902882309F4A6CF81E03E
:1038F000C33009F080E00EE32EE344E954E19BCFAE
:10390000C33081F787E39EE10E944AD88091340C4E
:10391000882341F3A1CFC43091F48CE39EE10E944F
:103920004AD88091340C882351F096CF1330B1F2ED
:10393000143009F082CF8091430C8111ECCF80913B
:10394000A902882309F479CF81E0C43009F080E02E
:103950000EE32EE34BE854E16ECFEF92FF920F930C
:103960001F93CF93DF937C017093190B6093180B17
:103970001092420C80918B0C90918C0CA0918D0C2C
:10398000B0918E0C81309048A105B10540F01092A5
:103990008B0C10928C0C10928D0C10928E0CC0918E
:1039A0008B0C8091170B1816DCF4282F082E000CB6
:1039B000330B215031094C2F0C2E000C550B4217A4
:1039C000530774F0CFEFC80F8C2F90E0B0E0A0E069
:1039D00080938B0C90938C0CA0938D0CB0938E0CD9
:1039E0001092340C8091330CC81714F4C093330C2C
:1039F0008091330C082E000C990B03962C2F0C2E63
:103A0000000C330B8217930724F48DEF8C0F8093F7
:103A1000330C1091330CD0E081E091E0E916F10411
:103A200091F122E0E216F10409F451C0E114F1042D
:103A300009F06FC011118FC08823B1F01C16A4F0DB
:103A400080918B0C90918C0CA0918D0CB0918E0C70
:103A50000196A11DB11D80938B0C90938C0CA093AB
:103A60008D0CB0938E0CCF5F8091A90264E874E155
:103A7000811129C01F5F80E0DF5FD43071F685E0DF
:103A80008093170B85C0111166C08823B1F01C16F6
:103A9000A4F080918B0C90918C0CA0918D0CB09126
:103AA0008E0C0196A11DB11D80938B0C90938C0CF4
:103AB000A0938D0CB0938E0CCF5F8091A9026DE71F
:103AC00074E18823B9F28D2F0E94EAC4D3CF11117B
:103AD00042C08823B1F01C16A4F080918B0C909109
:103AE0008C0CA0918D0CB0918E0C0196A11DB11D76
:103AF00080938B0C90938C0CA0938D0CB0938E0CB8
:103B0000CF5F8091A90266E774E1882309F4B2CF00
:103B1000DACF111120C08823B1F01C16A4F08091D7
:103B20008B0C90918C0CA0918D0CB0918E0C019609
:103B3000A11DB11D80938B0C90938C0CA0938D0CC8
:103B4000B0938E0CCF5F8091A902882309F492CFA5
:103B50006DE674E1B8CF113011F58091430C8111FD
:103B600010C08091A902882309F484CF81E0C1307C
:103B700009F080E003E023E043E654E16D2F9FDC91
:103B800079CFC13071F786DC8091340C882349F3FA
:103B9000DF91CF911F910F91FF90EF900895123018
:103BA000E9F48091430C81110EC08091A902882311
:103BB00009F460CF81E0C23009F080E00EE32EE32B
:103BC00049E554E1DBCFC23081F788E09AE10E94F9
:103BD0004AD88091340C882341F3DACF1330E9F4CA
:103BE0008091430C81110EC08091A902882309F4B1
:103BF00041CF81E0C33009F080E00EE32EE340E5E1
:103C000054E1BCCFC33081F78CE19AE10E944AD8DD
:103C10008091340C882341F3BBCF143009F02ACFB4
:103C20008091430C81110EC08091A902882309F470
:103C300021CF81E0C43009F080E00EE32EE345E4BB
:103C400054E19CCFC43081F780E39AE10E944AD8C6
:103C50008091340C882341F39BCF68E973E290E0B4
:103C600080E07BCE63E973E281E090E076CE6EE89F
:103C700073E282E090E071CE69E172E283E090E06D
:103C80006CCE0F931F93CF93DF931092420C8091D1
:103C90008B0C90918C0CA0918D0CB0918E0C81307E
:103CA0009048A105B10540F010928B0C10928C0C3D
:103CB00010928D0C10928E0CC0918B0C8091100B79
:103CC0001816DCF4282F082E000C330B2150310974
:103CD0004C2F0C2E000C550B4217530774F0CFEFEE
:103CE000C80F8C2F90E0B0E0A0E080938B0C9093F5
:103CF0008C0CA0938D0CB0938E0C1092340C809190
:103D0000330CC81714F4C093330C8091330C082E75
:103D1000000C990B03962C2F0C2E000C330B8217E2
:103D2000930724F48DEF8C0F8093330C1091330C98
:103D3000D0E0111124C08091430C811114C08091F6
:103D4000A902882349F081E0C11180E003E023E06B
:103D500041E253E16D2FB3DB1F5FDF5FD43049F7E2
:103D6000D093100B07C0C111EACF94DB8091340CC3
:103D7000882329F3DF91CF911F910F91089511307E
:103D800031F58091430C81110DC08091A9028823E7
:103D900019F381E0C13009F080E000E22EE345E153
:103DA00053E1D8CFC13089F740916E0550916F052E
:103DB000609166057091670580916A0590916B0529
:103DC0000E94CECB8091340C8823F9F2D3CF1230ED
:103DD000C1F58091430C81110EC08091A902882306
:103DE00009F4BACF81E0C23009F080E000E22EE3AE
:103DF00045EF52E1AFCFC23081F740916E0550914F
:103E00006F056FEF7FEF80916A0590916B050E94BF
:103E1000CECB8091340C882301F3ACCFC330C1F4F6
:103E200040916E0550916F05609166057091670530
:103E300090E080E00E94CECB8091340C882341F04A
:103E400099CF133009F088CF8091430C8111E6CFD0
:103E50008091A902882309F47FCF81E0C33009F063
:103E600080E000E22EE345E053E174CF0F931F930F
:103E7000CF93DF931092420C80918B0C90918C0C1D
:103E8000A0918D0CB0918E0C81309048A105B105A8
:103E900040F010928B0C10928C0C10928D0C1092A2
:103EA0008E0CC0918B0C8091110B1816DCF4282F0E
:103EB000082E000C330B215031094C2F0C2E000C16
:103EC000550B4217530774F0CFEFC80F8C2F90E0BB
:103ED000B0E0A0E080938B0C90938C0CA0938D0CA1
:103EE000B0938E0C1092340C8091330CC81714F4DC
:103EF000C093330C8091330C082E000C990B039661
:103F00002C2F0C2E000C330B8217930724F48DEF0B
:103F10008C0F8093330C1091330CD0E0111124C01E
:103F20008091430C811114C08091A902882349F02B
:103F300081E0C11180E003E023E045E553E16D2F0E
:103F4000BEDA1F5FDF5FD43049F7D093110B07C093
:103F5000C111EACF9FDA8091340C882329F3DF91D5
:103F6000CF911F910F910895113031F58091430C3D
:103F700081110DC08091A902882319F381E0C1301D
:103F800009F080E000E22EE349E453E1D8CFC130EC
:103F900089F74091700550917105609168057091A5
:103FA000690580916C0590916D050E94CECB809142
:103FB000340C8823F9F2D3CF1230C1F58091430C31
:103FC00081110EC08091A902882309F4BACF81E043
:103FD000C23009F080E000E22EE349E253E1AFCFC6
:103FE000C23081F740917005509171056FEF7FEFFE
:103FF00080916C0590916D050E94CECB8091340C20
:10400000882301F3ACCFC330C1F4409170055091C7
:104010007105609168057091690590E080E00E94EB
:10402000CECB8091340C882341F099CF133009F026
:1040300088CF8091430C8111E6CF8091A90288231B
:1040400009F47FCF81E0C33009F080E000E22EE385
:1040500049E353E174CFEF92FF920F931F93CF93F5
:10406000DF931092420C80918B0C90918C0CA0915C
:104070008D0CB0918E0C81309048A105B10540F0B7
:1040800010928B0C10928C0C10928D0C10928E0C46
:10409000C0918B0C80910F0B1816DCF4282F082E82
:1040A000000C330B215031094C2F0C2E000C550BFA
:1040B0004217530774F0CFEFC80F8C2F90E0B0E099
:1040C000A0E080938B0C90938C0CA0938D0CB093FC
:1040D0008E0C1092340C8091330CC81714F4C093DA
:1040E000330C8091330C082E000C990B03962C2F67
:1040F0000C2E000C330B8217930724F48DEF8C0FDA
:104100008093330CF090330CD0E0EE24E394F11064
:1041100027C08091430C811115C08091A90288238A
:1041200049F081E0C11180E003E023E040EF52E17B
:104130006D2FC5D9F394DF5FD43049F787E08093C2
:104140000F0B07C0C111E9CFA5D98091340C88238A
:1041500021F3DF91CF911F910F91FF90EF90089580
:1041600081E0F81228C08091430C811113C0809126
:10417000A9028823F9F28CE592E00E94A5D29C0165
:1041800081E0C13009F080E044EE52E16D2F0E94E1
:1041900023C5D0CFC13059F727EE33E04AE050E0D5
:1041A0006CE572E08AEE92E10E94B7DF8091340CF8
:1041B0008823E9F2CECF22E0F212D5C08091430CE1
:1041C000811111C08091A902882309F4B3CF88E539
:1041D00090E10E94A5D29C0181E0C23009F080E00C
:1041E00046ED52E1D3CFC23069F7E092420C109213
:1041F0003E0C10923F0C1092400C1092410C0EE9B4
:1042000015E12EE031E050E040E068E570E18DED31
:1042100092E10E94F9C28091340C882399F299CFDF
:104220008091430C811111C08091A902882309F467
:1042300081CF82E99CE00E94A5D29C0181E0C3303D
:1042400009F080E04EEC52E1A1CFC33069F7E09273
:10425000420C10923E0C10923F0C1092400C1092A7
:10426000410C07EB17E227E830E050E040E062E95C
:104270007CE082ED92E10E94F9C28091340C8823A7
:1042800099F267CF8091430C811111C08091A902EE
:10429000882309F44FCF84E99CE00E94A5D29C01B9
:1042A00081E0C43009F080E046EB52E16FCFC430CA
:1042B00069F7E092420C10923E0C10923F0C109263
:1042C000400C1092410C2FEF30E050E040E064E9E8
:1042D0007CE082EC92E10E94B7DF8091340C88236D
:1042E000A9F237CF8091430C811111C08091A902AE
:1042F000882309F41FCF86E99CE00E94A5D29C0187
:1043000081E0C53009F080E04EE952E13FCFC53091
:1043100069F7E092420C10923E0C10923F0C109202
:10432000400C1092410C2FEF30E050E040E066E985
:104330007CE08AEA92E10E94B7DF8091340C882306
:10434000A9F207CFC63011F527EE33E04AE050E07E
:104350006AE572E089E992E10E94B7DF8091340C4E
:104360008823A1F0F6CE83E0F81609F459CF24E0B3
:10437000F21609F487CF85E0F81609F4B3CF26E0EA
:10438000F212D8CE8091430C8111DCCF8091A9022A
:10439000882309F4CFCE8AE592E00E94A5D29C0141
:1043A00081E0C63009F080E044E952E1EFCECF93DE
:1043B000DF93EC01FE018491882321F00E94CCC49C
:1043C0002196F8CFDF91CF910895CF93DF93EC0141
:1043D0008991882319F00E94CCC4FACFDF91CF9144
:1043E00008950F931F93CF93DF938C01EB0161E04E
:1043F00081E00E94D9C4C801DADF2097A9F08AE3DE
:104400000E94CCC4FE019F012C1B3D0B81918111A8
:10441000FACF61E084E1821B0E94D9C4CE01DF9112
:10442000CF911F910F91D1CFDF91CF911F910F911C
:1044300008958091430C81112DC860918B0C70916F
:104440008C0C80918D0C90918E0C611571058105FD
:10445000910569F10E94EAF42091130B3091140B3D
:104460004091150B5091160B0E9449F52091B10C0B
:104470003091B20C4091B30C5091B40C0E941CF9D5
:104480006093B10C7093B20C8093B30C9093B40C06
:1044900010928B0C10928C0C10928D0C10928E0C32
:1044A00083E090E00E94D21581E08093A902809180
:1044B000A902882341F081EB9CE00E9468D0BC01F6
:1044C0008CE394E18ECF08952F923F924F925F92AA
:1044D0006F927F928F929F92AF92BF92CF92DF9214
:1044E000EF92FF920F931F93CF93DF9300D000D0F2
:1044F000CDB7DEB72091430C2223D1F026960FB61C
:10450000F894DEBF0FBECDBFDF91CF911F910F9109
:10451000FF90EF90DF90CF90BF90AF909F908F90E3
:104520007F906F905F904F903F902F900C944A1A1D
:104530008B011C0180918B0C90918C0CA0918D0CA7
:10454000B0918E0C892B8A2B8B2B09F46DC00E94A5
:104550001B7AC801880F991F880F991F9E838D832E
:10456000FC01EB55F34F80809180A280B380809155
:104570007602811182C020E030E04AE754E4C501B0
:10458000B4010E941BF92B013C0120E030E04AE716
:1045900054E4C501B4010E941CF96B017C018091B7
:1045A0008B0C90918C0CA0918D0CB0918E0C89830A
:1045B0009A83AB83BC83BC01CD010E94EAF42091B5
:1045C000130B3091140B4091150B5091160B0E9458
:1045D00049F5A50194010E941CF94B015C018981F8
:1045E0009A81AB81BC81B7FF64C0A3019201C50170
:1045F000B4010E94E4F487FD51C0AD81BE81AB558A
:10460000B34FFD0180829182A282B382C8010E94D1
:10461000D21510928B0C10928C0C10928D0C109263
:104620008E0C81E08093A9028091A902882309F46D
:104630005CC0C801880F991F880F991F8B55934F35
:104640000E9468D0BC01C10126960FB6F894DEBF67
:104650000FBECDBFDF91CF911F910F91FF90EF90D3
:10466000DF90CF90BF90AF909F908F907F906F9092
:104670005F904F903F902F90B4CEED81FE81E65930
:10468000FD4F4080518062807380ED81FE81E25A4F
:10469000FD4FC080D180E280F38081CF8D819E81EB
:1046A0008B55934FDC014D925D926D927C921397E6
:1046B000ADCF89819A81AB81BC81892B8A2B8B2BD1
:1046C00009F49BCFA7019601C501B4010E9442FBEA
:1046D00018160CF092CFAD81BE81AB55B34FFD01E2
:1046E000C082D182E282F38291CF26960FB6F894EF
:1046F000DEBF0FBECDBFDF91CF911F910F91FF9015
:10470000EF90DF90CF90BF90AF909F908F907F9071
:104710006F905F904F903F902F90089562E070E00F
:1047200085E394E1D1CE61E070E08EE294E1CCCEFD
:1047300070E060E087E294E1C7CE61E572E080E07E
:104740000E941AC969E472E081E00E941AC961E41A
:1047500072E082E00E941AC969E372E086E00E947A
:104760001AC961E372E087E00E941AC969E272E047
:1047700083E00E941AC961E272E084E00E941AC9D3
:1047800069E172E085E00C941AC964E084E10E945A
:1047900065C9D3DF0C9413C94F925F926F927F92D9
:1047A0008F929F92AF92BF92CF92DF92EF92FF9241
:1047B0000F931F93CF93DF9300D000D000D01F92B0
:1047C000CDB7DEB71092420C8091430C8823F9F0EC
:1047D000DCDF40E050E0BA0182EE95E40E94E5198A
:1047E0002A960FB6F894DEBF0FBECDBFDF91CF91F2
:1047F0001F910F91FF90EF90DF90CF90BF90AF90FF
:104800009F908F907F906F905F904F900895409110
:104810008B0C50918C0C60918D0C70918E0C2091B2
:104820005C0230915D02C901840F951F2436310569
:104830000CF04AC2853691050CF04DC290935D0292
:1048400080935C0210928B0C10928C0C10928D0C49
:1048500010928E0C80915C0290915D02883E23E064
:10486000920714F087EE93E08A30910514F48AE001
:1048700090E090935D0280935C020E9479CB00915E
:10488000090B10910A0B20910B0B30910C0B6B0153
:104890007C01C01AD10AE20AF30A9701860137FDAA
:1048A00011C02091080B20952093080B6A547C4F6F
:1048B0008F4F9F4F6093090B70930A0B80930B0BE4
:1048C00090930C0BF090080B60E080E00E94D9C43C
:1048D00040905A1050905B1060905C1070905D108A
:1048E0006091581070915910072E000C880B990B8D
:1048F0000E94EAF44B015C0182E00E94CCC420E0FB
:1049000030E040E05FE3C301B2010E941CF90E9465
:1049100060FA7A8369838E010F5F1F4FC8010E947E
:10492000A5D20E94E7C28FE20E94CCC420E030E012
:1049300040E05FE3C501B4010E941CF90E9460FAE7
:104940007A836983C8010E9472D20E94E7C284EA16
:1049500091E12DDD20E030E040E251E4C501B401F9
:104960000E94E4F487FF03C080E20E94CCC460E0B0
:104970008AE00E94D9C48090620590906305A0905F
:104980006405B09065056091920C7091930C072EB0
:10499000000C880B990B0E94EAF42B013C0180E08B
:1049A0000E94CCC420E030E040E05FE3C501B401E8
:1049B0000E941CF90E9460FA7A836983C8010E94F0
:1049C000A5D20E94E7C28FE20E94CCC420E030E072
:1049D00040E05FE3C301B2010E941CF90E9460FA4B
:1049E0007A836983C8010E9472D20E94E7C284EA76
:1049F00091E1DDDC20E030E040E251E4C301B201AE
:104A00000E94E4F487FF03C080E20E94CCC461E00E
:104A100080E00E94D9C4FF2009F46FC182EA91E1CD
:104A2000C6DC6091A50C7091A60C8091A70C9091AA
:104A3000A80C0E9460FA7A836983C8010E94F1D1B0
:104A40000E94E7C280E20E94CCC4FF2009F463C147
:104A500080EA91E1ACDC6091A90C7091AA0C809184
:104A6000AB0C9091AC0C0E9460FA7A836983C80108
:104A70000E94F1D10E94E7C261E08CE00E94D9C49B
:104A8000FF2009F456C18EE991E191DC2CEA35EC66
:104A900047E257E36091AD0C7091AE0C8091AF0C82
:104AA0009091B00C0E941CF920E030E048EC52E4F8
:104AB0000E9449F50E9460FA6B017C01F7FC47C136
:104AC00060E220E1C21627E2D206E104F10484F09C
:104AD000B60120E137E240E050E00E94E0F8CA0170
:104AE000B9012AE030E040E050E00E94E0F8605D6B
:104AF0006093840C60E288EEC81683E0D806E10477
:104B0000F1048CF0C701B60128EE33E040E050E03C
:104B10000E94E0F8CA01B9012AE030E040E050E02C
:104B20000E94E0F8605D6093850CC701B60124E641
:104B300030E040E050E00E94E0F89AE0892E912CAD
:104B4000A12CB12CCA01B901A50194010E94E0F881
:104B5000605D6093860CC701B601A50194010E94B7
:104B6000E0F8F62ECA01B901A50194010E94E0F80F
:104B7000FF2009F4F6C08EE28093870C605D60939D
:104B8000880C80E38F0D8093890C84E89CE00E9460
:104B9000E7C262E080E00E94D9C486E00E94CCC4F3
:104BA0008CE592E00E94A5D20E94E7C285E20E94B5
:104BB000CCC462E087E00E94D9C48BE991E1F7DBC5
:104BC00080915E11882309F4DEC080912C13882324
:104BD00009F4D7C08091D6139091D713A091D81320
:104BE000B091D9130097A105B10509F4CAC0BC0161
:104BF000CD016D597F4F8F4F9F4F24E630E040E04D
:104C000050E00E94BEF86091DA137091DB1380913E
:104C1000DC139091DD130E94BEF830E03A832983C3
:104C2000C8010E94A5D20E94E7C285E20E94CCC4BE
:104C30000E946DCD2B013C0120E13EE040E050E0C0
:104C40000E94BEF8D22EC32EE22EF32E8CE3882EC5
:104C5000912CA12CB12CC301B201A50194010E9499
:104C6000BEF8CA01B901A50194010E94BEF894E6FC
:104C7000E916F10408F08BC07F936F93C70168E1D8
:104C800070E00E94F0FB9F938F938DE891E19F93DA
:104C90008F931F930F930E947DF40FB6F894DEBF9D
:104CA0000FBECDBF95E062E083E1891B0E94D9C4AD
:104CB00087E00E94CCC4C80188DB63E080E00E94EA
:104CC000D9C40E94B6C48CCD2436310539F084365F
:104CD00091050CF0B3CD84E690E0B0CD4B3051059A
:104CE0006105710514F00A97A9CD463F5F4F6F4FDC
:104CF0007F4F0CF0AFCD0A96A1CD80915F05811159
:104D000004C08FE30E94CCC48CCE8091520C8111E0
:104D100085CE80E2F7CF80916005811104C08FE3DA
:104D20000E94CCC498CE8091530C811191CE80E228
:104D3000F7CF80916105811104C08FE30E94CCC43C
:104D4000A5CE8091540C81119ECE80E2F7CFF094D5
:104D5000E094D094C094C11CD11CE11CF11C6DE204
:104D6000C7CE662341F08EE28093870C605D60932E
:104D7000880C80E208CF80E28093880C8093870CB7
:104D8000F8CF20E04ACF87E991E111DB4ECF7F9346
:104D90006F93CF92DF9285E891E19F938F931F935A
:104DA0000F930E947DF40FB6F894DEBF0FBECDBF07
:104DB00096E079CF4F925F926F927F92AF92BF92BF
:104DC000CF92DF92EF92FF920F931F93CF93DF93D7
:104DD00024E030E041E050E0D901A559BE4FFD018B
:104DE00065917491861797070CF066C04150510980
:104DF000440F551F440F551FEA01C359DE4FFE01F2
:104E00000591149145595E4FFA0165917491F9012C
:104E1000E359FE4FE590F490FE01C590D490FD015A
:104E2000C591D491FA01A590B490861B970BBC0153
:104E3000990F880B990B0E94EAF42B013C01B701F2
:104E40006C197D09072E000C880B990B0E94EAF45F
:104E50009B01AC01C301B2010E9449F56B017C01C9
:104E6000BE016A197B09072E000C880B990B0E9462
:104E7000EAF49B01AC01C701B6010E94F8F96B018D
:104E80007C01B801110F880B990B0E94EAF49B0179
:104E9000AC01C701B6010E941CF9DF91CF911F91AF
:104EA0000F91FF90EF90DF90CF90BF90AF907F90E9
:104EB0006F905F904F9008954F5F5F4F2C5F3F4F13
:104EC0002038310509F088CFE9EEF1E06591749161
:104ED000072E000C880B990B0E94EAF4DECFCF92CC
:104EE000DF92EF92FF92C0906205D0906305E09050
:104EF0006405F09065056091920C7091930C66507A
:104F00007109072E000C880B990B0E94EAF4A70187
:104F100096010E9442FB18160CF520E030E040E0BC
:104F200050E4C701B6010E941CF90E9465FA709313
:104F3000C50A6093C40A0E9479CB605A75418F4FAD
:104F40009F4F6093C00A7093C10A8093C20A9093E6
:104F5000C30AFF90EF90DF90CF9008951092C00A9F
:104F60001092C10A1092C20A1092C30AF2CFB7CFB0
:104F70001092240B10925910109258100E9485CB59
:104F80001092930C1092920CAADF0E9401CC109206
:104F90005910109258100E9485CB10925E052C98E3
:104FA0001092930C1092920C10925D059FB7F8949A
:104FB000E2E0F1E080818F7D80839FBF08953F9282
:104FC0004F925F926F927F928F929F92AF92BF9219
:104FD000CF92DF92EF92FF920F931F93CF93DF93C5
:104FE0001092420C80918B0C90918C0CA0918D0CA6
:104FF000B0918E0C81309048A105B10540F010921F
:105000008B0C10928C0C10928D0C10928E0C1091B7
:105010008B0C8091120B1816DCF4282F082E000C34
:10502000330B21503109412F012E000C550B421733
:10503000530774F01FEF180F812F90E0B0E0A0E04D
:1050400080938B0C90938C0CA0938D0CB0938E0C52
:105050001092340C8091330C181714F41093330C05
:105060008091330C082E000C990B0396212F012EF2
:10507000000C330B8217930724F48DEF810F80937C
:10508000330CC091330CD0E03EEC432E33E1532E71
:105090004AEE642E43E1742E54E0E52E54E1F52EE1
:1050A00064E1C62E64E1D62E71E8A72E73E1B72E17
:1050B000E2E68E2EE3E19E2EC1119BC08091430C4F
:1050C00081117CC08091A902882351F081E01111E7
:1050D00080E003E023E042E254E16D2F0E945F1A7A
:1050E00080915810909159102091920C3091930C0E
:1050F000232B19F4892B09F46EC189E0382EC830AE
:1051000009F06BC18091430C811145C18091A902C6
:10511000811155C129E0322E81E0830D8C1312C01C
:105120008091430C81117AC18091A902882351F0AA
:1051300081E01C1380E00EE32EE34EE853E16D2F77
:105140000E945F1A82E0830D8C1312C08091430C81
:10515000811170C18091A902882351F081E01C1354
:1051600080E000E22EE34FE653E16D2F0E945F1ACC
:1051700083E0830D9091550C911118C04B9B16C084
:105180008C1312C08091430C811162C18091A902DD
:10519000882351F081E01C1380E000E22EE34FEA07
:1051A00053E16D2F0E945F1A84E0830DCF5FDF5FB4
:1051B000D43009F081CF8093120B09C0111182CF36
:1051C0000E944A1A8091340C882309F47BCFDF9126
:1051D000CF911F910F91FF90EF90DF90CF90BF90F4
:1051E000AF909F908F907F906F905F904F903F9087
:1051F0000895C130E9F48091430C81110EC0809173
:10520000A902882309F46CCF81E0113009F080E015
:105210000EE32EE348E154E160CF113081F782EBD9
:105220009BE10E944AD88091340C882341F3CFCF70
:10523000C23009F01BC18091430C81110EC08091D6
:10524000A902882309F44CCF81E0123009F080E0F4
:1052500000E22EE34AE054E140CF123081F7D092D1
:10526000CE0EC092CD0E0E9433778091340C8823ED
:1052700031F3ADCF8091430C81110EC08091A90212
:10528000882309F42DCF81E0133009F080E000E29B
:105290002EE34DEF53E121CF133081F7F092CE0E84
:1052A000E092CD0E0E9433778091340C882331F345
:1052B0008ECF8091430C81110EC08091A90288236A
:1052C00009F40ECF81E0143009F080E000E22EE313
:1052D00040EF53E102CF143081F787EF93E19093D1
:1052E000CE0E8093CD0E0E9433778091340C8823AC
:1052F00021F36DCF8091430C81110EC08091A902E2
:10530000882309F4EDCE81E0153009F080E000E259
:105310002EE343EE53E1E1CE153081F77092CE0ECD
:105320006092CD0E0E9433778091340C882331F344
:105330004ECF8091430C81110EC08091A902882329
:1053400009F4CECE81E0163009F080E000E22EE3D1
:1053500042ED53E1C2CE163081F78DE593E1909393
:10536000CE0E8093CD0E0E9433770E94441A809116
:10537000340C882311F32BCF173009F08AC05092D8
:10538000CE0E4092CD0E0E9433778091340C88234C
:1053900009F47FC01CCF183009F0B8CE1092950CDC
:1053A0001092940C1092970C1092960CE1DD0E94D2
:1053B000441A8091340C882309F4A8CE08CF81E0E8
:1053C000183009F080E000E22EE346EA53E16D2F49
:1053D0000E945F1A9FCE98E0392E3C129DCE80919C
:1053E000430C811110C08091A902882309F494CE46
:1053F00081E01C1380E00EE32EE34AE953E16D2FB8
:105400000E945F1A89CE1311EECF81E49EE10E94C3
:105410004AD88091340C882331F3D9CE1C1384CE22
:1054200086E39FE10E944AD88091340C882309F4D6
:105430007BCECDCE1C138ECEB092CE0EA092CD0ED2
:105440000E9433778091340C882309F483CEBFCE39
:105450001C139CCE9092CE0E8092CD0E0E9433777C
:105460008091340C882309F491CEB1CEC33009F475
:1054700001CFC43009F41DCFC53009F43BCFC6308D
:1054800009F457CFC73009F02BCE8091430C81111E
:1054900073CF8091A902882309F422CE81E01730CE
:1054A00009F080E000E22EE34DEB53E116CE4F927F
:1054B0005F926F927F92AF92BF92CF92DF92EF9204
:1054C000FF920F931F93CF93DF9324E030E041E0EE
:1054D00050E0D901AB5FBF4EFD0165917491861715
:1054E00097070CF066C041505109440F551F440FF7
:1054F000551FEA01C95FDF4EFE01059114914B5F14
:105500005F4EFA0165917491F901E95FFF4EE590F4
:10551000F490FE01C590D490FD01C591D491FA019B
:10552000A590B490861B970BBC01990F880B990B23
:105530000E94EAF42B013C01B7016C197D09072E8A
:10554000000C880B990B0E94EAF49B01AC01C3018B
:10555000B2010E9449F56B017C01BE016A197B0909
:10556000072E000C880B990B0E94EAF49B01AC01FA
:10557000C701B6010E94F8F96B017C01B801110F57
:10558000880B990B0E94EAF49B01AC01C701B6019C
:105590000E941CF9DF91CF911F910F91FF90EF9026
:1055A000DF90CF90BF90AF907F906F905F904F90C3
:1055B00008954F5F5F4F2C5F3F4F211561E0360725
:1055C00009F087CFE3E0F1E165917491072E000CBB
:1055D000880B990B0E94EAF4DDCF8091D00A90915C
:1055E000D10AE8DB60935A1070935B1080935C10D3
:1055F00090935D108091CE0A9091CF0A58DF60930E
:105600006205709363058093640590936505A89582
:105610008FB7F89410925C058FBF08958091990A16
:1056200080FF24C0899A8FEF80930F028091990A9E
:1056300081FF1FC08F988FEF809310028091990A8D
:105640009FB782FF19C0F89480910B01826080930C
:105650000B019FBF8FEF809311028091990A83FF06
:1056600014C016988FEF809312020895899881E0F4
:10567000DBCF8F9A81E0E0CFF89480910B018D7F92
:1056800080930B019FBF81E0E6CF169A81E0EBCFBC
:105690009091BE108091BF10981731F08091BF108B
:1056A0008F5F8F708093BF1008951F920F920FB677
:1056B0000F9211240BB60F92BF92CF92DF92EF920E
:1056C000FF920F931F932F933F934F935F936F938B
:1056D0007F938F939F93AF93BF93EF93FF93CF935A
:1056E000DF9300D01F92CDB7DEB780916E008B7F25
:1056F00080936E0080916F008D7F80936F0078940F
:10570000C0909A0AD0909B0AE0909C0AF0909D0A63
:10571000C114D104E104F10441F08091A602811189
:1057200027C08091550C811123C00091480510912C
:1057300049051A830983012B09F488C009811A815C
:1057400001501109109349050093480510924B052B
:1057500010924A059DDF012B41F48AE99FE0909366
:10576000CE0E8093CD0E0E94337788EC90E031C04E
:105770000E94BE1419EBC1161BE0D106E104F1042E
:1057800008F45BC028EBC21A2BE0D20AE108F1084A
:10579000C0929A0AD0929B0AE0929C0AF0929D0ACB
:1057A000F8EBCF2EFBE0DF2ED0928900C09288006C
:1057B000209188003091890080918400909185002B
:1057C00040962817390748F480918400909185000D
:1057D00040969093890080938800F8948091E20A23
:1057E000882309F46FC680916E008B7F80936E00D2
:1057F00080916F00826080936F000F900F900F90E8
:105800000F90DF91CF91FF91EF91BF91AF919F9159
:105810008F917F916F915F914F913F912F911F9148
:105820000F91FF90EF90DF90CF90BF900F900BBE45
:105830000F900FBE0F901F90189510929A0A109219
:105840009B0A10929C0A10929D0AAECF80914A0545
:1058500090914B05892B09F0DBC19091BE1080918E
:10586000BF10981709F443C0E091BF10C090390CE5
:10587000D0903A0CE0903B0CF0903C0C0E2F10E0D6
:105880002FE4E29FF0011124E557FA4F9F01255BB9
:105890003F4FD9014D915D916D917C91D701C6012A
:1058A000841B950BA60BB70B8093390C90933A0C85
:1058B000A0933B0CB0933C0C808188608083F09374
:1058C0004B05E0934A0522A18091990A281709F116
:1058D0002093990A8FE4809FF001819FF00D11249D
:1058E000E557FA4F81818093130298DE1BC08FB772
:1058F000F8941092390C10923A0C10923B0C1092C2
:105900003C0C8FBF10924B0510924A0580ED97E03A
:1059100060CF318180911302082E000C990B38174B
:105920001906B1F61092950A1092960A1092970AEB
:105930001092980A8FE4809FF001819FF00D11244E
:10594000E557FA4F87A990AD8134BCE99B0708F071
:1059500041C08132EEE49E0708F43FC096958795DA
:105960009695879524E02093940A8C0100521109A2
:105970001A830983011528E0120708F440C0E12FBB
:10598000FF27EE0FFF1FEE0FFF1FCF018656944F2C
:10599000FC01329645915491AA27059F9001049FDE
:1059A000210D3A1F06942A1F3A1F1124FC018591EC
:1059B0009491821B930B8436910508F049C003ED46
:1059C00013E0D8018D918D01882309F43BC00E941A
:1059D0005E7AF7CF80E49CE9C1CF8131F7E29F077F
:1059E00020F09695879522E0BECF21E02093940A7F
:1059F0008032910508F0B9CF80E290E0B6CF89817E
:105A00009A81969587958C7F8656984FFC012591B3
:105A10003491FC0132964591549169817A81677085
:105A20007727649FC001659F900D749F900D11248E
:105A300043E0969587954A95E1F7A901481B590BD4
:105A4000CA01B9CF89819A810E9492C084E690E010
:105A50009093930A8093920A8091940A8093910A7A
:105A6000E0914A05F0914B0583AD94AD9093900A77
:105A700080938F0A8134BCE99B0708F041C08132D2
:105A8000EEE49E0708F43FC0969587959695879516
:105A900024E02093940A8C01005211091A8309838F
:105AA000011528E0120708F440C0E12FFF27EE0F90
:105AB000FF1FEE0FFF1FCF018656944FFC01329659
:105AC00045915491AA27059F9001049F210D3A1FEB
:105AD00006942A1F3A1F1124FC0185919491821B80
