:100000000C9452110C9483110C9483110C94831151
:100010000C9483110C9483110C9483110C94831110
:100020000C9483110C9483110C9483110C94831100
:100030000C9483110C9483110C9483110C948311F0
:100040000C9483110C9464340C9483110C948311DC
:100050000C9483110C9483110C94793E0C94309F72
:100060000C9483110C9400870C9483110C948311CD
:100070000C9483110C9483110C9483110C948311B0
:100080000C9483110C9483110C9483110C948311A0
:100090000C9483110C9483110C9483110C94831190
:1000A0000C9483110C9483110C9483110C94831180
:1000B0000C9483110C9483110C9483110C94831170
:1000C0000C9483110C9483110C9483110C94831160
:1000D0000C9483110C9483110C9483110C94831150
:1000E0000C948311084AD73B3BCE016E84BCBFFD04
:1000F000C12F3D6C74319ABD56833DDA3D00C77FF8
:1001000011BED9E4BB4C3E916BAAAABE0000008090
:100110003F05A84CCDB2D44EB93836A9020C50B91F
:10012000918688083CA6AAAA2ABE000000803F004B
:100130004E414E494E495459494E46CDCCCC3D0ACC
:10014000D7233C17B7D13877CC2B329595E6241FAF
:10015000B14F0A000020410000C84200401C462068
:10016000BCBE4CCA1B0E5AAEC59D74434F4D4D5577
:100170004E49434154494F4E0044525952554E0046
:100180004552524F525300494E464F004543484F47
:10019000001000C90210012C014001220170011859
:1001A00001B0010E01F00104015002FA00B002F0AA
:1001B000003003E600D003DC009004D2007005C8D4
:1001C00000A006BE000008B400B009AA00D00BA031
:1001D00000600E960060118C0000158200201978D6
:1001E00000C01D6E00A0226400B0275A00902C5061
:1001F0000000314600E0343C0010383200903A28CC
:1002000000603C1E00A03D1400803E0A00203F001C
:10021000004B494C4C45442E200053544F50504500
:10022000442E20005072696E7465722073746F7072
:100230007065642064756520746F206572726F72DA
:10024000732E2046697820746865206572726F721B
:1002500020616E6420757365204D39393920746FC3
:1002600020726573746172742E202854656D7065F8
:100270007261747572652069732072657365742E7E
:1002800020536574206974206166746572207265FC
:100290007374617274696E67290A004E6F204C692D
:1002A0006E65204E756D6265722077697468206393
:1002B0006865636B73756D2C204C617374204C6999
:1002C0006E653A20004E6F20436865636B73756DF1
:1002D0002077697468206C696E65206E756D626543
:1002E000722C204C617374204C696E653A20006357
:1002F0006865636B73756D206D69736D6174636898
:100300002C204C617374204C696E653A20004C6956
:100310006E65204E756D626572206973206E6F7414
:10032000204C617374204C696E65204E756D62655A
:10033000722B312C204C617374204C696E653A200D
:10034000004D313130004D3331004D3834205820CC
:1003500059205A204500534420726561642065721B
:10036000726F720A00446F6E65207072696E7469F4
:100370006E672066696C650A0020496E76616C695B
:10038000642065787472756465722000000096437D
:10039000000096430000BE43000000000000000083
:1003A0000000000044656C6574696F6E20666169C9
:1003B0006C65642C2046696C653A200046696C6562
:1003C0002064656C657465643A006F70656E2066C4
:1003D00061696C65642C2046696C653A2000204296
:1003E000403A0020403A00202F0020423A00202FBF
:1003F0000020543A00205A3A0020593A0020436F16
:10040000756E7420583A0020453A00205A3A002070
:10041000593A00583A0023646566696E65202044A5
:10042000454641554C545F4B642000236465666922
:100430006E65202044454641554C545F4B69200071
:1004400023646566696E65202044454641554C54D9
:100450005F4B702000504944204175746F74756E75
:10046000652066696E697368656421205075742023
:10047000746865206C617374204B702C204B69206C
:10048000616E64204B6420636F6E7374616E74736D
:100490002066726F6D2062656C6F7720696E746F75
:1004A00020436F6E66696775726174696F6E2E683E
:1004B0000A00504944204175746F74756E6520665A
:1004C00061696C6564212074696D656F75740A00DB
:1004D000504944204175746F74756E65206661697A
:1004E0006C6564212054656D706572617475726508
:1004F00020746F6F20686967680A00204B643A2097
:1005000000204B693A2000204B703A20000A20431B
:100510006C617373696320504944200A002054754C
:100520003A2000204B753A2000206D61783A200077
:10053000206D696E3A200020643A200020626961D3
:10054000733A200047322F47332062616420706184
:1005500072616D65746572730A00536C6565702E07
:100560002E2E0046542D35205232204D61726C697A
:100570006E20312E312E322072656164792E005248
:100580006573756D696E67207072696E7400436C77
:1005900069636B20746F20726573756D652E2E2EE6
:1005A000004E6F206D6F76652E00456E6420666983
:1005B0006C65206C6973740A00426567696E206619
:1005C000696C65206C6973740A0053442070726909
:1005D0006E74696E67206279746520004E6F7420B6
:1005E0005344207072696E74696E670A00256973DE
:1005F0000025696D20256973002569682025696DCE
:100600002025697300256964202569682025696DA6
:10061000202569730025697920256964202569688A
:100620002025696D20256973005072696E742074ED
:10063000696D653A200050726F746563746564205B
:1006400050696E0A004525692025730046542D35F2
:10065000205232204D61726C696E20312E312E3263
:100660002072656164792E006F6666008C018701D7
:10067000800179016B0144454255473A004B494C92
:100680004C45442E20004D3131332053006F6B0018
:1006900048656174696E6720646F6E652E003F0A5D
:1006A0000020573A004525692025730046542D3512
:1006B000205232204D61726C696E20312E312E3203
:1006C0002072656164792E0042656420646F6E65F6
:1006D0002E003F0A0020573A0042656420486561B9
:1006E00074696E672E0046542D35205232204D61BC
:1006F000726C696E20312E312E32204F66662E00CC
:100700004649524D574152455F4E414D453A4D6124
:10071000726C696E20312E312E332028476974683F
:1007200075622920534F555243455F434F44455FFF
:1007300055524C3A68747470733A2F2F6769746815
:1007400075622E636F6D2F4D61726C696E466972B2
:100750006D776172652F4D61726C696E2050524FDA
:10076000544F434F4C5F56455253494F4E3A312EEA
:1007700030204D414348494E455F545950453A4613
:10078000542D35205232204D61726C696E20312E0D
:10079000312E322045585452554445525F434F55EF
:1007A0004E543A3120555549443A63656465326187
:1007B00032662D343161322D343734382D3962317F
:1007C000322D6335356336326633363766660A0056
:1007D0007A5F6D696E3A2000795F6D696E3A20002C
:1007E000785F6D696E3A20005265706F7274696E41
:1007F0006720656E6473746F7020737461747573B1
:100800000A004D31343520533C696E6465783E20D2
:100810006F7574206F662072616E67652028302DB9
:1008200031290A0053657474696E672054726176C9
:10083000656C20416363656C65726174696F6E3AC3
:10084000200053657474696E672052657472616329
:100850007420416363656C65726174696F6E3A20E0
:100860000053657474696E67205072696E7420411C
:100870006363656C65726174696F6E3A20005365DD
:100880007474696E67205072696E7420616E6420A2
:1008900054726176656C20416363656C6572617446
:1008A000696F6E3A2000205A00205900580020201D
:1008B0004D61783A2000205A00205900580020202D
:1008C0004D696E3A20004F6E20004F666600536FF0
:1008D000667420656E6473746F70733A20002064D0
:1008E0003A0020693A0020703A0043290A00616208
:1008F0006C656420286D696E2074656D70200043FE
:100900006F6C6420657874727564657320617265BC
:1009100020004572723A20546F6F20666172210088
:10092000546F6F206661722066726F6D207265660B
:100930006572656E636520706F696E740A004F663C
:100940006673657473206170706C696564004E6FC6
:100950002063617365206C696768740A0041637481
:100960006976652045787472756465723A20005521
:100970006E6B6E6F776E20636F6D6D616E643A2083
:100980002200526573656E643A20006F6B0020741C
:100990006F6F206C6F6E6720657874727573696F06
:1009A0006E2070726576656E7465640A0020636FF0
:1009B0006C6420657874727573696F6E20707265EF
:1009C00076656E7465640A00627573793A207061A9
:1009D0007573656420666F7220696E7075740A00A5
:1009E000627573793A2070617573656420666F7201
:1009F00020757365720A00627573793A2070726FA0
:100A000063657373696E670A004B494C4C45442E0D
:100A100020004B494C4C20636175736564206279FA
:100A2000204B494C4C20627574746F6E2F70696E48
:100A30000A004B494C4C45442E20004B494C4C205D
:100A400063617573656420627920746F6F206D75C2
:100A5000636820696E6163746976652074696D6589
:100A6000202D2063757272656E7420636F6D6D61E9
:100A70006E643A2000506C65617365207265736521
:100A800074005052494E5445522048414C544544FC
:100A9000005072696E7465722068616C7465642EB2
:100AA000206B696C6C28292063616C6C6564210A79
:100AB000000000000000000000000000005761720C
:100AC0006E696E673A20486F6D696E672042756D7A
:100AD000702044697669736F72203C20310A0000EF
:100AE00000A0400000A0400000004000009643002D
:100AF0000096430000BE43FFFFFF7C3C3E5E2B3D63
:100B00003F2F5B5D3B2C2A225C004572726F722086
:100B100077726974696E6720746F20454550524F33
:100B20004D210A00290A002062797465733B206315
:100B30007263200053657474696E67732053746F19
:100B4000726564202800202863616C63756C617491
:100B5000656429210A0020213D2000454550524F5F
:100B60004D20435243206D69736D61746368202D7D
:100B7000202873746F726564292000290A0020629E
:100B8000797465733B2063726320002073746F7205
:100B900065642073657474696E677320726574721E
:100BA0006965766564202800204D61726C696E3D30
:100BB000563338290A0028454550524F4D3D0045CF
:100BC0004550524F4D2076657273696F6E206D6986
:100BD000736D61746368200048617264636F64655B
:100BE000642044656661756C742053657474696E25
:100BF0006773204C6F616465640A002044002049DB
:100C00000020204D3330312050005049442073657E
:100C10007474696E67733A0A00204600204200200F
:100C2000480020204D3134352053004D61746572E9
:100C300069616C2068656174757020706172616DA6
:100C400065746572733A0A00205A0020590020200A
:100C50004D323036205800486F6D65206F666673E0
:100C600065743A0A00204500205A00205900205897
:100C70000020420020540020204D32303520530007
:100C8000416476616E6365643A20533C6D696E5FC2
:100C900066656564726174653E20543C6D696E5F83
:100CA00074726176656C5F66656564726174653ED9
:100CB00020423C6D696E5F7365676D656E745F742D
:100CC000696D655F6D733E20583C6D61785F787922
:100CD0005F6A65726B3E205A3C6D61785F7A5F6A2D
:100CE00065726B3E20453C6D61785F655F6A657239
:100CF0006B3E0A0020540020520020204D32303438
:100D0000205000416363656C65726174696F6E2089
:100D100028756E6974732F7332293A20503C7072B3
:100D2000696E745F616363656C3E20523C726574EA
:100D3000726163745F616363656C3E20543C7472DE
:100D40006176656C5F616363656C3E0A00204500F7
:100D5000205A0020590020204D3230312058004DBB
:100D60006178696D756D20416363656C657261744E
:100D7000696F6E2028756E6974732F7332293A0A71
:100D800000204500205A0020590020204D323033E9
:100D90002058004D6178696D756D206665656472D7
:100DA000617465732028756E6974732F73293A0A0C
:100DB00000204500205A0020590020204D393220C3
:100DC000580053746570732070657220756E697475
:100DD0003A0A0020204D3230302044300A002020D2
:100DE0004D3230302044002044697361626C656488
:100DF0000A0046696C616D656E7420736574746970
:100E00006E67733A0020204D3134392043203B2057
:100E1000556E69747320696E2043656C73697573D0
:100E20000A002020473231202020203B20556E69C7
:100E3000747320696E206D6D0A0020746F6F206CD2
:100E40006F6E6720657874727573696F6E2070724B
:100E50006576656E7465640A0020636F6C64206556
:100E60007874727573696F6E2070726576656E74D2
:100E700065640A0024F4D43050C38E20C2A2401707
:100E8000828B7011127A910D816CD90AA861E108E8
:100E9000C7586607615143061E4B5D05C145A7044F
:100EA0001A411104093D9803713931034036DB02C0
:100EB00065339102D4305402802E1D02632CEE0162
:100EC000752AC501B028A001102781018F25640172
:100ED0002B244B01E0223401AC211F018D200D0198
:100EE000801FFC00841EED00971DDF00B81CD2009F
:100EF000E61BC600201BBC00641AB200B219A80091
:100F00000A19A0006A189900D117910040178B00A8
:100F1000B516840031167E00B31579003A157300BA
:100F2000C7146F0058146A00EE136600881363003C
:100F300025135E00C7125B006C1257001512540097
:100F4000C111510070114F0021114B00D610490002
:100F50008D1047004610440002104200C00F4000B0
:100F6000800F3E00420F3C00060F3B00CB0E3800C6
:100F7000930E37005C0E3500270E3400F30D32005F
:100F8000C10D3100900D3000600D2E00320D2D008E
:100F9000050D2C00D90C2B00AE0C2900850C290066
:100FA0005C0C2700350C27000E0C2600E80B2400F3
:100FB000C40B2400A00B23007D0B23005A0B21003F
:100FC000390B2100180B2000F80A1F00D90A1E0057
:100FD000BB0A1E009D0A1D00800A1D00630A1C003A
:100FE000470A1B002C0A1B00110A1A00F7091A00F5
:100FF000DD091900C4091900AB091900920917008D
:101000007B091800630917004C0916003609160001
:10101000200916000A091500F5081500E00814005B
:10102000CC081400B8081400A40814009008130099
:101030007D0812006B0813005808120046081200C1
:1010400034081100230811001208110001081100D2
:10105000F0071000E0071000D0071000C0071000D4
:10106000B0070F00A107100091070E0083070F00C3
:1010700074070F0065070E0057070E0049070E00A2
:101080003B070D002E070E0020070D0013070D0073
:1010900006070D00F9060C00ED060D00E0060C0039
:1010A000D4060C00C8060C00BC060C00B0060C00F0
:1010B000A4060B0099060C008D060B0082060B009F
:1010C00077060B006C060B0061060A0057060B0042
:1010D0004C060A0042060A0038060A002E060A00DC
:1010E00024060A001A060A001006090007060A006C
:1010F000FD050900F4050900EB050900E2050900FA
:10110000D9050900D0050900C7050900BE05090079
:10111000B5050800AD050800A50509009C050800F7
:10112000940508008C050800840508007C0508006B
:10113000740508006C050700650508005D050700DB
:10114000560508004E050700470507004005080042
:1011500038050700310507002A05070023050700A9
:101160001C050600160507000F0507000805060008
:1011700002050700FB040600F5040700EE04060064
:10118000E8040600E2040700DB040600D5040600BC
:10119000CF040600C9040600C3040600BD0406000F
:1011A000B7040600B1040500AC040600A60406005E
:1011B000A00405009B0406009504050090040600A9
:1011C0008A04050085040500800406007A040500F1
:1011D00075040500700405006B0405006604050035
:1011E000610405005C040500570405005204050075
:1011F0004D04050048040500430405003E040400B6
:101200003A04050035040500300404002C040500F0
:1012100027040400230405001E0404001A0404002B
:1012200016040500110404000D040400090405005F
:101230000404040000040400FC030400F803040098
:10124000F4030400F0030400EC030400E8030400CA
:10125000E4030400E0030400DC030400D8030400FA
:10126000D4030400D0030400CC030400C80303002B
:10127000C503030024F404D9201BC40C5C0E98049D
:10128000C4095F0265077101F405F900FB04B300AE
:1012900048048700C1036900580355000303450053
:1012A000BE023A008402310053022A0029022500BE
:1012B00004022000E4011C00C8011900AF0117005E
:1012C00098011400840113007101100061011000E5
:1012D00051010E0043010D0036010B002B010B00E4
:1012E00020010B00150109000C0109000301080091
:1012F000FB000800F3000800EB000700E400060014
:10130000DE000600D8000600D2000600CC00050072
:10131000C7000500C2000500BD000400B9000400BC
:10132000B5000400B1000400AD000400A9000400F1
:10133000A5000300A20003009F0004009B0003001F
:101340009800030095000200930003009000030042
:101350008D0002008B00030088000200860002005E
:1013600084000300810002007F0002007D00020073
:101370007B00020079000200770001007600020085
:101380007400020072000100710002006F00020090
:101390006D0001006C0002006A000100690002009B
:1013A00067000100660001006500010064000200A2
:1013B0006200010061000100600001005F000200A6
:1013C0005D0001005C0001005B0001005A000100AB
:1013D00059000100580001005700010056000100AB
:1013E00055000100540001005300000053000100AB
:1013F0005200010051000100500001004F000100A7
:101400004E0000004E0001004D0001004C000100A4
:101410004B0000004B0001004A00010049000100A0
:10142000480000004800010047000100460000009D
:101430004600010045000000450001004400010095
:101440004300000043000100420000004200010090
:101450004100000041000100400001003F00000089
:101460003F0001003E0000003E0001003D00000082
:101470003D0001003C0000003C0000003C00010079
:101480003B0000003B0001003A0000003A00010070
:101490003900000039000100380000003800000069
:1014A000380001003700000037000100360000005E
:1014B0003600000036000100350000003500000055
:1014C0003500010034000000340000003400010049
:1014D0003300000033000000330001003200000040
:1014E0003200000032000100310000003100000035
:1014F0003100010030000000300000003000010029
:101500002F0000002F0000002F0000002F0001001E
:101510002E0000002E0000002E0001002D00000013
:101520002D0000002D0000002D0001002C00000007
:101530002C0000002C0000002C0001002B000000FB
:101540002B0000002B0000002B0001002A000000EF
:101550002A0000002A0000002A00010029000000E3
:1015600029000000290000002900000029000100D6
:1015700028000000280000002800000028000000CB
:1015800028000100270000002700000027000000BD
:1015900027000000270001002600000026000000B0
:1015A00026000000260000002600010025000000A3
:1015B0002500000025000000250000002500000097
:1015C0002500010024000000240000002400000089
:1015D000240000002400010023000000230000007C
:1015E000230000002300000023000000230000006F
:1015F0002300010022000000220000002200000061
:101600002200000022000000220001002100000052
:101610002100000021000000210000002100000046
:101620002100000021000100200000002000000037
:10163000200000002000000020000000200000002A
:1016400020000000200001001F0000001F0000001B
:101650001F0000001F0000001F0000001F0000000E
:101660001F0001001E0000001E0000001E00000000
:101670001E0000004D383420582059205A204500C3
:101680006265640A002C2073797374656D2073742D
:101690006F7070656421204865617465725F4944AC
:1016A0003A200048656174696E67206661696C65FF
:1016B000640048656174696E67206661696C656481
:1016C0000048656174696E67206661696C656400D5
:1016D00048656174696E67206661696C6564007055
:1016E000012C0190012701B0012201C0011D01F070
:1016F0000118011002130130020E0160020901906D
:10170000020401C002FF000003FA004003F500805C
:1017100003F000D003EB002004E6007004E100E0D9
:1017200004DC004005D700C005D2004006CD00D043
:1017300006C8008007C3003008BE00F008B900C02A
:1017400009B400B00AAF00B00BAA00D00CA500008D
:101750000EA000500F9B00C0109600501291000088
:10176000148C00C0158700B0178200B0197D00D01E
:101770001B7800001E730040206E0090226900F06C
:1017800024640040275F0090295A00E02B55001088
:101790002E500020304B0010324600E033410090C4
:1017A000353C001037370070383200A0392D00B0BA
:1017B0003A2800A03B2300603C1E00103D19009019
:1017C0003D1400103E0F00703E0A00C03E050000B0
:1017D0003F0000403FFBFF803FF6FFC03FF1FF545A
:1017E0004845524D414C2052554E415741590054A5
:1017F0006865726D616C2052756E61776179004524
:1018000072723A204D494E54454D50204245440095
:101810004572723A204D494E54454D50004D494E47
:1018200054454D5020747269676765726564004560
:1018300072723A204D415854454D50204245440063
:101840004572723A204D415854454D50004D415813
:1018500054454D5020747269676765726564002550
:10186000753A2530327500253032753A253032759B
:10187000002D2D2D005344005A005900580001201E
:10188000005072696E742070617573656400005059
:1018900072696E742061626F72746564005072695F
:1018A0006E742066726F6D2053440053746F702005
:1018B0007072696E7400526573756D65207072691F
:1018C0006E74004E6F205344206361726400506157
:1018D000757365207072696E7400436F6E74726FF9
:1018E0006C00507265706172650054756E650049D8
:1018F0006E666F2073637265656E00466C6F77006D
:10190000466C6F770046616E2073706565642032A7
:101910000046616E20737065656420320046616E1A
:1019200020737065656420310046616E20737065B8
:10193000656420310042656400426564004E6F7A40
:101940007A6C65004E6F7A7A6C65005370656564D9
:10195000005370656564004D61696E005072656882
:1019600065617420504C4120456E6400507265687A
:1019700065617420504C4120426564005072656876
:1019800065617420504C4100507265706172650051
:10199000507265686561742041425320456E640051
:1019A000507265686561742041425320426564004D
:1019B00050726568656174204142530050726570D1
:1019C000617265004D34323800507265686561742B
:1019D00020504C4100436F6F6C646F776E00507203
:1019E0006568656174204142530044697361626CAB
:1019F00065207374657070657273004D38340053E0
:101A0000657420686F6D65206F666673657473001A
:101A10004175746F20686F6D6500473238004D6FF7
:101A200076652061786973004D61696E004D6F764F
:101A3000652058004D6F76652059004D6F76652002
:101A40005A004578747275646572004D6F76652032
:101A5000302E316D6D004D6F766520316D6D004D0E
:101A60006F76652031306D6D004D6F766520617841
:101A70006973004578747275646572004D6F7665A0
:101A8000205A004D6F76652059004D6F76652058BD
:101A9000004578747275646572004D6F7665205AE2
:101AA000004D6F76652059004D6F766520580050C7
:101AB000726570617265004D3530320A4D353030D7
:101AC00000526573746F7265206661696C7361663C
:101AD00065004C6F61642073657474696E67730090
:101AE000496E697469616C697A6520454550524F49
:101AF0004D0053746F72652073657474696E6773FB
:101B00000046696C616D656E74004D6F74696F6E2F
:101B10000054656D7065726174757265004D616920
:101B20006E004D3330332055312045256920532533
:101B30006900507265686561742041425320636F8B
:101B40006E66005072656865617420504C41206378
:101B50006F6E6600504944204175746F74756E65F0
:101B600000504944204175746F74756E650050498A
:101B7000442D44005049442D44005049442D49000F
:101B80005049442D49005049442D50005049442D9E
:101B900050002002204661637400200220466163E9
:101BA00074002002204D6178002002204D617800F1
:101BB0002002204D696E002002204D696E004F66A4
:101BC00066004F6E20004175746F74656D7000463D
:101BD000616E20737065656420320046616E20730B
:101BE0007065656420320046616E207370656564BF
:101BF00020310046616E20737065656420310042BB
:101C0000656400426564004E6F7A7A6C65004E6FC1
:101C10007A7A6C6500436F6E74726F6C0053746FE8
:101C200072652073657474696E6773004265640041
:101C3000426564004E6F7A7A6C65004E6F7A7A6CFA
:101C4000650046616E2073706565640046616E20B4
:101C500073706565640054656D706572617475724A
:101C600065005654726176206D696E00565472613B
:101C700076206D696E00566D696E00566D696E0056
:101C8000566D6178204500566D6178204500566D8F
:101C90006178205A00566D6178205A00566D61783F
:101CA000205900566D6178205900566D6178205892
:101CB00000566D61782058004D6F74696F6E004159
:101CC0006D6178204500416D6178204500416D616E
:101CD00078205A00416D6178205A00416D6178206A
:101CE0005900416D6178205900416D61782058009C
:101CF000416D6178205800412D74726176656C00E9
:101D0000412D74726176656C00412D72657472614B
:101D1000637400412D726574726163740041636382
:101D2000656C00416363656C004D6F74696F6E0094
:101D300056652D6A65726B0056652D6A65726B007B
:101D4000567A2D6A65726B00567A2D6A65726B0041
:101D500056792D6A65726B0056792D6A65726B0033
:101D600056782D6A65726B0056782D6A65726B0025
:101D70004D6F74696F6E004573746570732F6D6D70
:101D8000004573746570732F6D6D005A73746570C0
:101D9000732F6D6D005A73746570732F6D6D0059DC
:101DA00073746570732F6D6D005973746570732F44
:101DB0006D6D005873746570732F6D6D005873747A
:101DC0006570732F6D6D004D6F74696F6E00537485
:101DD0006570732F6D6D004A65726B0041636365BA
:101DE0006C65726174696F6E0056656C6F636974BF
:101DF0007900436F6E74726F6C0046696C2E2044DC
:101E000069612E0046696C2E204469612E004F6680
:101E100066004F6E20004520696E206D6D330043D3
:101E20006F6E74726F6C0043616E6E6F7420656EBE
:101E3000746572207375626469723A2000052E2EF3
:101E4000004D61696E00436172642072656D6F764A
:101E50006564004361726420696E736572746564C1
:101E60000000002100240027002A002D003000334C
:101E70000001010000040107010A01000022002501
:101E80000028002B002E0031003400020100000564
:101E90000108010B01000020002300260029002C6E
:101EA000002F0032000001000003010601090105B6
:101EB000050505070508080808020202020A0A08C3
:101EC00008040404040101010101010101030303E9
:101ED0000303030303040707070C0C0C0C0C0C0C86
:101EE0000C0202020206060606060606060B0B0B8D
:101EF0000B0B0B0B0B0102102020080810204010C8
:101F000020408002010201080402010102040810BD
:101F100020408080402010080402018004020180DB
:101F20004020100804020108040201010204081004
:101F3000204080010204081020408000000A0B02AB
:101F4000090C0D0E0807030401000000000000004A
:101F50000000000000000000000000000000000081
:101F6000000000000000001211100000000000003E
:101F70000000000000000000000000000000000061
:101F8000002D2D2D2D2D2D007C4D61726C696E7CE8
:101F9000002D2D2D2D2D2D00687474703A2F2F6D6E
:101FA00061726C696E66772E6F7267006874747008
:101FB0003A2F2F6D61726C696E66772E6F726700B3
:101FC00020312E312E33002020506C616E6E6572F0
:101FD00042756666657242797465733A20002046E0
:101FE000726565204D656D6F72793A2000436F6DA3
:101FF00070696C65643A204D617220323120323054
:1020000032300A00207C20417574686F723A2028B3
:102010004C6F6E67204C652C20466F6C6765727440
:102020006563682046543520523220546974616ECD
:1020300020457874727564657220616E6420653322
:10204000642D7636290A00323031372D30362D3066
:10205000342031323A303000204C61737420557096
:1020600064617465643A2000312E312E330A004DCC
:1020700061726C696E0020536F66747761726520BF
:1020800052657365740A00205761746368646F67F2
:102090002052657365740A002042726F776E206F5C
:1020A00075742052657365740A00204578746572F2
:1020B0006E616C2052657365740A00506F776572AB
:1020C00055700A0073746172740A006572726F72DF
:1020D0002077726974696E6720746F2066696C6519
:1020E0000A00456E6473746F707320256320256346
:1020F00020256320256300205A3A0020593A002009
:10210000583A00656E6473746F7073206869743A2E
:102110002000446F6E6520736176696E6720666982
:102120006C652E0A004D32390057726974696E670A
:1021300020746F2066696C653A20006F70656E20B0
:102140006661696C65642C2046696C653A20006F95
:1021500070656E206661696C65642C2046696C65EB
:102160003A200046696C652073656C65637465642C
:102170000A002053697A653A200046696C65206F31
:1021800070656E65643A20006F70656E20666169E7
:102190006C65642C2046696C653A20002066696C89
:1021A000653A20004E6F7720002220706F73002266
:1021B00020706172656E743A2200535542524F5539
:1021C00054494E452043414C4C20746172676574FC
:1021D0003A22004B494C4C45442E200074727969D8
:1021E0006E6720746F2063616C6C207375622D675D
:1021F000636F64652066696C657320776974682015
:10220000746F6F206D616E79206C6576656C732ECE
:10221000204D4158206C6576656C2069733A004307
:10222000616E6E6F74206F70656E20737562646985
:1022300072200053442063617264206F6B0A006F48
:1022400070656E526F6F74206661696C65640A0018
:10225000766F6C756D652E696E6974206661696C48
:1022600065640A004572726F723A00534420696EC9
:102270006974206661696C0A006175746F25692E46
:1022800067004D3234004D323320257300656E7186
:1022900075657565696E672022006563686F3A0031
:1022A000E9B6CBB611241FBECFEFD1E2DEBFCDBF62
:1022B00000E00CBF14E0A0E0B2E0E4E6F1E901E0E8
:1022C0000BBF02C007900D92AE35B107D9F723E1DD
:1022D000AEE5B4E001C01D92A834B207E1F711E108
:1022E000C1E5D1E100E006C021970109802FFE0180
:1022F0000E9419C8C035D10780E00807A9F70E94DD
:10230000DCB70C94A1C80C9400002CEA35EC47E231
:102310005EE36091A50B7091A60B8091A70B909145
:10232000A80B0E94EEC560937102709372028093B5
:1023300073029093740208952CEA35EC47E25EE351
:102340006091A90B7091AA0B8091AB0B9091AC0B93
:102350000E9461C160937502709376028093770248
:10236000909378020895880F991F880F991FFC0198
:10237000EA5FF44F4081518162817381855A934FA6
:10238000FC014083518362837383E091040BF091DD
:10239000050B82899389A489B5898093000B90935A
:1023A000010BA093020BB093030B0895CF93DF931F
:1023B0002FB7F894AC01440F551F440F551FFA0175
:1023C000EA5FF44F60817181828193812FBFEA01BE
:1023D000C55BD34F0E9402C1288139814A815B814C
:1023E0000E9461C1DF91CF91089590915710809123
:1023F0005810981731F0809158108F5F8F7080932C
:10240000581008958091EA05811118C060910D025D
:1024100070910E0290E080E00E9400C19B01AC012F
:1024200060911710709118108091191090911A10E6
:102430000E94FCC0881F8827881F089580E00895A7
:10244000EF92FF920F931F93CF93DF93E090040BD3
:10245000F090050BF70182819381A481B581181654
:1024600019061A061B06ECF48091F90A80FF19C0C0
:102470008091CB059CB1929596959770909590FB25
:1024800080F9982F8093CB058091CA0581708923AC
:1024900041F08091670C81608093670C90E080E050
:1024A00062DFF70186819781A085B185181619062C
:1024B0001A061B0624F58091F90A81FF20C080913D
:1024C000CB0590910301969521E09227092F017089
:1024D00010E0119501951109082702701127802736
:1024E0008093CB050091CA050270082341F08091CA
:1024F000670C82608093670C81E090E034DFF70125
:1025000082859385A485B585181619061A061B06BB
:1025100034F58091F90A82FF22C08091CB0599B1F0
:1025200096959695969521E092279170C92FF0E0A7
:10253000DF2FD195C195D109C827C470DD278C271D
:102540008093CB05C091CA05C470C82341F0809127
:10255000670C84608093670C82E090E004DF8091D8
:10256000CB058093CA05DF91CF911F910F91FF900A
:10257000EF900895CF92DF92EF92FF92CF93DF9387
:10258000EC01C090900BD090910BE090920BF090EA
:10259000930BA7019601688179818A819B810E94B2
:1025A000FCC087FF04C0C882D982EA82FB82C09047
:1025B000940BD090950BE090960BF090970BA701A1
:1025C00096016C817D818E819F810E94FCC087FF76
:1025D00004C0CC82DD82EE82FF82C090980BD09046
:1025E000990BE0909A0BF0909B0BA70196016885E0
:1025F00079858A859B850E94FCC087FF04C0C886B8
:10260000D986EA86FB86C0905E02D0905F02E09099
:102610006002F0906102A7019601688179818A8148
:102620009B810E9438C7181624F4C882D982EA8296
:10263000FB82C0906202D0906302E0906402F0904E
:102640006502A70196016C817D818E819F810E9428
:1026500038C7181624F4CC82DD82EE82FF82C09047
:102660006602D0906702E0906802F0906902A701CC
:102670009601688579858A859B850E9438C71816DA
:1026800024F4C886D986EA86FB86DF91CF91FF9035
:10269000EF90DF90CF9008955F9AE8E2FCE010821F
:1026A0008A9A11829FB7F894A8E0B1E08C9181607A
:1026B0008C939FBF1282129A0895CF92DF92EF926D
:1026C000FF92C0908502D0908602E0908702F09041
:1026D000880280910F0C882381F120E030E0A9016D
:1026E000C701B6010E94FCC0882339F120E030E028
:1026F00040E05FE3C701B6010E9461C19B01AC01EC
:102700000E9461C12BED3FE049E450E40E9461C1A9
:102710009B01AC0160E070E080E89FE30E94EEC5A1
:102720006093090270930A0280930B0290930C024B
:10273000FF90EF90DF90CF90089560E070E080E828
:102740009FE3EECF80E1E7E3FCE0A8EBB5E001908A
:102750000D928A95E1F7089580E1E8EBF5E0A7E3B3
:10276000BCE001900D928A95E1F70895CF92DF9237
:10277000EF92FF920F931F93CF93DF93EC01CC0F57
:10278000DD1FCC0FDD1FFE01E55DF34F20E030E0E3
:10279000A90160817181828193810E9412C5FE012D
:1027A000E455FA4F20813181428153810E9412C544
:1027B0006B017C01FE01E056FA4FC082D182E282B9
:1027C000F382FE01E856FC4F2591359145915491D5
:1027D0008E010057144F0E9412C5F8016083718367
:1027E00082839383FE01E457FC4F259135914591F7
:1027F0005491C25ADD4FC701B6010E9412C56883C9
:1028000079838A839B83DF91CF911F910F91FF90F2
:10281000EF90DF90CF9008958F929F92AF92BF92EA
:10282000EF92FF920F931F93CF93DF938C014A0196
:102830005B01EC01CC0FDD1FCC0FDD1FCE01895CED
:10284000934F7C01C55DD34F288139814A815B81DB
:10285000CB01B4010E9411C5F70120813181428171
:1028600053810E9412C5F701608371838283938331
:1028700088829982AA82BB82C801DF91CF911F9181
:102880000F91FF90EF90BF90AF909F908F906ECF81
:102890002FEB280F2A3140F5422F50E0FA0183E058
:1028A000F595E7958A95E1F7E151FB4F9081892FE6
:1028B00090E0277002C0959587952A95E2F780FDF4
:1028C00002C0817008954B525B4FFA0180812091C4
:1028D000960530919705820F932F911D90935F0479
:1028E00080935E0481E0089580E00895089590E06B
:1028F00080E008958FB7F894909185052091840524
:10290000291769F0E92FF0E0EC5FFA4F208130E001
:102910009F5F9F77909385058FBFC90108952FEF23
:102920003FEFFACF0C94BE9C0F931F93CF93DF938E
:10293000CDB7DEB76E970FB6F894DEBF0FBECDBF32
:1029400080916C028F9380916B028F931F921F92E4
:1029500082E29BE19F938F938E010F5F1F4F1F9326
:102960000F930E9495C0C8010E9440930FB6F8943F
:10297000DEBF0FBECDBF6E960FB6F894DEBF0FBEA2
:10298000CDBFDF91CF911F910F910895CF92DF922C
:10299000EF92FF92CF93C82F0E94B29C6B017C01F3
:1029A00024EA30E74DE75FE360919C0B70919D0B4B
:1029B00080919E0B90919F0B0E94FCC087FD18C0D8
:1029C0008AEF90E0A0E0B0E08C0D9D1DAE1DBF1D14
:1029D0008093120C9093130CA093140CB093150CCD
:1029E000C0938902CF91FF90EF90DF90CF90089530
:1029F00080E090E0DC01E8CF0F931F93CF93DF934B
:102A0000EC010E94B29C0E811F8128853985011539
:102A100011052105310579F52C85222339F1EA8547
:102A200021502C8721E02E0F2A873D85231301C0DA
:102A30001A86F0E03196EE0FFF1FEE0FFF1FEC0F2E
:102A4000FD1F02851385248535850A831B832C830E
:102A50003D83600F711F811D911D6E837F83888769
:102A600099878C819D81892B09F0409ADF91CF91C4
:102A70001F910F910895601B710B820B930B97FDB3
:102A8000F5CF40981E821F8218861986EFCF0E94CC
:102A9000B29C609398057093990580939A059093E2
:102AA0009B0508954F925F926F927F92AF92BF9273
:102AB000CF92DF92EF92FF920F931F93CF93DF930A
:102AC0008C01EB01FC0147A050A461A472A4AFA04B
:102AD000B8A4C9A4DAA49501A601C301B2010E9459
:102AE000FCC087FF3EC0A3019201C301B2010E9456
:102AF00061C12B013C01F80163A974A985A996A9BC
:102B000090589B01AC010E9412C5F80127A530A97D
:102B100041A952A90E9461C19B01AC01C301B2014C
:102B20000E9411C50E947DC77B018C019B01AC01F5
:102B3000B501C6010E94FCC087FF02C07501860175
:102B40009701A801B501C6010E94FCC0882349F085
:102B5000C701D8018FA398A7A9A7BAA788818160C8
:102B60008883DF91CF911F910F91FF90EF90DF90BD
:102B7000CF90BF90AF907F906F905F904F900895EF
:102B80004F925F926F927F928F929F92AF92BF927D
:102B9000CF92DF92EF92FF92CF93DF93CDB7DEB764
:102BA0006A970FB6F894DEBF0FBECDBF9A8F898F9C
:102BB0005B014A01DC01D7966D917D918D919C91CD
:102BC000DA970E9400C16B017C01F50120813181FF
:102BD000428153810E9461C10E94D8C50E945BC698
:102BE0003B015C01D4012D913D914D915C91C70158
:102BF000B6010E9461C10E94D8C50E945BC66D8269
:102C00007E82AF82B8862D813E814F8158852837DC
:102C100031054105510540F428E730E040E050E03F
:102C20002D833E834F83588769837A838B839C836C
:102C300089819A81AB81BC8188379105A105B10555
:102C400040F428E730E040E050E029833A834B83AA
:102C50005C83E98DFA8DED5BFF4F80819181A281CC
:102C6000B3818D879E87AF87B88BBC01CD010E9451
:102C700002C169877A878B879C876D817E818F816E
:102C800098850E9400C1698B7A8B8B8B9C8B20E08E
:102C900030E0A90169857A858B859C850E94FCC0FE
:102CA000882309F432C1A7019601C701B6010E9429
:102CB00061C14B015C0129893A894B895C89CA0150
:102CC000B9010E9461C19B01AC01C501B4010E9420
:102CD00011C54B015C0129853A854B855C85CA018C
:102CE000B9010E9412C59B01AC01C501B4010E944B
:102CF000EEC50E94D8C50E9456C62B013C016D85C9
:102D00007E858F85988990958095709561957F4F88
:102D10008F4F9F4F0E9402C14B015C0169817A81F4
:102D20008B819C810E9400C16D877E878F87988BE5
:102D300020E030E0A901C501B4010E94FCC0882355
:102D400009F4E7C02D853E854F855889CA01B90130
:102D50000E9461C16D8B7E8B8F8B988FA70196012E
:102D6000C701B6010E9461C19B01AC016D897E89DA
:102D70008F89988D0E9411C56B017C01A50194017A
:102D8000C501B4010E9412C59B01AC01C701B60187
:102D90000E94EEC50E9487C6A98DBA8D52968D906D
:102DA0009D90AD90BC90559775016401C418D508ED
:102DB000E608F7080E9456C6C61AD70AE80AF90AB2
:102DC000F7FE67C020E030E0A90169857A858B8530
:102DD0009C850E94FCC0882309F49FC0C501B401F2
:102DE0000E9400C16B017C0129853A854B855C8579
:102DF000CA01B9010E9412C59B01AC01C701B6010D
:102E00000E9461C16B017C0129893A894B895C89E7
:102E1000CA01B9010E9461C19B01AC01C701B601A1
:102E20000E9411C56B017C012D853E854F85588917
:102E3000CA01B9010E9461C19B01AC01C701B60181
:102E40000E9412C56B017C0120E030E040E850E4B4
:102E500069857A858B859C850E9461C19B01AC0147
:102E6000C701B6010E94EEC50E94D8C50E9456C691
:102E70002B013C0177FE03C0412C512C3201481438
:102E800059046A047B0410F024013501C12CD12CB3
:102E900076018FB7F894E98DFA8D908193FD1FC06C
:102EA000DF01468A578A608E718EC40CD51CE61CE1
:102EB000F71CC28ED38EE48EF58E2D813E814F811C
:102EC000588523AF34AF45AF56AFDF9629813A819D
:102ED0004B815C812D933D934D935C9313978FBFF2
:102EE0006A960FB6F894DEBF0FBECDBFDF91CF91CB
:102EF000FF90EF90DF90CF90BF90AF909F908F901A
:102F00007F906F905F904F90089560E070E0CB01EC
:102F1000F0CE60E070E0CB013DCF60E070E0CB012F
:102F2000A3CFAF92BF92CF92DF92EF92FF920F9317
:102F30001F93CF93DF931F92CDB7DEB76C018B0148
:102F400059018091C80581111BC07B01E40EF51E5B
:102F5000F601808191810E94B1C48983F801819337
:102F60008F01BE016F5F7F4FC5010E945995F60129
:102F700080819181019691838083E016F10641F76B
:102F80000F90DF91CF911F910F91FF90EF90DF9005
:102F9000CF90BF90AF90089580915E0490915F04B0
:102FA000009731F04AE050E070E060E00C9421BE00
:102FB00060E070E0CB010895EFDF97FD0AC0ECDF21
:102FC0006F3F71058105910509F02CF4E5DF862F2F
:102FD000089580E008958FEF089580915E049091A8
:102FE0005F04892B39F0E8DF91E0811101C090E0A6
:102FF000892F089591E0FCCF80915E0490915F0449
:10300000009731F04AE050E070E060E00C944CBF73
:1030100060E070E0CB0108950F931F93CF938091F0
:103020005E0490915F040097E9F0FC018F01C1916B
:103030002C2F2F7D81F0C53411F0C536B9F7F8017A
:10304000108270E060E00E94CCBCF801C083CF9198
:103050001F910F91089570E060E0CF911F910F9143
:103060000C94CCBC60E070E0CB01F1CFCF92DF924A
:10307000EF92FF920F931F93CF93DF9388E0C82EB8
:1030800083E0D82E98EBE92E95E0F92E07E31CE0BB
:10309000D0E0C0E0F60181916F01FADB882309F4EA
:1030A0004AC0BADF9B01AC01FE01E450FB4F8081B6
:1030B000811104C0809100058823C9F1F801608165
:1030C0007181828193810E9412C5F70160837183AF
:1030D000828393832196F4E0EF0EF11C0C5F1F4F67
:1030E000C430D105B9F686E4D3DB8823B9F094DF88
:1030F00020E030E0A9010E9438C718167CF48CDF6C
:1031000020E030E040E752E40E94EEC56093000208
:10311000709301028093020290930302DF91CF919A
:103120001F910F91FF90EF90DF90CF90089560E096
:1031300070E0CB01C8CFF80180819181A281B38179
:10314000F70180839183A283B383C4CFCF93DF93AE
:1031500000D01F92CDB7DEB7882349F00E949CA40F
:103160000F900F900F900F90DF91CF91089588EB03
:1031700091E09C838B8384E190E09A838983BE01F4
:103180006D5F7F4FCE0101960E942595E9CF80911A
:103190007E0B8630D8F496E0899FF0011124E65A20
:1031A000F44F209192023091930231832083409119
:1031B000710C5091720C6091730C7091740C42837D
:1031C0005383648375838F5F80937E0B0895209172
:1031D00092023091930228173907D9F09093930205
:1031E000809392024093710C5093720C6093730C15
:1031F0007093740C895A914221F410921A0C109217
:103200007E0B0E94FD9A82E08093940281E080937D
:10321000110C089580E090E0A0E2B1E480939C0B53
:1032200090939D0BA0939E0BB0939F0B40E050E0BA
:10323000BA018091A10B9091A20BC9CF80E090E0E0
:10324000A0E8BFE380939C0B90939D0BA0939E0BF3
:10325000B0939F0B40E050E0BA018091A10B909198
:10326000A20BB5CF8DEC9CECACECBDE380939C0B3A
:1032700090939D0BA0939E0BB0939F0B40E050E06A
:10328000BA018091A10B9091A20BA1CF40E050E038
:10329000BA0189EA91E29BCFE0917E0BEE2381F0A7
:1032A000E150E0937E0B86E0E89FF0011124E65A9E
:1032B000F44F42815381648175818081918187CFF0
:1032C000E5CFEF92FF920F93CF93DF93D82F7A0140
:1032D000C22F80E00E94C396D11101C0C0E28C2FA2
:1032E0000E94B696C2E1F7016491662359F0CC239F
:1032F00079F08BE190E10E949B96C150FFEFEF1AAD
:10330000FF0AF1CFC15020F080E20E94B696FACFBA
:10331000802FDF91CF910F91FF90EF900C94B69694
:103320000F931F93CF93DF9310921F0C8091710C1A
:103330009091720CA091730CB091740C81309048F4
:10334000A105B10540F01092710C1092720C109210
:10335000730C1092740CC091710C8091A30B181611
:10336000DCF4282F082E000C330B215031094C2F90
:103370000C2E000C550B4217530774F0CFEFC80FFB
:103380008C2F90E0B0E0A0E08093710C9093720CD1
:10339000A093730CB093740C1092110C8091100CCC
:1033A000C81714F4C093100C8091100C082E000C58
:1033B000990B03962C2F0C2E000C330B82179307BE
:1033C00024F48DEF8C0F8093100C1091100CD0E032
:1033D000111125C08091200C811115C0809194029B
:1033E000882349F081E0C11180E003E023E04FEA47
:1033F0005AE16D2F66DF1F5FDF5FD43049F785E04C
:103400008093A30B07C0C111E9CF46DF8091110C57
:10341000882321F3DF91CF911F910F9108951130EF
:10342000E1F48091200C81110DC0809194028823D9
:1034300011F381E0C13009F080E00EE32EE348EAA9
:103440005AE1D7CFC13089F78BE09CE10E94C3A736
:103450008091110C882349F3DDCF123009F044C06C
:103460008091200C81110DC080919402882319F263
:1034700081E0C23009F080E00EE32EE341EA5AE138
:10348000B8CFC23089F780E19CE10E94C3A7809148
:10349000110C882349F3BECF8091200C81110EC0FE
:1034A00080919402882309F4A6CF81E0C33009F00B
:1034B00080E00EE32EE34AE95AE19BCFC33081F767
:1034C00085E19CE10E94C3A78091110C882341F300
:1034D000A1CFC43091F48AE19CE10E94C3A78091FE
:1034E000110C882351F096CF1330B1F2143009F04B
:1034F00082CF8091200C8111ECCF8091940288239F
:1035000009F479CF81E0C43009F080E00EE32EE3C6
:1035100041E95AE16ECFEF92FF920F931F93CF9341
:10352000DF937C017093A20B6093A10B10921F0C90
:103530008091710C9091720CA091730CB091740CED
:1035400081309048A105B10540F01092710C1092A5
:10355000720C1092730C1092740CC091710C8091CB
:10356000A00B1816DCF4282F082E000C330B21506A
:1035700031094C2F0C2E000C550B4217530774F0D9
:10358000CFEFC80F8C2F90E0B0E0A0E08093710CDB
:103590009093720CA093730CB093740C1092110C56
:1035A0008091100CC81714F4C093100C8091100C6B
:1035B000082E000C990B03962C2F0C2E000C330BAD
:1035C0008217930724F48DEF8C0F8093100C1091C9
:1035D000100CD0E081E091E0E916F10491F122E0D5
:1035E000E216F10409F451C0E114F10409F06FC0CE
:1035F00011118FC08823B1F01C16A4F08091710CBA
:103600009091720CA091730CB091740C0196A11D55
:10361000B11D8093710C9093720CA093730CB093B6
:10362000740CCF5F809194026AE87AE1811129C01D
:103630001F5F80E0DF5FD43071F685E08093A00BE0
:1036400085C0111166C08823B1F01C16A4F08091CA
:10365000710C9091720CA091730CB091740C019646
:10366000A11DB11D8093710C9093720CA093730CEB
:10367000B093740CCF5F8091940263E87AE1882361
:10368000B9F28D2F0E94D496D3CF111142C0882356
:10369000B1F01C16A4F08091710C9091720CA09165
:1036A000730CB091740C0196A11DB11D8093710C27
:1036B0009093720CA093730CB093740CCF5F8091B5
:1036C00094026CE77AE1882309F4B2CFDACF1111C2
:1036D00020C08823B1F01C16A4F08091710C909149
:1036E000720CA091730CB091740C0196A11DB11DC8
:1036F0008093710C9093720CA093730CB093740C24
:10370000CF5F80919402882309F492CF63E77AE136
:10371000B8CF113011F58091200C811110C080912B
:103720009402882309F484CF81E0C13009F080E05D
:1037300003E023E049E65AE16D2FC3DD79CFC130C4
:1037400071F7AADD8091110C882349F3DF91CF91A5
:103750001F910F91FF90EF9008951230E9F480913E
:10376000200C81110EC080919402882309F460CF4F
:1037700081E0C23009F080E00EE32EE34FE55AE12C
:10378000DBCFC23081F78AE099E10E94C3A7809124
:10379000110C882341F3DACF1330E9F48091200C27
:1037A00081110EC080919402882309F441CF81E0F9
:1037B000C33009F080E00EE32EE346E55AE1BCCFCA
:1037C000C33081F78EE199E10E94C3A78091110C6B
:1037D000882341F3BBCF143009F02ACF8091200C0D
:1037E00081110EC080919402882309F421CF81E0D9
:1037F000C43009F080E00EE32EE34BE45AE19CCFA5
:10380000C43081F782E399E10E94C3A78091110C33
:10381000882341F39BCF65E771E290E080E07BCEA7
:1038200060E771E281E090E076CE6BE671E282E0E3
:1038300090E071CE67EF7FE183E090E06CCE0F9374
:103840001F93CF93DF9310921F0C8091710C909176
:10385000720CA091730CB091740C81309048A1054A
:10386000B10540F01092710C1092720C1092730C12
:103870001092740CC091710C80918D0B1816DCF4B1
:10388000282F082E000C330B215031094C2F0C2E01
:10389000000C550B4217530774F0CFEFC80F8C2F55
:1038A00090E0B0E0A0E08093710C9093720CA09334
:1038B000730CB093740C1092110C8091100CC817FB
:1038C00014F4C093100C8091100C082E000C990B6E
:1038D00003962C2F0C2E000C330B8217930724F425
:1038E0008DEF8C0F8093100C1091100CD0E0111103
:1038F00024C08091200C811114C0809194028823EF
:1039000049F081E0C11180E003E023E048E859E19B
:103910006D2FD7DC1F5FDF5FD43049F7D0938D0B5D
:1039200007C0C111EACFB8DC8091110C882329F3BC
:10393000DF91CF911F910F910895113031F5809152
:10394000200C81110DC080919402882319F381E02D
:10395000C13009F080E000E22EE34CE759E1D8CF16
:10396000C13089F74091B70B5091B80B6091AF0B04
:103970007091B00B8091B30B9091B40B0E94079D96
:103980008091110C8823F9F2D3CF1230C1F58091C8
:10399000200C81110EC080919402882309F4BACFC3
:1039A00081E0C23009F080E000E22EE34CE559E10D
:1039B000AFCFC23081F74091B70B5091B80B6FEF8A
:1039C0007FEF8091B30B9091B40B0E94079D809183
:1039D000110C882301F3ACCFC330C1F44091B70B75
:1039E0005091B80B6091AF0B7091B00B90E080E0FC
:1039F0000E94079D8091110C882341F099CF1330CC
:103A000009F088CF8091200C8111E6CF809194023B
:103A1000882309F47FCF81E0C33009F080E000E221
:103A20002EE34CE659E174CF0F931F93CF93DF93AE
:103A300010921F0C8091710C9091720CA091730CDC
:103A4000B091740C81309048A105B10540F01092FE
:103A5000710C1092720C1092730C1092740CC09135
:103A6000710C80918E0B1816DCF4282F082E000C98
:103A7000330B215031094C2F0C2E000C550B4217E3
:103A8000530774F0CFEFC80F8C2F90E0B0E0A0E0A8
:103A90008093710C9093720CA093730CB093740C80
:103AA0001092110C8091100CC81714F4C093100CD4
:103AB0008091100C082E000C990B03962C2F0C2EC5
:103AC000000C330B8217930724F48DEF8C0F809337
:103AD000100C1091100CD0E0111124C08091200C1A
:103AE000811114C080919402882349F081E0C111B2
:103AF00080E003E023E04CEB59E16D2FE2DB1F5F38
:103B0000DF5FD43049F7D0938E0B07C0C111EACFE5
:103B1000C3DB8091110C882329F3DF91CF911F9192
:103B20000F910895113031F58091200C81110DC055
:103B300080919402882319F381E0C13009F080E07C
:103B400000E22EE340EB59E1D8CFC13089F7409134
:103B5000B90B5091BA0B6091B10B7091B20B80917F
:103B6000B50B9091B60B0E94079D8091110C882394
:103B7000F9F2D3CF1230C1F58091200C81110EC023
:103B800080919402882309F4BACF81E0C23009F011
:103B900080E000E22EE340E959E1AFCFC23081F787
:103BA0004091B90B5091BA0B6FEF7FEF8091B50B3D
:103BB0009091B60B0E94079D8091110C882301F310
:103BC000ACCFC330C1F44091B90B5091BA0B6091A6
:103BD000B10B7091B20B90E080E00E94079D809144
:103BE000110C882341F099CF133009F088CF8091D0
:103BF000200C8111E6CF80919402882309F47FCFB5
:103C000081E0C33009F080E000E22EE340EA59E1B0
:103C100074CFEF92FF920F931F93CF93DF93109285
:103C20001F0C8091710C9091720CA091730CB0914B
:103C3000740C81309048A105B10540F01092710CD0
:103C40001092720C1092730C1092740CC091710C43
:103C500080918C0B1816DCF4282F082E000C330BE7
:103C6000215031094C2F0C2E000C550B42175307D5
:103C700074F0CFEFC80F8C2F90E0B0E0A0E08093FD
:103C8000710C9093720CA093730CB093740C1092FF
:103C9000110C8091100CC81714F4C093100C809173
:103CA000100C082E000C990B03962C2F0C2E000CD8
:103CB000330B8217930724F48DEF8C0F8093100C35
:103CC000F090100CD0E0EE24E394F11027C0809126
:103CD000200C811115C080919402882349F081E065
:103CE000C11180E003E023E047E559E16D2FE9DAF7
:103CF000F394DF5FD43049F787E080938C0B07C0E3
:103D0000C111E9CFC9DA8091110C882321F3DF9129
:103D1000CF911F910F91FF90EF90089581E0F812DD
:103D200028C08091200C811113C0809194028823B7
:103D3000F9F28CE592E00E94EFA29C0181E0C13093
:103D400009F080E04BE459E16D2F0E940D97D0CF30
:103D5000C13059F727EE33E04AE050E06CE572E0FD
:103D600081E599E10E94DBAE8091110C8823E9F294
:103D7000CECF22E0F212D5C08091200C811111C06B
:103D800080919402882309F4B3CF85E190E10E94E9
:103D9000EFA29C0181E0C23009F080E04DE359E1DF
:103DA000D3CFC23069F7E0921F0C10921B0C109217
:103DB0001C0C10921D0C10921E0C02E914E12EE056
:103DC00031E050E040E065E170E184E499E10E9477
:103DD00081958091110C882399F299CF8091200CC4
:103DE000811111C080919402882309F481CF88E762
:103DF0009CE00E94EFA29C0181E0C33009F080E0CA
:103E000045E359E1A1CFC33069F7E0921F0C10924E
:103E10001B0C10921C0C10921D0C10921E0C04E92D
:103E200015E227E830E050E040E068E77CE089E315
:103E300099E10E9481958091110C882399F267CFB6
:103E40008091200C811111C080919402882309F483
:103E50004FCF8AE79CE00E94EFA29C0181E0C43032
:103E600009F080E04DE159E16FCFC43069F7E0928D
:103E70001F0C10921B0C10921C0C10921D0C109217
:103E80001E0C2FEF30E050E040E06AE77CE089E272
:103E900099E10E94DBAE8091110C8823A9F237CF03
:103EA0008091200C811111C080919402882309F423
:103EB0001FCF8CE79CE00E94EFA29C0181E0C530FF
:103EC00009F080E045E059E13FCFC53069F7E09265
:103ED0001F0C10921B0C10921C0C10921D0C1092B7
:103EE0001E0C2FEF30E050E040E06CE77CE081E119
:103EF00099E10E94DBAE8091110C8823A9F207CFD3
:103F0000C63011F527EE33E04AE050E06AE572E092
:103F100080E099E10E94DBAE8091110C8823A1F032
:103F2000F6CE83E0F81609F459CF24E0F21609F42E
:103F300087CF85E0F81609F4B3CF26E0F212D8CE89
:103F40008091200C8111DCCF80919402882309F4A8
:103F5000CFCE8AE592E00E94EFA29C0181E0C630BC
:103F600009F080E04BEF58E1EFCECF93DF93EC0107
:103F7000FE018491882321F00E94B6962196F8CF05
:103F8000DF91CF910895CF93DF93EC01899188233E
:103F900019F00E94B696FACFDF91CF9108950F9352
:103FA0001F93CF93DF938C01EB0161E081E00E94CE
:103FB000C396C801DADF2097A9F08AE30E94B6967B
:103FC000FE019F012C1B3D0B81918111FACF61E015
:103FD00084E1821B0E94C396CE01DF91CF911F9195
:103FE0000F91D1CFDF91CF911F910F9108958091C3
:103FF000200C811151C96091710C7091720C8091EB
:10400000730C9091740C611571058105910569F12E
:104010000E9402C120919C0B30919D0B40919E0B00
:1040200050919F0B0E9461C12091430C3091440C30
:104030004091450C5091460C0E9412C56093430C70
:104040007093440C8093450C9093460C1092710C25
:104050001092720C1092730C1092740C83E090E02A
:104060000E94C61481E08093940280919402882378
:1040700041F083E49CE00E94BEA0BC0182E49AE18E
:104080008ECF08952F923F924F925F926F927F92C0
:104090008F929F92AF92BF92CF92DF92EF92FF9258
:1040A0000F931F93CF93DF9300D000D0CDB7DEB72F
:1040B0002091200C2223C9F026960FB6F894DEBF7B
:1040C0000FBECDBFDF91CF911F910F91FF90EF9069
:1040D000DF90CF90BF90AF909F908F907F906F9028
:1040E0005F904F903F902F90D7C88B011C0180911B
:1040F000710C9091720CA091730CB091740C892B7F
:104100008A2B8B2B09F46DC00E944715C801880FBC
:10411000991F880F991F9E838D83FC01E95CF34FE3
:1041200080809180A280B38080916A02811182C0D8
:1041300020E030E04AE754E4C501B4010E9411C513
:104140002B013C0120E030E04AE754E4C501B40112
:104150000E9412C56B017C018091710C9091720CD0
:10416000A091730CB091740C89839A83AB83BC8348
:10417000BC01CD010E9402C120919C0B30919D0B8E
:1041800040919E0B50919F0B0E9461C1A50194012B
:104190000E9412C54B015C0189819A81AB81BC816F
:1041A000B7FF64C0A3019201C501B4010E94FCC025
:1041B00087FD51C0AD81BE81A95CB34FFD018082F6
:1041C0009182A282B382C8010E94C6141092710C1F
:1041D0001092720C1092730C1092740C81E0809308
:1041E000940280919402882309F45CC0C801880F6E
:1041F000991F880F991F895C934F0E94BEA0BC0134
:10420000C10126960FB6F894DEBF0FBECDBFDF9179
:10421000CF911F910F91FF90EF90DF90CF90BF90C3
:10422000AF909F908F907F906F905F904F903F9056
:104230002F90B5CEED81FE81E057F44F4080518044
:1042400062807380ED81FE81E25AFD4FC080D18093
:10425000E280F38081CF8D819E81895C934FDC0168
:104260004D925D926D927C921397ADCF89819A8128
:10427000AB81BC81892B8A2B8B2B09F49BCFA701A7
:104280009601C501B4010E9438C718160CF092CFF0
:10429000AD81BE81A95CB34FFD01C082D182E282B3
:1042A000F38291CF26960FB6F894DEBF0FBECDBF36
:1042B000DF91CF911F910F91FF90EF90DF90CF9002
:1042C000BF90AF909F908F907F906F905F904F9036
:1042D0003F902F90089562E070E08BE39AE1D2CE98
:1042E00061E070E084E39AE1CDCE70E060E08DE2C1
:1042F0009AE1C8CE61E572E080E00E94049B69E427
:1043000072E081E00E94049B61E472E082E00E941E
:10431000049B69E372E086E00E94049B61E372E023
:1043200087E00E94049B69E272E083E00E94049BA4
:1043300061E272E084E00E94049B69E172E085E042
:104340000C94049B64E084E10E944F9BD3DF0C94A7
:10435000FD9A4F925F926F927F928F929F92AF924F
:10436000BF92CF92DF92EF92FF920F931F93CF9362
:10437000DF9300D000D000D01F92CDB7DEB71092EF
:104380001F0C8091200C8823F9F0DCDF40E050E026
:10439000BA0185E69FE40E94E7182A960FB6F894C2
:1043A000DEBF0FBECDBFDF91CF911F910F91FF9068
:1043B000EF90DF90CF90BF90AF909F908F907F90C5
:1043C0006F905F904F9008954091710C5091720CD6
:1043D0006091730C7091740C20915C0230915D02BD
:1043E000C901840F951F243631050CF04AC2853669
:1043F00091050CF04DC290935D0280935C02109287
:10440000710C1092720C1092730C1092740C8091BB
:104410005C0290915D02883E23E0920714F087EEE3
:1044200093E08A30910514F48AE090E090935D0265
:1044300080935C020E94B29C0091800B1091810BD2
:104440002091820B3091830B6B017C01C01AD10A41
:10445000E20AF30A9701860137FD11C020917F0B14
:10446000209520937F0B6A547C4F8F4F9F4F609312
:10447000800B7093810B8093820B9093830BF09051
:104480007F0B60E080E00E94C39640901710509030
:1044900018106090191070901A106091151070919A
:1044A0001610072E000C880B990B0E9402C14B01BD
:1044B0005C0182E00E94B69620E030E040E05FE3DD
:1044C000C301B2010E9412C50E9456C67A83698355
:1044D0008E010F5F1F4FC8010E94EFA20E946F95CF
:1044E0008FE20E94B69620E030E040E05FE3C50135
:1044F000B4010E9412C50E9456C67A836983C8011E
:104500000E94BCA20E946F958EE798E12EDD20E00C
:1045100030E040E251E4C501B4010E94FCC087FFD5
:1045200003C080E20E94B69660E08AE00E94C396D3
:104530008090870B9090880BA090890BB0908A0B8D
:104540006091780C7091790C072E000C880B990BF8
:104550000E9402C12B013C0180E00E94B69620E03F
:1045600030E040E05FE3C501B4010E9412C50E9443
:1045700056C67A836983C8010E94EFA20E946F9594
:104580008FE20E94B69620E030E040E05FE3C30196
:10459000B2010E9412C50E9456C67A836983C8017F
:1045A0000E94BCA20E946F958EE798E1DEDC20E0BD
:1045B00030E040E251E4C301B2010E94FCC087FF39
:1045C00003C080E20E94B69661E080E00E94C3963C
:1045D000FF2009F46FC18CE798E1C7DC6091370CCC
:1045E0007091380C8091390C90913A0C0E9456C60B
:1045F0007A836983C8010E943BA20E946F9580E282
:104600000E94B696FF2009F463C18AE798E1ADDC09
:1046100060913B0C70913C0C80913D0C90913E0C54
:104620000E9456C67A836983C8010E943BA20E94F9
:104630006F9561E08CE00E94C396FF2009F456C19B
:1046400088E798E192DC2CEA35EC47E257E3609189
:104650003F0C7091400C8091410C9091420C0E9453
:1046600012C520E030E048EC52E40E9461C10E9493
:1046700056C66B017C01F7FC47C160E220E1C2161F
:1046800027E2D206E104F10484F0B60120E137E22A
:1046900040E050E00E94FDC7CA01B9012AE030E0C5
:1046A00040E050E00E94FDC7605D60936A0C60E2EC
:1046B00088EEC81683E0D806E104F1048CF0C70147
:1046C000B60128EE33E040E050E00E94FDC7CA0189
:1046D000B9012AE030E040E050E00E94FDC7605D93
:1046E00060936B0CC701B60124E630E040E050E077
:1046F0000E94FDC79AE0892E912CA12CB12CCA01F1
:10470000B901A50194010E94FDC7605D60936C0C26
:10471000C701B601A50194010E94FDC7F62ECA018A
:10472000B901A50194010E94FDC7FF2009F4F6C05C
:104730008EE280936D0C605D60936E0C80E38F0D54
:1047400080936F0C8AE69CE00E946F9562E080E0A7
:104750000E94C39686E00E94B6968CE592E00E9485
:10476000EFA20E946F9585E20E94B69662E087E014
:104770000E94C39685E798E1F8DB80918710882333
:1047800009F4DEC080915512882309F4D7C08091C6
:10479000FF1290910013A0910113B09102130097A2
:1047A000A105B10509F4CAC0BC01CD016D597F4F07
:1047B0008F4F9F4F24E630E040E050E00E94D6C487
:1047C0006091031370910413809105139091061367
:1047D0000E94D6C430E03A832983C8010E94EFA228
:1047E0000E946F9585E20E94B6960E94A69E2B01BC
:1047F0003C0120E13EE040E050E00E94D6C4D22ED1
:10480000C32EE22EF32E8CE3882E912CA12CB12CFA
:10481000C301B201A50194010E94D6C4CA01B90125
:10482000A50194010E94D6C494E6E916F10408F0AB
:104830008BC07F936F93C70168E170E00E94D6C779
:104840009F938F9387E698E19F938F931F930F9386
:104850000E9495C00FB6F894DEBF0FBECDBF95E0A5
:1048600062E083E1891B0E94C39687E00E94B696AE
:10487000C80189DB63E080E00E94C3960E94A09695
:104880008CCD2436310539F0843691050CF0B3CD4A
:1048900084E690E0B0CD4B3051056105710514F010
:1048A0000A97A9CD463F5F4F6F4F7F4F0CF0AFCDBA
:1048B0000A96A1CD8091840B811104C08FE30E94E0
:1048C000B6968CCE8091280C811185CE80E2F7CFF0
:1048D0008091850B811104C08FE30E94B69698CE1B
:1048E0008091290C811191CE80E2F7CF8091860BC7
:1048F000811104C08FE30E94B696A5CE80912A0C48
:1049000081119ECE80E2F7CFF094E094D094C094D1
:10491000C11CD11CE11CF11C6DE2C7CE662341F025
:104920008EE280936D0C605D60936E0C80E208CF28
:1049300080E280936E0C80936D0CF8CF20E04ACF1C
:1049400081E798E112DB4ECF7F936F93CF92DF9296
:104950008FE598E19F938F931F930F930E9495C0CB
:104960000FB6F894DEBF0FBECDBF96E079CF4F9261
:104970005F926F927F92AF92BF92CF92DF92EF924F
:10498000FF920F931F93CF93DF9324E030E041E039
:1049900050E0D901AF56BE4FFD0165917491861765
:1049A00097070CF066C041505109440F551F440F42
:1049B000551FEA01CD56DE4FFE01059114914F5669
:1049C0005E4FFA0165917491F901ED56FE4FE59045
:1049D000F490FE01C590D490FD01C591D491FA01E7
:1049E000A590B490861B970BBC01990F880B990B6F
:1049F0000E9402C12B013C01B7016C197D09072EF1
:104A0000000C880B990B0E9402C19B01AC01C301F1
:104A1000B2010E9461C16B017C01BE016A197B0970
:104A2000072E000C880B990B0E9402C19B01AC0160
:104A3000C701B6010E94EEC56B017C01B801110FE0
:104A4000880B990B0E9402C19B01AC01C701B60102
:104A50000E9412C5DF91CF911F910F91FF90EF90AF
:104A6000DF90CF90BF90AF907F906F905F904F900E
:104A700008954F5F5F4F2C5F3F4F2038310509F09D
:104A800088CFEFE0F2E065917491072E000C880B5F
:104A9000990B0E9402C1DECFCF92DF92EF92FF927C
:104AA000C090870BD090880BE090890BF0908A0B18
:104AB0006091780C7091790C66507109072E000C8A
:104AC000880B990B0E9402C1A70196010E9438C76A
:104AD00018160CF520E030E040E050E4C701B601C4
:104AE0000E9412C50E945BC67093390B6093380B0D
:104AF0000E94B29C605A75418F4F9F4F6093340B58
:104B00007093350B8093360B9093370BFF90EF909B
:104B1000DF90CF9008951092340B1092350B1092C5
:104B2000360B1092370BF2CFB7CF1092AD0B10921D
:104B30001610109215100E94BE9C1092790C1092C3
:104B4000780CAADF0E94539D109216101092151037
:104B50000E94BE9C1092580B2C981092790C1092C7
:104B6000780C1092560B9FB7F894E2E0F1E0808148
:104B70008F7D80839FBF08954F925F926F927F9247
:104B8000AF92BF92CF92DF92EF92FF920F931F935B
:104B9000CF93DF9324E030E041E050E0D901A1520F
:104BA000B94EFD0165917491861797070CF066C0A8
:104BB00041505109440F551F440F551FEA01CF5171
:104BC000D94EFE01059114914152594EFA01659159
:104BD0007491F901EF51F94EE590F490FE01C59002
:104BE000D490FD01C591D491FA01A590B490861B93
:104BF000970BBC01990F880B990B0E9402C12B01E6
:104C00003C01B7016C197D09072E000C880B990B2C
:104C10000E9402C19B01AC01C301B2010E9461C1AB
:104C20006B017C01BE016A197B09072E000C880B01
:104C3000990B0E9402C19B01AC01C701B6010E9401
:104C4000EEC56B017C01B801110F880B990B0E9416
:104C500002C19B01AC01C701B6010E9412C5DF91E0
:104C6000CF911F910F91FF90EF90DF90CF90BF9069
:104C7000AF907F906F905F904F9008954F5F5F4F20
:104C80002C5F3F4F211561E0360709F087CFEDED2E
:104C9000F7E165917491072E000C880B990B0E9427
:104CA00002C1DDCF8091440B9091450B60DE609393
:104CB0001710709318108093191090931A10809108
:104CC000420B9091430B58DF6093870B7093880BD6
:104CD0008093890B90938A0BA8958FB7F8941092C4
:104CE000460B8FBF08958091F90A80FF24C0899AEE
:104CF0008FEF80930F028091F90A81FF1FC08F9878
:104D00008FEF809310028091F90A9FB782FF19C03C
:104D1000F89480910B01826080930B019FBF8FEF0D
:104D2000809311028091F90A83FF14C016988FEFC7
:104D3000809312020895899881E0DBCF8F9A81E0F9
:104D4000E0CFF89480910B018D7F80930B019FBF82
:104D500081E0E6CF169A81E0EBCF4F925F926F929F
:104D60007F928F929F92AF92BF92EF92FF920F939A
:104D70001F93CF93DF93C3EDDBE08FEFE82E8BE043
:104D8000F82E0AED15E0412C512C32014394699123
:104D9000799189919991F70181909190A190B19029
:104DA0007F010E9400C1A50194010E9461C10E947F
:104DB0005BC6F80161937193819391938F014616BD
:104DC00057066806790610F42B013C01FBE0C33E50
:104DD000DF07E9F66FEF7FEFCB01A30192010E949D
:104DE000D6C42093D6053093D7054093D805509369
:104DF000D905DF91CF911F910F91FF90EF90BF9058
:104E0000AF909F908F907F906F905F904F9008959C
:104E1000FC0120E03EE2DB014D91BD01403249F052
:104E2000283011F430833196DB0111974C91408387
:104E300031962F5F2B3079F71082089561E0FC01E5
:104E400080810C94E2958EBD0DB407FEFDCF0895D0
:104E50008FEF8EBD0DB407FEFDCF8EB508958F92F6
:104E60009F92AF92BF92EF92FF920F931F93CF93B7
:104E70007C01C62F49015A01FC019281892F806A69
:104E800086958CBD90FD03C081E0963009F480E0EA
:104E90008DBD60E0F70180810E94E2958CE291E097
:104EA0000E943A9D8C2F8064CEDF08E110E0D5018E
:104EB000C401002E04C0B695A795979587950A94CE
:104EC000D2F7C1DF08501109083FFFEF1F0779F73C
:104ED00085E9CC2321F087E8C83009F08FEFB3DFF4
:104EE000CC3009F4B5DFC0E0B3DFF701838387FF7F
:104EF00004C0CF3F11F0CF5FF7CFCF911F910F913B
:104F0000FF90EF90BF90AF909F908F9008950F9378
:104F10001F93CF93DF93EC0189018C81833039F0AB
:104F200089E0440F551F661F771F8A95D1F79A01B4
:104F3000AB0168E1CE0193DF882319F086E0898315
:104F400035C08EEF8EBDF801C8019E5F0DB407FE1F
:104F5000FDCF20812EBD0DB407FEFDCF21812EBDDA
:104F60003296E817F90791F70DB407FEFDCF8FEFE2
:104F70006ADF8FEF68DF6CDF8B838F71853091F490
:104F800088E592E00E943A9D182F87E11123B9F23B
:104F900020E030E0A9016DE0CE0161DF882351F00F
:104FA00086E1CDCF83E18983CE0148DFCE0146DFA4
:104FB00010E005C04DDF8111F3CFCE013FDF812F1F
:104FC000DF91CF911F910F910895CF938091870E1C
:104FD000C1E0882399F040917F0E5091800E60913E
:104FE000810E7091820E2FE73CE08091880E9091A7
:104FF000890E8DDFC82F811104C0C0E08C2FCF91A6
:1050000008954091830E5091840E6091850E7091A9
:10501000860E411551056105710589F02FE73CE0C9
:105020008091880E9091890E72DF882331F310925F
:10503000830E1092840E1092850E1092860E10929E
:10504000870EDCCFEF92FF920F931F93CF93DF93E6
:10505000EC0179018C81833039F089E0440F551FD0
:10506000661F771F8A95D1F79A01AB0161E1CE01E6
:10507000F6DE882331F084E08983CE01DFDE80E034
:1050800034C00E94B29C8B01E3DE8B838F3F71F4AE
:105090000E94B29C601B710B6D327140A8F381E1DC
:1050A0008983CE01CBDE8FEFCEDEE9CF8E3F11F0CC
:1050B0008FE0F6CF8FEF8EBDF701D701A150BE4F25
:1050C0000DB407FEFDCF9EB591938EBDAE17BF0701
:1050D000B9F70DB407FEFDCF8EB58C93B9DEB8DEFF
:1050E000CE01ACDE8FEFAFDE81E0DF91CF911F917B
:1050F0000F91FF90EF900895CF92DF92EF92FF9281
:10510000CF936B017C01C42F80917F0E9091800E14
:10511000A091810EB091820E8C159D05AE05BF0544
:10512000F1F053DF811108C0C0E08C2FCF91FF90C8
:10513000EF90DF90CF9008952FE73CE0B701A601F4
:105140008091880E9091890E7DDF882369F3C0924B
:105150007F0ED092800EE092810EF092820ECC23D0
:1051600021F081E08093870EE0CFC1E0DECF4F9247
:105170005F926F927F928F929F92AF92BF92CF92E7
:10518000DF92EF92FF920F931F93CF93DF93EC0187
:10519000423051056105710590F480E0DF91CF91B7
:1051A0001F910F91FF90EF90DF90CF90BF90AF9045
:1051B0009F908F907F906F905F904F90089589851A
:1051C0009A85AB85BC850196A11DB11D84179507F5
:1051D000A607B70710F38F898031C1F5852E962E6B
:1051E000A72EBB248B899C89AD89BE89880E991E08
:1051F000AA1EBB1E280139016A017B0141E0C501DD
:10520000B4017ADF882349F29F89903181F5DD244A
:10521000EE24FF24F601EE0FFF1FE158F34F118338
:1052200000839A89923008F4B9CF4D815E816F81F5
:105230007885840E951EA61EB71E8092830E9092CE
:10524000840EA092850EB092860EA8CF803209F00F
:10525000A4CF8B899C89AD89BE894A015B01E7E0B7
:10526000B694A79497948794EA95D1F7BFCFE89422
:10527000C7F8DD24EE24FF24F601EE0FFF1FEE0F2A
:10528000FF1FE158F34F4082518262827382C9CF7F
:10529000CF92DF92EF92FF920F931F93CF93DF9302
:1052A000FC0181859285A385B4850196A11DB11D60
:1052B00084179507A607B70750F480E0DF91CF91D8
:1052C0001F910F91FF90EF90DF90CF900895878905
:1052D0008031A9F5BB27A72F962F852FC388D488A7
:1052E000E588F6888C0D9D1DAE1DBF1DE9016A0184
:1052F0007B018F0140917F0E5091800E6091810E55
:105300007091820E84179507A607B70749F5F80133
:105310008789803161F5B701A60155276627772770
:10532000440F551F4158534FFA0180819181B0E0DD
:10533000A0E088839983AA83BB8381E0BFCF8032BA
:1053400009F0BBCFC388D488E588F688DB01CA01A1
:10535000C7E0B695A79597958795CA95D1F7C2CF1F
:1053600040E0BC01CD01C8DE8111D1CFA6CFB7018D
:10537000A6014F77552766277727440F551F440FFF
:10538000551F4158534FFA0180819181A281B38109
:10539000BF70CFCF4F925F926F927F92AF92BF92CA
:1053A000CF92DF92EF92FF920F931F93CF93DF93F1
:1053B00000D01F92CDB7DEB78C0149835A836B832F
:1053C0007C835901C12CD12C7601412C82E0582ECE
:1053D000612C712C49815A816B817C819E012F5FE8
:1053E0003F4FC80155DF882319F1F8018585A301D6
:1053F000920104C0220F331F441F551F8A95D2F714
:10540000DA01C901C80ED91EEA1EFB1E49815A8164
:105410006B817C8187898031F1F481E0483F5F4F67
:1054200061057105B8F2F501C082D182E282F38292
:105430000F900F900F900F90DF91CF911F910F91D0
:10544000FF90EF90DF90CF90BF90AF907F906F90E4
:105450005F904F90089581E0483F5F4F6F4F7F40CE
:1054600008F4B8CFE0CF0F931F93CF93DF93FC01E5
:105470002381222331F080E0DF91CF911F910F91A2
:1054800008958B01EC01FB018789803139F582E0B9
:105490008B831D8A1E8A1F8A188E808D918DB0E0A5
:1054A000A0E025E0880F991FAA1FBB1F2A95D1F7FE
:1054B000898B9A8BAB8BBC8B1A8F098F81E0898388
:1054C0001C821D821E821F82188619861A861B86E0
:1054D0001C861D861E861F86188ACECF803259F6FE
:1054E00083E08B83428D538D648D758D4D8B5E8BE8
:1054F0006F8B788F9E012F5E3F4FC8014BDF81116C
:10550000DBCFB9CF8F929F92AF92BF92CF92DF92B3
:10551000EF92FF920F931F93CF93DF93EC018B8158
:1055200081110EC080E0DF91CF911F910F91FF900C
:10553000EF90DF90CF90BF90AF909F908F900895A5
:1055400009891A892B893C8904171507260737070B
:1055500048F34A015B01823031F488869986AA8635
:10556000BB8681E0E0CF81149104A104B10449F429
:105570001C821D821E821F82188619861A861B862F
:10558000F0CF088519852A853B85E98DFA8D8585BB
:1055900090E00996B901A8014150510961097109CA
:1055A000082E04C076956795579547950A94D2F7CB
:1055B00075016401E1E0CE1AD108E108F10804C0E8
:1055C000F694E794D794C7948A95D2F7C416D50673
:1055D000E606F70620F0012B022B032B09F58D8937
:1055E0009E89AF89B88D8C839D83AE83BF838E01E6
:1055F0000C5F1F4FC114D104E104F10409F4ADCFD5
:105600004C815D816E817F819801898D9A8D40DE0C
:1056100091E0C91AD108E108F1088111EBCF82CFDE
:10562000C41AD50AE60AF70AE2CF40E050E0BA0110
:1056300069CF3F924F925F926F927F928F929F922B
:10564000AF92BF92CF92DF92EF92FF920F931F9390
:10565000CF93DF93CDB7DEB72C970FB6F894DEBFAC
:105660000FBECDBF5C01DC0159968D909C90F4017A
:1056700081859285A385B4859C01AD012F5F3F4F45
:105680004F4F5F4F29873A874B875C87D501149628
:105690004D905D906D907C9017974114510461047A
:1056A000710409F458C0BFEF4B1A5B0A6B0A7B0AFE
:1056B000312C730162011D821E821F821886F40143
:1056C00081859285A385B4852D813E814F81588542
:1056D000281739074A075B0708F054C089859A855F
:1056E000AB85BC858C159D05AE05BF0550F482E0E9
:1056F000C82ED12CE12CF12C92E0492E512C612C9A
:10570000712C9E012F5F3F4FB701A601C401C0DD80
:105710008823C1F189819A81AB81BC81892B8A2B35
:105720008B2B01F1260137019FEF491A590A690AAB
:10573000790A2D813E814F8158852F5F3F4F4F4F12
:105740005F4F2D833E834F8358873FEFC31AD30AA1
:10575000E30AF30AB4CF408051806280738033241F
:105760003394A7CFC414D504E604F70411F70FEF60
:105770001FEF2FEF3FE0B701A601C401F8DC782E40
:1057800081111AC0712C872D2C960FB6F894DEBFAC
:105790000FBECDBFDF91CF911F910F91FF90EF9082
:1057A000DF90CF90BF90AF909F908F907F906F9041
:1057B0005F904F903F900895F50144815581668137
:1057C0007781411551056105710531F09701860119
:1057D000C401CDDC8823B1F2D5011496CD92DD92BF
:1057E000ED92FC921797332051F0D701C601019634
:1057F000A11DB11DF40180839183A283B383F501C0
:1058000085899689A789B08D892B8A2B8B2B09F0E6
:10581000BACFC58AD68AE78AF08E81818068818373
:10582000B2CFCF93DF93EC01462F41706C857D851D
:105830008E859F8561DC882351F0888920E2829FD4
:10584000C00111248158934FDF91CF91089590E0CA
:1058500080E0FACFCF93DF93EC018B81882339F17D
:10586000898187FF21C061E0CE01DBDFFC01892B4C
:10587000F1F08081853ED9F08B81823040F48989B6
:105880009A89AB89BC89848F958FA68FB78F8D89B4
:105890009E89938F828F8D899E89AF89B88DB58BB4
:1058A000A48B89818F778983DF91CF918ECB81E023
:1058B000888380E0DF91CF9108952F923F924F929D
:1058C0005F926F927F928F929F92AF92BF92CF9290
:1058D000DF92EF92FF920F931F93CF93DF9300D04D
:1058E0001F92CDB7DEB78C014B011A01DC01139674
:1058F0008C911397813009F0C7C011968C9181FF6C
:10590000C3C082FDAEC06101D80118964D915D9172
:105910006D917C911B97C114D10409F414C159965F
:105920008D919C915A97FC0174802FEF270D2A01CD
:105930003B0139E076946794579447943A95D1F7B0
:10594000722E74207A01F1E0FF2271101FC0E11461
:10595000F104E1F414964D915D916D917C9117974E
:10596000411551056105710509F094C055968D9159
:105970009D910D90BC91A02D0097A105B10509F056
:10598000A1C0C80156DE882309F47EC080E092E001
:105990008E199F0956018C159D0508F45C01D801EC
:1059A00059964D915C915A9714968D919D910D90B9
:1059B000BC91A02D0297A109B109FA01258504C067
:1059C000880F991FAA1FBB1F2A95D2F746855785B6
:1059D00060897189840F951FA61FB71F9C01AD01B7
:1059E000270D311D411D511D29013A01A11432E03D
:1059F000B30609F075C080917F0E9091800EA09142
:105A0000810EB091820E481659066A067B0669F42B
:105A10001092870E8FEF9FEFDC0180937F0E9093A3
:105A2000800EA093810EB093820E9401B301A20167
:105A30008091880E9091890E6ADA882329F1F80105
:105A400080859185A285B3858A0D9B1DA11DB11D01
:105A500080879187A287B3878A0C9B1CCA18DB08B2
:105A600053CFF80141895289638974898085918572
:105A7000A285B385481759076A077B0709F443CF06
:105A8000C80140DD81113FCF81E0D8018C938FEFB9
:105A90009FEF6FC09E012F5F3F4FFADB8823A1F37A
:105AA00089819A81AB81BC81F801218D328DF90108
:105AB0002789203169F4883FFFEF9F07A105B105D1
:105AC00008F05FCFF80184839583A683B7835ECF08
:105AD000883F2FEF9207A2072FE0B20798F351CF2C
