:100000000C94A4110C94D5110C94D5110C94D51109
:100010000C94D5110C94D5110C94D5110C94D511C8
:100020000C94D5110C94D5110C94D5110C94D511B8
:100030000C94D5110C94D5110C94D5110C94D511A8
:100040000C94D5110C94347F0C94D5110C94D511CB
:100050000C94D5110C94D5110C94D58D0C94F2C63A
:100060000C94D5110C94D7110C94D5110C94D51176
:100070000C94D5110C94D5110C94D5110C94D51168
:100080000C94D5110C94D5110C94D5110C94D51158
:100090000C94D5110C94D5110C94D5110C94D51148
:1000A0000C94D5110C94D5110C94D5110C94D51138
:1000B0000C94D5110C94D5110C94D5110C94D51128
:1000C0000C94D5110C94D5110C94D5110C94D51118
:1000D0000C94D5110C94D5110C94D5110C94D51108
:1000E0000C94D51120C825C82AC834C83EC8B7C842
:1000F00048C850C858C862C86CC876C885C88FC878
:10010000B7C899C8A3C8ADC8D8C8DBC8CAC8CEC8C4
:10011000D4C812C9DFC8E3C8E9C8EDC8F1C8F7C838
:10012000FBC8FFC812C905C909C90DC9084AD73B90
:100130003BCE016E84BCBFFDC12F3D6C74319ABDB6
:1001400056833DDA3D00C77F11BED9E4BB4C3E91DA
:100150006BAAAABE000000803F05A84CCDB2D44EC9
:10016000B93836A9020C50B9918688083CA6AAAACB
:100170002ABE000000803F00446F6E6520736176E8
:10018000696E672066696C652E0A004D3239002061
:1001900020506C616E6E657242756666657242795A
:1001A0007465733A20002046726565204D656D6F59
:1001B00072793A2000436F6D70696C65643A204A29
:1001C000616E20313220323031390A00207C2041EA
:1001D0007574686F723A20285068696C2052616D9E
:1001E0006972657A2C20466F6C6765727465636806
:1001F0002046542D352053746F636B290A0032302A
:1002000031372D30362D30342031323A3030002025
:100210004C61737420557064617465643A200031D8
:100220002E312E330A004D61726C696E0020536FBF
:100230006674776172652052657365740A00205791
:1002400061746368646F672052657365740A002087
:1002500042726F776E206F75742052657365740AF1
:10026000002045787465726E616C20526573657408
:100270000A00506F77657255700A0073746172746A
:100280000A005072696E7465722068616C746564EE
:100290002E206B696C6C28292063616C6C6564216D
:1002A0000A004B494C4C45442E20004B494C4C20F5
:1002B000636175736564206279204B494C4C206200
:1002C0007574746F6E2F70696E0A004B494C4C4503
:1002D000442E20004B494C4C2063617573656420AB
:1002E000627920746F6F206D75636820696E616339
:1002F000746976652074696D65202D20637572724E
:10030000656E7420636F6D6D616E643A20002074B9
:100310006F6F206C6F6E6720657874727573696F8C
:100320006E2070726576656E7465640A0020636F76
:100330006C6420657874727573696F6E2070726575
:1003400076656E7465640A006F6B00526573656E46
:10035000643A20004E6F2063617365206C696768A2
:10036000740A004F666673657473206170706C69FF
:100370006564004572723A20546F6F206661722185
:1003800000546F6F206661722066726F6D20726517
:10039000666572656E636520706F696E740A0043EE
:1003A000290A0061626C656420286D696E2074659D
:1003B0006D702000436F6C6420657874727564659D
:1003C0007320617265200020643A0020693A0020A1
:1003D000703A00205A00205900580020204D6178C2
:1003E0003A2000205A00205900580020204D696E04
:1003F0003A20004F6666004F6E2000536F667420EF
:10040000656E6473746F70733A2000536574746919
:100410006E672054726176656C20416363656C651C
:10042000726174696F6E3A200053657474696E6707
:10043000205265747261637420416363656C6572F8
:100440006174696F6E3A200053657474696E672039
:100450005072696E7420416363656C657261746982
:100460006F6E3A200053657474696E67205072692C
:100470006E7420616E642054726176656C204163F5
:1004800063656C65726174696F6E3A20004D31343A
:100490003520533C696E6465783E206F7574206F1B
:1004A000662072616E67652028302D31290A00466A
:1004B00049524D574152455F4E414D453A4D61724B
:1004C0006C696E20312E312E33202847697468758F
:1004D000622920534F555243455F434F44455F5572
:1004E000524C3A68747470733A2F2F676974687548
:1004F000622E636F6D2F4D61726C696E4669726D0D
:10050000776172652F4D61726C696E2050524F5445
:100510004F434F4C5F56455253494F4E3A312E3060
:10052000204D414348494E455F545950453A465441
:100530002D35204D61726C696E20312E312E3220A6
:1005400045585452554445525F434F554E543A31E5
:1005500020555549443A63656465326132662D34ED
:100560003161322D343734382D396231322D6335D3
:10057000356336326633363766660A0046542D35A3
:10058000204D61726C696E20312E312E32204F6603
:10059000662E0042656420646F6E652E003F0A007F
:1005A00020573A004265642048656174696E672E81
:1005B0000048656174696E6720646F6E652E003F48
:1005C0000A0020573A004525692025730046542D1E
:1005D00035204D61726C696E20312E312E322072C1
:1005E000656164792E006F6B004D3131332053000B
:1005F0004B494C4C45442E20004543484F00494E42
:10060000464F004552524F52530044525952554E94
:1006100000434F4D4D554E49434154494F4E006F95
:10062000666600F905FE0503060A06110644454202
:1006300055473A004525692025730046542D35203D
:100640004D61726C696E20312E312E3220726561DF
:1006500064792E0050726F7465637465642050690C
:100660006E0A002569730025696D202569730025D0
:1006700069682025696D2025697300256964202536
:1006800069682025696D2025697300256979202511
:100690006964202569682025696D202569730050EB
:1006A00072696E742074696D653A2000456E64202D
:1006B00066696C65206C6973740A00426567696ECF
:1006C0002066696C65206C6973740A004E6F206D3A
:1006D0006F76652E0046542D35204D61726C696E23
:1006E00020312E312E322072656164792E005265E0
:1006F00073756D696E67207072696E7400436C6902
:10070000636B20746F20726573756D652E2E2E00DD
:10071000536C6565702E2E2E0047322F47332062B2
:10072000616420706172616D65746572730A004165
:1007300063746976652045787472756465723A20D1
:100740000020453A00205A3A0020593A00583A0011
:100750002042403A0020403A00202F0020423A0038
:10076000202F0020543A005761726E696E673A205C
:10077000486F6D696E672042756D702044697669B7
:10078000736F72203C20310A00627573793A2070D1
:10079000617573656420666F7220696E7075740A86
:1007A00000627573793A2070617573656420666FB5
:1007B0007220757365720A00627573793A207072DF
:1007C0006F63657373696E670A0020496E76616CAA
:1007D00069642065787472756465722000534420E2
:1007E00072656164206572726F720A00446F6E6593
:1007F000207072696E74696E672066696C650A00A4
:100800004B494C4C45442E200053544F50504544C6
:100810002E20005072696E7465722073746F707050
:1008200065642064756520746F206572726F7273E1
:100830002E2046697820746865206572726F722078
:10084000616E6420757365204D39393920746F20CD
:10085000726573746172742E202854656D706572B0
:1008600061747572652069732072657365742E20DA
:1008700053657420697420616674657220726573B3
:1008800074617274696E67290A004E6F204C696E3C
:1008900065204E756D6265722077697468206368A3
:1008A00065636B73756D2C204C617374204C696E9D
:1008B000653A20004E6F20436865636B73756D2049
:1008C00077697468206C696E65206E756D626572FB
:1008D0002C204C617374204C696E653A200063686B
:1008E00065636B73756D206D69736D617463682CDE
:1008F000204C617374204C696E653A20004C696E1F
:1009000065204E756D626572206973206E6F74206C
:100910004C617374204C696E65204E756D62657212
:100920002B312C204C617374204C696E653A200089
:100930004D31313000656E7175657565696E672082
:100940002200FFFFFF0000A0400000A040000000C8
:100950004000009643000096430000BE43000000A4
:100960000000000000000000000000964300009618
:10097000430000BE43000000000000000000000033
:10098000007C3C3E5E2B3D3F2F5B5D3B2C2A225C76
:10099000004D3331004D383420582059205A20451D
:1009A0000043616E6E6F7420656E7465722073759E
:1009B000626469723A20006175746F25692E670060
:1009C0006572726F722077726974696E6720746FD6
:1009D0002066696C650A004E6F7420534420707263
:1009E000696E74696E670A005344207072696E7490
:1009F000696E672062797465200044656C6574696E
:100A00006F6E206661696C65642C2046696C653A7E
:100A1000200046696C652064656C657465643A0005
:100A20006F70656E206661696C65642C2046696C28
:100A3000653A200057726974696E6720746F20668A
:100A4000696C653A20006F70656E206661696C653F
:100A5000642C2046696C653A20006F70656E2066D4
:100A600061696C65642C2046696C653A20004669B2
:100A70006C652073656C65637465640A0020536956
:100A80007A653A200046696C65206F70656E656412
:100A90003A20006F70656E206661696C65642C2079
:100AA00046696C653A20002066696C653A20004E04
:100AB0006F7720002220706F7300222070617265B2
:100AC0006E743A2200535542524F5554494E4520B8
:100AD00043414C4C207461726765743A22004B4963
:100AE0004C4C45442E2000747279696E6720746FF7
:100AF0002063616C6C207375622D67636F64652081
:100B000066696C6573207769746820746F6F206DF7
:100B1000616E79206C6576656C732E204D4158208E
:100B20006C6576656C2069733A004D3234004D3245
:100B3000332025730053442063617264206F6B0A75
:100B4000006F70656E526F6F74206661696C6564CA
:100B50000A00766F6C756D652E696E69742066612A
:100B6000696C65640A00534420696E69742066618B
:100B7000696C0A0043616E6E6F74206F70656E2041
:100B800073756264697220002044002049002020AF
:100B90004D333031205000504944207365747469DE
:100BA0006E67733A0A002046002042002048002069
:100BB000204D3134352053004D6174657269616C8C
:100BC0002068656174757020706172616D6574650F
:100BD00072733A0A00205A0020590020204D32300A
:100BE00036205800486F6D65206F66667365743AED
:100BF0000A00204500205A002059002058002042B9
:100C00000020540020204D323035205300416476BE
:100C1000616E6365643A20533C6D696E5F6665651D
:100C200064726174653E20543C6D696E5F747261DC
:100C300076656C5F66656564726174653E20423CF2
:100C40006D696E5F7365676D656E745F74696D6500
:100C50005F6D733E20583C6D61785F78795F6A659F
:100C6000726B3E205A3C6D61785F7A5F6A65726B89
:100C70003E20453C6D61785F655F6A65726B3E0A38
:100C80000020540020520020204D323034205000EB
:100C9000416363656C65726174696F6E2028756E5F
:100CA0006974732F7332293A20503C7072696E74E4
:100CB0005F616363656C3E20523C72657472616370
:100CC000745F616363656C3E20543C747261766549
:100CD0006C5F616363656C3E0A00204500205A002A
:100CE00020590020204D3230312058004D61786964
:100CF0006D756D20416363656C65726174696F6EBB
:100D00002028756E6974732F7332293A0A002045C2
:100D100000205A0020590020204D32303320580046
:100D20004D6178696D756D20666565647261746585
:100D3000732028756E6974732F73293A0A00204551
:100D400000205A0020590020204D393220580053ED
:100D5000746570732070657220756E69743A0A004C
:100D600020204D3230302044300A0020204D3230D7
:100D7000302044002044697361626C65640A004657
:100D8000696C616D656E742073657474696E6773E8
:100D90003A0020204D3134392043203B20556E69E4
:100DA000747320696E2043656C736975730A002043
:100DB00020473231202020203B20556E697473205B
:100DC000696E206D6D0A0048617264636F646564CA
:100DD0002044656661756C742053657474696E6730
:100DE00073204C6F616465640A00202863616C6342
:100DF000756C6174656429210A0020213D2000453D
:100E00004550524F4D20435243206D69736D6174BC
:100E10006368202D202873746F726564292000296F
:100E20000A002062797465733B206372632000209E
:100E300073746F7265642073657474696E67732070
:100E4000726574726965766564202800204D617250
:100E50006C696E3D563338290A0028454550524F7B
:100E60004D3D00454550524F4D2076657273696F78
:100E70006E206D69736D617463682000290A00201B
:100E800062797465733B20637263200053657474E8
:100E9000696E67732053746F726564202800457211
:100EA000726F722077726974696E6720746F204563
:100EB0004550524F4D210A007A5F6D696E3A20000D
:100EC000795F6D696E3A2000785F6D696E3A200037
:100ED0005265706F7274696E6720656E6473746FAB
:100EE00070207374617475730A00456E6473746F57
:100EF000707320256320256320256320256300204F
:100F00005A3A0020593A0020583A00656E647374CA
:100F10006F7073206869743A2000556E6B6E6F773E
:100F20006E20636F6D6D616E643A20220020746FD5
:100F30006F206C6F6E6720657874727573696F6E61
:100F40002070726576656E7465640A0020636F6C4C
:100F50006420657874727573696F6E20707265763F
:100F6000656E7465640A006563686F3A0045727265
:100F70006F723A00205A3A0020593A0020436F75A8
:100F80006E7420583A004D383420582059205A2089
:100F9000450024F4D43050C38E20C2A24017828B67
:100FA0007011127A910D816CD90AA861E108C758B5
:100FB0006607615143061E4B5D05C145A7041A41F2
:100FC0001104093D9803713931034036DB02653362
:100FD0009102D4305402802E1D02632CEE01752A3A
:100FE000C501B028A001102781018F2564012B24A1
:100FF0004B01E0223401AC211F018D200D01801F27
:10100000FC00841EED00971DDF00B81CD200E61B1B
:10101000C600201BBC00641AB200B219A8000A194D
:10102000A0006A189900D117910040178B00B516DF
:10103000840031167E00B31579003A157300C71489
:101040006F0058146A00EE136600881363002513BE
:101050005E00C7125B006C12570015125400C111DC
:10106000510070114F0021114B00D61049008D1016
:1010700047004610440002104200C00F4000800F9D
:101080003E00420F3C00060F3B00CB0E3800930E93
:1010900037005C0E3500270E3400F30D3200C10D11
:1010A0003100900D3000600D2E00320D2D00050D29
:1010B0002C00D90C2B00AE0C2900850C29005C0CEF
:1010C0002700350C27000E0C2600E80B2400C40B6B
:1010D0002400A00B23007D0B23005A0B2100390BA9
:1010E0002100180B2000F80A1F00D90A1E00BB0AB5
:1010F0001E009D0A1D00800A1D00630A1C00470A8D
:101100001B002C0A1B00110A1A00F7091A00DD093E
:101110001900C4091900AB091900920917007B09CD
:101120001800630917004C0916003609160020093B
:1011300016000A091500F5081500E0081400CC088F
:101140001400B8081400A4081400900813007D08C7
:1011500012006B08130058081200460812003408E9
:101160001100230811001208110001081100F007F6
:101170001000E0071000D0071000C0071000B007F3
:101180000F00A107100091070E0083070F007407DE
:101190000F0065070E0057070E0049070E003B07BA
:1011A0000D002E070E0020070D0013070D00060787
:1011B0000D00F9060C00ED060D00E0060C00D4064B
:1011C0000C00C8060C00BC060C00B0060C00A406FF
:1011D0000B0099060C008D060B0082060B007706AB
:1011E0000B006C060B0061060A0057060B004C064C
:1011F0000A0042060A0038060A002E060A002406E3
:101200000A001A060A001006090007060A00FD0572
:101210000900F4050900EB050900E2050900D905FC
:101220000900D0050900C7050900BE050900B5057C
:101230000800AD050800A50509009C0508009405F7
:1012400008008C050800840508007C05080074056A
:1012500008006C050700650508005D0507005605D8
:1012600008004E050700470507004005080038053F
:101270000700310507002A050700230507001C05A4
:101280000600160507000F05070008050600020501
:101290000700FB040600F5040700EE040600E8045E
:1012A0000600E2040700DB040600D5040600CF04B4
:1012B0000600C9040600C3040600BD040600B70406
:1012C0000600B1040500AC040600A6040600A00454
:1012D00005009B04060095040500900406008A049E
:1012E000050085040500800406007A0405007504E5
:1012F0000500700405006B04050066040500610428
:1013000005005C04050057040500520405004D0467
:10131000050048040500430405003E0404003A04A7
:10132000050035040500300404002C0405002704E2
:101330000400230405001E0404001A04040016041B
:101340000500110404000D04040009040500040450
:10135000040000040400FC030400F8030400F40388
:101360000400F0030400EC030400E8030400E403B9
:101370000400E0030400DC030400D8030400D403E9
:101380000400D0030400CC030400C8030300C50319
:10139000030024F404D9201BC40C5C0E9804C40977
:1013A0005F0265077101F405F900FB04B30048040E
:1013B0008700C10369005803550003034500BE02BE
:1013C0003A008402310053022A0029022500040257
:1013D0002000E4011C00C8011900AF0117009801AA
:1013E000140084011300710110006101100051010B
:1013F0000E0043010D0036010B002B010B002001F4
:101400000B00150109000C01090003010800FB0095
:101410000800F3000800EB000700E4000600DE000F
:101420000600D8000600D2000600CC000500C70068
:101430000500C2000500BD000400B9000400B500AD
:101440000400B1000400AD000400A9000400A500E0
:101450000300A20003009F0004009B00030098000B
:1014600003009500020093000300900003008D002C
:1014700002008B0003008800020086000200840046
:101480000300810002007F0002007D0002007B005B
:10149000020079000200770001007600020074006B
:1014A000020072000100710002006F0002006D0076
:1014B00001006C0002006A00010069000200670080
:1014C0000100660001006500010064000200620086
:1014D000010061000100600001005F0002005D008A
:1014E00001005C0001005B0001005A00010059008E
:1014F000010058000100570001005600010055008E
:10150000010054000100530000005300010052008C
:10151000010051000100500001004F0001004E0089
:1015200000004E0001004D0001004C0001004B0086
:1015300000004B0001004A00010049000100480082
:10154000000048000100470001004600000046007E
:101550000100450000004500010044000100430077
:101560000000430001004200000042000100410071
:10157000000041000100400001003F0000003F006A
:1015800001003E0000003E0001003D0000003D0063
:1015900001003C0000003C0000003C0001003B005A
:1015A00000003B0001003A0000003A000100390051
:1015B0000000390001003800000038000000380049
:1015C000010037000000370001003600000036003F
:1015D0000000360001003500000035000000350035
:1015E000010034000000340000003400010033002A
:1015F0000000330000003300010032000000320020
:101600000000320001003100000031000000310014
:1016100001003000000030000000300001002F0009
:1016200000002F0000002F0000002F0001002E00FE
:1016300000002E0000002E0001002D0000002D00F3
:1016400000002D0000002D0001002C0000002C00E7
:1016500000002C0000002C0001002B0000002B00DB
:1016600000002B0000002B0001002A0000002A00CF
:1016700000002A0000002A000100290000002900C3
:1016800000002900000029000000290001002800B6
:1016900000002800000028000000280000002800AA
:1016A000010027000000270000002700000027009D
:1016B0000000270001002600000026000000260090
:1016C0000000260000002600010025000000250083
:1016D0000000250000002500000025000000250076
:1016E0000100240000002400000024000000240069
:1016F000000024000100230000002300000023005C
:10170000000023000000230000002300000023004D
:101710000100220000002200000022000000220040
:101720000000220000002200010021000000210032
:101730000000210000002100000021000000210025
:101740000000210001002000000020000000200017
:101750000000200000002000000020000000200009
:101760000000200001001F0000001F0000001F00FB
:1017700000001F0000001F0000001F0000001F00ED
:1017800001001E0000001E0000001E0000001E00E0
:101790000000546865726D616C2052756E617761EE
:1017A0007900544845524D414C2052554E415741C5
:1017B00059004B494C4C45442E2000202D20496EA9
:1017C00076616C6964206578747275646572206EE8
:1017D000756D62657220210A0048656174696E67E3
:1017E000206661696C65640048656174696E672094
:1017F0006661696C65640048656174696E6720663E
:1018000061696C65640048656174696E6720666132
:10181000696C6564004D494E54454D5020747269A1
:10182000676765726564004572723A204D494E548F
:10183000454D5020424544004572723A204D494E74
:1018400054454D50004D415854454D5020747269D7
:10185000676765726564004572723A204D4158545D
:10186000454D5020424544004572723A204D415842
:1018700054454D50006265640A002C2073797374DE
:10188000656D2073746F70706564212048656174A4
:1018900065725F49443A200023646566696E65207D
:1018A0002044454641554C545F4B642000236465F9
:1018B00066696E65202044454641554C545F4B692E
:1018C000200023646566696E6520204445464155C5
:1018D0004C545F4B702000504944204175746F7424
:1018E000756E652066696E69736865642120507540
:1018F0007420746865206C617374204B702C204BCD
:101900006920616E64204B6420636F6E7374616E36
:1019100074732066726F6D2062656C6F7720696EDC
:10192000746F20436F6E66696775726174696F6E5C
:101930002E680A00504944204175746F74756E65B5
:10194000206661696C6564212074696D656F7574CA
:101950000A00504944204175746F74756E652066A5
:1019600061696C6564212054656D70657261747580
:10197000726520746F6F20686967680A00204B6485
:101980003A2000204B693A2000204B703A20000A90
:1019900020436C617373696320504944200A00201E
:1019A00054753A2000204B753A2000206D61783A3A
:1019B0002000206D696E3A200020643A20002062E9
:1019C0006961733A20001000C90210012C01400126
:1019D000220170011801B0010E01F0010401500252
:1019E000FA00B002F0003003E600D003DC009004FF
:1019F000D2007005C800A006BE000008B400B009FF
:101A0000AA00D00BA000600E960060118C0000159B
:101A1000820020197800C01D6E00A0226400B0274B
:101A20005A00902C500000314600E0343C00103841
:101A30003200903A2800603C1E00A03D1400803E19
:101A40000A00203F000070012C0190012701B00125
:101A50002201C0011D01F001180110021301300222
:101A60000E016002090190020401C002FF000003A0
:101A7000FA004003F5008003F000D003EB002004DF
:101A8000E6007004E100E004DC004005D700C0057A
:101A9000D2004006CD00D006C8008007C300300841
:101AA000BE00F008B900C009B400B00AAF00B00B26
:101AB000AA00D00CA500000EA000500F9B00C01083
:101AC00096005012910000148C00C0158700B017CA
:101AD0008200B0197D00D01B7800001E73004020EA
:101AE0006E0090226900F024640040275F00902976
:101AF0005A00E02B5500102E500020304B001032C1
:101B00004600E033410090353C0010373700703814
:101B10003200A0392D00B03A2800A03B2300603CE1
:101B20001E00103D1900903D1400103E0F00703E45
:101B30000A00C03E0500003F0000403FFBFF803F21
:101B4000F6FFC03FF1FF436172642072656D6F76EE
:101B50006564004361726420696E736572746564C4
:101B600000052E2E004D61696E0046696C2E2044E2
:101B700069612E0046696C2E204469612E00452063
:101B8000696E206D6D33004F6666004F6E20004316
:101B90006F6E74726F6C0053746570732F6D6D008F
:101BA0004A65726B00416363656C65726174696F4D
:101BB0006E0056656C6F6369747900436F6E747262
:101BC0006F6C004573746570732F6D6D0045737491
:101BD0006570732F6D6D005A73746570732F6D6D22
:101BE000005A73746570732F6D6D0059737465704E
:101BF000732F6D6D005973746570732F6D6D005880
:101C000073746570732F6D6D005873746570732FE6
:101C10006D6D004D6F74696F6E0056652D6A65724B
:101C20006B0056652D6A65726B0056652D6A65728C
:101C30006B00567A2D6A65726B00567A2D6A657252
:101C40006B0056792D6A65726B0056792D6A657244
:101C50006B0056792D6A65726B0056782D6A657235
:101C60006B0056782D6A65726B0056782D6A657226
:101C70006B004D6F74696F6E00416D617820450097
:101C8000416D6178204500416D6178205A00416DB9
:101C90006178205A00416D6178205900416D61786A
:101CA000205900416D6178205800416D61782058BD
:101CB00000412D74726176656C00412D74726176FD
:101CC000656C00412D7265747261637400412D7200
:101CD00065747261637400416363656C00416363A2
:101CE000656C004D6F74696F6E005654726176209A
:101CF0006D696E005654726176206D696E0056549F
:101D0000726176206D696E00566D696E00566D6960
:101D10006E00566D696E00566D6178204500566DF7
:101D20006178204500566D6178204500566D6178D8
:101D3000205A00566D6178205A00566D6178205AFD
:101D400000566D6178205900566D61782059005613
:101D50006D6178205900566D6178205800566D618C
:101D600078205800566D61782058004D6F74696F67
:101D70006E0053746F72652073657474696E677357
:101D80000042656400426564004E6F7A7A6C6500BB
:101D90004E6F7A7A6C650046616E2073706565647B
:101DA0000046616E2073706565640054656D7065F2
:101DB0007261747572650050726568656174204166
:101DC000425320636F6E66005072656865617420CF
:101DD000504C4120636F6E66005049442041757439
:101DE0006F74756E6500504944204175746F747549
:101DF0006E65005049442D44005049442D44005024
:101E000049442D49005049442D49005049442D5022
:101E1000005049442D500020022046616374002088
:101E2000022046616374002002204D617800200288
:101E3000204D6178002002204D6178002002204D65
:101E4000696E002002204D696E002002204D696EEF
:101E5000004175746F74656D70004F6666004F6E5B
:101E6000200046616E207370656564203200466113
:101E70006E20737065656420320046616E20737059
:101E800065656420310046616E207370656564206D
:101E9000310042656400426564004E6F7A7A6C6579
:101EA000004E6F7A7A6C6500436F6E74726F6C00CF
:101EB0004D333033205531204525692053256900A5
:101EC000496E697469616C697A6520454550524F65
:101ED0004D004D3530320A4D353030005265737447
:101EE0006F7265206661696C73616665004C6F6135
:101EF000642073657474696E67730053746F7265E0
:101F00002073657474696E67730046696C616D65F2
:101F10006E74004D6F74696F6E0054656D706572FC
:101F20006174757265004D61696E004578747275F3
:101F3000646572004D6F7665205A004D6F7665209E
:101F400059004D6F7665205800507265706172655A
:101F5000004D6F766520302E316D6D004D6F7665CA
:101F600020316D6D004D6F76652031306D6D004D07
:101F70006F76652061786973004578747275646561
:101F800072004D6F7665205A004D6F7665205900BE
:101F90004D6F7665205800457874727564657200DF
:101FA0004D6F7665205A004D6F76652059004D6F54
:101FB000766520580050726568656174204142530F
:101FC000005072656865617420504C4100436F6F2A
:101FD0006C646F776E0044697361626C6520737422
:101FE000657070657273004D3834005365742068F5
:101FF0006F6D65206F666673657473004175746FED
:1020000020686F6D6500473238004D6F766520613E
:10201000786973004D61696E00507265686561741E
:1020200020414253204265640050726568656174C6
:102030002041425320456E640050726568656174AA
:1020400020414253005072657061726500507265A4
:102050006865617420504C4120426564005072658F
:102060006865617420504C4120456E640050726573
:102070006865617420504C410050726570617265F2
:1020800000466C6F7700466C6F770046616E207378
:102090007065656420320046616E2073706565640A
:1020A00020320046616E2073706565642031004601
:1020B000616E207370656564203100426564004282
:1020C0006564004E6F7A7A6C65004E6F7A7A6C6543
:1020D000005370656564005370656564004D616907
:1020E0006E004D343238004E6F20534420636172CD
:1020F00064005072696E742066726F6D20534400E4
:1021000053746F70207072696E7400526573756DD0
:1021100065207072696E740050617573652070720D
:10212000696E7400436F6E74726F6C0050726570EC
:102130006172650054756E6500496E666F20736349
:102140007265656E005072696E742061626F7274A0
:102150006564005072696E74207061757365640007
:102160000025753A2530327500253032753A253014
:102170003275000120002D2D2D005344005A0059C6
:10218000005800506C65617365207265736574005A
:102190005052494E5445522048414C544544002D1C
:1021A0002D2D2D2D2D007C4D61726C696E7C002DC6
:1021B0002D2D2D2D2D00687474703A2F2F6D6172A6
:1021C0006C696E66772E6F726700687474703A2F50
:1021D0002F6D61726C696E66772E6F7267002031A9
:1021E0002E312E330000000A0B02090C0D0E0807D9
:1021F00003040100000000000000000000000000D7
:1022000000000000000000000000000000000000CE
:10221000001211100000000000000000000000008B
:10222000000000000000000000000001021020205B
:10223000080810204010204080020102010804021A
:102240000101020408102040808040201008040290
:1022500001800402018040201008040201080402E9
:1022600001010204081020408001020408102040EF
:102270008005050505070508080808020202020A8C
:102280000A08080404040401010101010101010319
:1022900003030303030303040707070C0C0C0C0CD4
:1022A0000C0C0C0202020206060606060606060BC7
:1022B0000B0B0B0B0B0B0B0000200023002600293F
:1022C000002C002F0032000001000003010601096C
:1022D0000100002200250028002B002E00310034D0
:1022E0000002010000050108010B0100002100248B
:1022F0000027002A002D00300033000101000004F7
:102300000107010A014E414E494E495459494E4672
:10231000CDCCCC3D0AD7233C17B7D13877CC2B3264
:102320009595E6241FB14F0A000020410000C842E5
:1023300000401C4620BCBE4CCA1B0E5AAEC59D7444
:10234000763A8A7766A1943A11241FBECFEFD1E284
:10235000DEBFCDBF00E00CBF14E0A0E0B2E0E4E1DE
:10236000FCEA01E00BBF02C007900D92A835B1074F
:10237000D9F723E1A8E5B4E001C01D92A435B20766
:10238000E1F713E2C6E4D3E200E006C022970109B8
:10239000FE010BBF0E947BCEC034D10780E008074E
:1023A000A9F70E94F0C90C94F9D50C9400001F9273
:1023B0000F920FB60F9211240BB60F922F933F93EB
:1023C0008F939F93EF93FF932091C6009FB7F8944C
:1023D000E091D80481E08E0F8F773091D904831774
:1023E00031F0F0E0E85AFB4F20838093D8049FBF80
:1023F000FF91EF919F918F913F912F910F900BBE85
:102400000F900FBE0F901F9018959B01AC012115E6
:1024100081EE38074105510549F182E08093C00003
:1024200060E079E08DE390E00E9434CE21503109E4
:1024300041095109CA01B90122E030E040E050E011
:102440000E9434CE3093C5002093C4008091C10017
:1024500080618093C1008091C10088608093C10039
:102460008091C10080688093C10008951092C000DF
:1024700020E130E0E7CF3FB7F8942091D904809174
:10248000D804821759F0E22FF0E0E85AFB4F808120
:1024900090E02F5F2F772093D90402C08FEF9FEF3A
:1024A0003FBF08952FB7F8948091D8049091D90434
:1024B0002FBF891B8F7708958FB7F8949091D90417
:1024C0009093D8048FBF08959091C00095FFFCCFE2
:1024D0008093C6000895AF92BF92CF92DF92EF92A1
:1024E000FF920F931F93CF93DF93CDB7DEB7A097E3
:1024F0000FB6F894DEBF0FBECDBF61157105810523
:102500009105A9F1B12CC42ED12CE12CF12CAA24D7
:10251000A394AB0C01E010E00C0F1D1F0B0D111D5F
:10252000B7FC1A95A70196010E9412CEF8016083AC
:10253000B901CA01611571058105910511F41B2DC1
:1025400011C0BA2CE4CFE1E0F0E0EC0FFD1FE10F89
:10255000F11D17FDFA9580818A3038F490E3890FD8
:10256000B3DF11501F3F79F714C097E3F8CF80E332
:10257000A0960FB6F894DEBF0FBECDBFDF91CF910E
:102580001F910F91FF90EF90DF90CF90BF90AF9091
:102590009BCFA0960FB6F894DEBF0FBECDBFDF91E4
:1025A000CF911F910F91FF90EF90DF90CF90BF9050
:1025B000AF9008954115510511F4862F85CF8BCF2B
:1025C000AB01BC0180E090E0F5CFCF92DF92EF92BB
:1025D000FF926B017C0197FF0AC08DE275DFF094DA
:1025E000E094D094C094C11CD11CE11CF11C4AE0C1
:1025F000C701B601FF90EF90DF90CF906CCF4115EF
:10260000510511F4862F60CF4A30510509F4DDCF12
:1026100062CFAB01BC01882777FD8095982FEFCF63
:102620008DE052DF8AE050CFAB01BC0180E090E04A
:10263000C1DFF6CF8F929F92AF92BF92CF92DF927F
:10264000EF92FF92CF936B017C01B42E20E030E03B
:10265000A9010E94D8CA87FF06C08DE235DFF7FACC
:10266000F094F7F8F094C0E060E070E080E09FE361
:10267000CB1541F02DEC3CEC4CEC5DE30E9416CD0B
:10268000CF5FF6CF9B01AC01C701B6010E94FFC925
:102690006B017C010E944CCB4B015C014AE01BDFCB
:1026A000CC2381F1C501B4010E9478CB9B01AC0120
:1026B000C701B6010E94FEC96B017C018EE204DFF6
:1026C00020E030E040E251E4C701B6010E9416CD9F
:1026D0006B017C010E9447CB4B01AA2497FCA0947C
:1026E000BA2CC501B40171DFC501B4010E947ACBD7
:1026F0009B01AC01C701B6010E94FEC96B017C01C0
:10270000C150F1F6CF91FF90EF90DF90CF90BF9046
:10271000AF909F908F9008958DCFFC01659175913A
:10272000859194910895CF92DF92EF92FF920F934B
:102730001F93CF93DF93EC010E943CC70E811F8152
:1027400028853985011511052105310559F53C8587
:102750003323A9F12A8531503C8731E0320F3A8783
:102760004D85341301C01A86FE0134E0239FE00D2D
:10277000F11D112406851785208931890A831B8361
:102780002C833D836B017C01C00ED11EE11CF11C2A
:10279000CE82DF82E886F9868C819D81892B79F053
:1027A000409A0DC06B017C01C01AD10AE20AF30AFB
:1027B000F7FC05C040981E821F8218861986DF919B
:1027C000CF911F910F91FF90EF90DF90CF900895E0
:1027D0000E943CC7609386057093870580938805A7
:1027E000909389050895CF92DF92EF92FF920F9315
:1027F0001F93CF93DF93EB01FC0160817181828194
:1028000093812CE3C22ED12CE12CF12CA70196014F
:102810000E9412CE162F072FCA01B901A7019601F7
:102820000E9412CEF62EE72ECA01B90128E130E04F
:1028300040E050E00E9412CEFB01C9016DE671E05C
:102840000E94EBCD9B014F2D5E2D21153105D9F056
:102850000F931F93EF92FF92FF93EF939F938F93AA
:102860003F932F938BE896E09F938F93DF93CF93C3
:102870000E94E6D28DB79EB70E960FB6F8949EBF13
:102880000FBE8DBF5BC00097C9F00F931F93EF92EF
:10289000FF92FF93EF939F938F938BE796E09F9325
:1028A0008F93DF93CF930E94E6D2EDB7FEB73C96AD
:1028B0000FB6F894FEBF0FBEEDBF40C03097B9F021
:1028C0000F931F93EF92FF92FF93EF938FE696E0A3
:1028D0009F938F93DF93CF930E94E6D28DB79EB7DD
:1028E0000A960FB6F8949EBF0FBE8DBF27C0452B2A
:1028F000A9F00F931F93EF92FF9287E696E09F93C4
:102900008F93DF93CF930E94E6D2EDB7FEB7389650
:102910000FB6F894FEBF0FBEEDBF10C00F931F930C
:1029200083E696E09F938F93DF93CF930E94E6D246
:102930000F900F900F900F900F900F90DF91CF910D
:102940001F910F91FF90EF90DF90CF9008958154E9
:102950008A3120F5482F50E0FA0133E0F595E795EC
:102960003A95E1F7E35CF34F208130E0877002C0D5
:10297000359527958A95E2F720FF10C0FA01ED5DA5
:10298000F34F20818091480C9091490C820F911D4A
:102990009093450C8093440C81E0089580E0089565
:1029A0001F93CF93DF938091440C9091450C009737
:1029B00001F1FC01EF011191212F2F7D99F01534C8
:1029C00011F01536B9F7188260E070E08091440C80
:1029D0009091450C0E947FCE1883562F472F382F99
:1029E000292F0BC060E070E0DF91CF911F910C9414
:1029F0007FCE50E040E030E020E0652F742F832F41
:102A0000922FDF91CF911F9108958091440C909166
:102A1000450C009731F04AE050E060E070E00C9423
:102A2000E7CF60E070E0CB0108958091440C909175
:102A3000450C009731F04AE050E060E070E00C9403
:102A400018D160E070E0CB010895DFDF97FD0CC086
:102A5000DCDF6F3F71058105910509F014F4D5DFC6
:102A600001C06FEF862F089580E008958091440C97
:102A70009091450C892B39F0E8DF91E0811101C07C
:102A800090E0892F089581E00895EF92FF920F93CF
:102A90001F93CF93DF93EC017B018A016C854D85F9
:102AA00064130AC0E881F9810190F081E02DCE0124
:102AB00019950E94288BF2CFF70120813181F8010E
:102AC000808191815B85FE0174E0579FE00DF11DCF
:102AD00011243E9631832083938382836F5F6C87BA
:102AE00081E0850F841711F08B8701C01B86DF9171
:102AF000CF911F910F91FF90EF9008952DE737E050
:102B000049E757E065E777E081E797E00C94B57512
:102B10008F929F92BF92CF92DF92EF92FF920F938C
:102B20001F93CF93DF9300D01F92CDB7DEB7B22EA5
:102B3000D32E4C01880C991C880C991CC4018F5809
:102B4000984F7C01FC01108211821282138249830A
:102B50005A836B837C83D2DF49815A816B817C816C
:102B6000F7014083518362837383C0908E0520E018
:102B700030E0A901B8018B2D9D2D0E94D8CA81118A
:102B800008C0F401EF54FC4F90818181B280D38062
:102B900002C0902F812FE92EF82E0B2D1D2D2DE731
:102BA00037E049E757E065E777E081E797E00E9483
:102BB000C36A0E94C97F10921F0C0F900F900F9054
:102BC0000F90DF91CF911F910F91FF90EF90DF90C9
:102BD000CF90BF909F908F900895809150078093E1
:102BE000510710925207089590915007E92FF0E095
:102BF000EB5BFA4F80839F5F943018F490935007FB
:102C000002C010925007809152078F5F8093520745
:102C10000895CF93FC01C62F80818B3399F080916A
:102C20005207843078F42091500730E6239FC0018A
:102C30001124BF0180539A4F0E94C2D28C2FD4DF3F
:102C400081E001C080E0CF9108950F931F93CF934F
:102C5000DF93EC01DEDF8823B1F0E7E6FFE084914B
:102C60008F010F5F1F4F882319F02EDCF801F7CF7B
:102C7000BE0185E399E00E948E7782E225DC8AE03E
:102C800023DC81E001C080E0DF91CF911F910F91A3
:102C90000895DF92EF92FF920F931F93CF93DF93EC
:102CA000CDB7DEB76E970FB6F894DEBF0FBECDBFBF
:102CB0006091CE057091CF056115710559F14DE117
:102CC00050E08E010F5F1F4FC8010E9451D21E8E2F
:102CD000F8017F01E01AF10AD190DD2019F08AE0B5
:102CE000D812F7CFF801EE0DFF1D108260E0C80189
:102CF000ACDF882379F0DD20B1F08FEFE81AF80A15
:102D00008091CE059091CF058E0D9F1D9093CF059C
:102D10008093CE0581E02091CE053091CF05232B05
:102D200029F480E003C080E090E0F0CF6E960FB60B
:102D3000F894DEBF0FBECDBFDF91CF911F910F91F1
:102D4000FF90EF90DF9008959093CF058093CE058C
:102D5000A0CF9898A09A0895CF92DF92EF92FF9219
:102D60000F931F93CF93DF9380918407882309F4F7
:102D7000CFC080915207811102C01092DD04FF2460
:102D8000F3944091000A5091010A6091020A7091F7
:102D9000030A8091FC099091FD09A091FE09B09170
:102DA000FF09481759076A077B0708F4F12CC0E0B0
:102DB000D0E0EE24E394F0E6DF2E809152078430D9
:102DC00008F0A6C0F110A4C08091DD048111A0C05C
:102DD0008091570990915809A0915909B0915A09C9
:102DE0008093000A9093010AA093020AB093030A09
:102DF0008FE499E00E944D3FC82EFF24F394009188
:102E0000000A1091010A2091020A3091030A4091B0
:102E1000FC095091FD096091FE097091FF090417AA
:102E2000150726073707C0F4F12C8F3F2FEF9207C5
:102E300041F12AE0821709F43FC02DE0821709F41E
:102E40003BC023E2821719F02AE3821348C0209185
:102E5000DC04211144C02BC0ECEEF7E084918F011B
:102E60000F5F1F4F882319F02FDBF801F7CF82E89F
:102E700097E00E94825461E082E897E00E94FA4F56
:102E800016C0EDE6FFE084918F010F5F1F4F88238E
:102E900019F01ADBF801F7CFEDEDF7E084918F011F
:102EA0000F5F1F4F882319F00FDBF801F7CF83E284
:102EB000C81202C0E092DD041092DC04209709F4ED
:102EC0007CCF80915007D89EC00DD11D1124C053D6
:102ED000DA4F188280E088DEC0E0D0E06ECFCF35D8
:102EE000D10508F06ACF2BE3C21202C0E092DC04E5
:102EF0002091DC04211161CF90915007FE01D99EF1
:102F0000E00DF11D1124E053FA4F8083219655CF37
:102F1000DF91CF911F910F91FF90EF90DF90CF90B5
:102F200008950F931F93CF93DF93EC0184E50FDD9A
:102F3000882309F18ADD8823E1F0E7E6FFE0849148
:102F40008F010F5F1F4F882319F0BEDAF801F7CF0A
:102F50008DE4BADA6AE070E0CE015BDB76DD682FE3
:102F600070E08AEC97E00E94B6778AE0ADDA81E003
:102F700007C06BDD02C080918E058093550580E00F
:102F8000DF91CF911F910F910895CF92DF92EF9231
:102F9000FF920F931F93CF93DF93EC01CC0FDD1FB4
:102FA000CC0FDD1FFE01E555FA4F20E030E0A9010E
:102FB00060817181828193810E94FFC9FE01E95481
:102FC000FA4F20813181428153810E94FFC96B01F8
:102FD0007C01FE01E156FA4F608371838283938303
:102FE000CE018B58964F99DB8E010D561A4FA701D3
:102FF00096010E94FFC9F8016083718382839383E5
:10300000CE018759964F89DBC45FDD4FA70196013A
:103010000E94FFC9688379838A839B83DF91CF9164
:103020001F910F91FF90EF90DF90CF9008954F92F6
:103030005F926F927F928F929F92AF92BF92CF9248
:10304000DF92EF92FF920F931F93CF93DF9300D005
:1030500000D0CDB7DEB75C01FC01EE5BF64F1491FA
:103060004C01880C991C880C991CC4018F5A964FEE
:1030700054DB2B013C01612F772767FD7095872F6B
:10308000972F0E947ACB6B017C0120E030E040EC6E
:103090005FE3C301B2010E9416CDA70196010E9411
:1030A00016CDAB01BC0100E010E09801C50130DD98
:1030B000C4018B5B964F31DB9B01AC01C701B601AC
:1030C0000E9416CD6B017C0120E030E0A9010E9436
:1030D000D8CA882309F456C000E010E09801B7016F
:1030E000A6017058C50114DD86E0E8EDF2E0DE01CE
:1030F000119601900D928A95E1F7F501EE0FFF1FF1
:1031000081E090E08C0F9D1FE80FF91F60817181B5
:1031100016161706C4F0E7E6FFE084918F010F5FF3
:103120001F4F882319F0D0D9F801F7CFE7E6F7E071
:1031300084918F010F5F1F4F882319F0C5D9F801C3
:10314000F7CF6AE070E0882777FD8095982F0E947E
:103150007ACB9B01AC01F401EF54FC4F608171818B
:10316000828193810E94DFCA2B013C01A701960155
:10317000C701B6010E94FFC9AB01BC0193018201E6
:10318000C501C6DCF501E25AF84F81E08083F50104
:10319000E55AF84F8083F401E954FA4F1082118206
:1031A00012821382C501F1DEC401835A964FB5DA4B
:1031B00084010F58184FF401E156FA4F20813181F4
:1031C000428153810E94FFC9F80160837183828329
:1031D000938394DC94012F59384FF80180819181B9
:1031E000A281B381F90180839183A283B383269660
:1031F0000FB6F894DEBF0FBECDBFDF91CF911F9108
:103200000F91FF90EF90DF90CF90BF90AF909F9085
:103210008F907F906F905F904F900895CF92EF9234
:10322000FF920F931F93E0902502F09026020091E9
:10323000270210912802C0908E052DE737E049E75C
:1032400057E065E777E081E797E00E94C36A1F9146
:103250000F91FF90EF90CF900895CF92EF92FF9251
:103260000F931F93C0908E057B018C012DE637E0F4
:1032700049E657E065E677E081E697E00E94C36A99
:103280001F910F91FF90EF90CF90089580E1E1E6BC
:10329000F7E0A1E7B7E001900D928A95E1F7089574
:1032A0004F925F926F927F928F929F92AF92BF9256
:1032B000CF92DF92EF92FF920F931F93CF93DF9302
:1032C0006C017B018A01E901809025029090260221
:1032D000A0902702B0902802FA012081318142811A
:1032E00053816091790770917A0780917B07909163
:1032F0007C070E94D8CA87FF2DC0488059806A8009
:103300007B8020E030E0A901B201C3010E94D8CA4D
:10331000811105C0412C512C30E221E402C0362D30
:10332000272DC201A32FB22F80932502909326024E
:10333000A0932702B0932802F80180819181A28195
:10334000B3818093790790937A07A0937B07B0931A
:103350007C0764DF488059806A807B8020E030E011
:10336000A901B201C3010E94D8CA811105C055E567
:1033700045E535E822E404C0542D452D362D272D92
:10338000852F942FA32FB22F80932502909326028E
:10339000A0932702B0932802F60180819181A28137
:1033A000B3818093710790937207A0937307B093D2
:1033B0007407F70180819181A281B38180937507A1
:1033C00090937607A0937707B093780727DFF801EB
:1033D00020813181428153816091790770917A0710
:1033E00080917B0790917C070E94DBCC18167CF5BE
:1033F000D880E980FA80CB8120E030E0A9016D2DF2
:103400007E2D8F2D9C2F0E94D8CA811105C0D12CF2
:10341000E12C20E2C1E401C02F2D8D2D9E2DA22F85
:10342000BC2F8093250290932602A0932702B0938D
:103430002802F80180819181A281B381809379076C
:1034400090937A07A0937B07B0937C07E7DE0E94F6
:10345000C97F8092250290922602A0922702B09204
:103460002802DF91CF911F910F91FF90EF90DF9095
:10347000CF90BF90AF909F908F907F906F905F9014
:103480004F9008959B01AC0165E777E081E797E0F5
:1034900007CFCF92DF92EF92FF920F931F93CF93BC
:1034A000DF938DEAE82E83E0F82E01E617E0C1E70E
:1034B000D7E094ECC92E95E0D92EF70181917F01D8
:1034C00046DA8823C9F06CDAF6012081211104C0A4
:1034D00020918D05222329F0288139814A815B8141
:1034E00003C020E030E0A9010E94FFC9F801608319
:1034F00071838283938309C088819981AA81BB816A
:10350000F80180839183A283B3830C5F1F4F2496BD
:10351000FFEFCF1ADF0A81EBE81683E0F80669F6C1
:1035200086E415DA8823B9F03BDA20E030E0A9011F
:103530000E94DBCC18167CF433DA20E030E040E760
:1035400052E40E94DFCA60932502709326028093A2
:10355000270290932802DF91CF911F910F91FF9046
:10356000EF90DF90CF900895CF92DF92EF92FF928D
:10357000CF93DF930E943CC76B017C0180910602D0
:10358000882309F468C02091430530914405211532
:10359000310509F460C080913F0590914005A091EC
:1035A0004105B0914205B701A601481B590B6A0BB2
:1035B0007B0B77FD63C02330310519F13CF42130DA
:1035C00031050CF448C0E7E6FFE007C024303105C0
:1035D00009F041C0E7E6FFE02AC08491EF0121969F
:1035E000882321F00E946412FE01F7CFE8EBF7E098
:1035F0008491EF012196882371F10E946412FE01EB
:10360000F7CFE7E6FFE08491EF012196882321F0D0
:103610000E946412FE01F7CFE1EAF7E08491EF0126
:1036200021968823C1F00E946412FE01F7CF849195
:10363000EF012196882321F00E946412FE01F7CF4A
:10364000E9E8F7E08491EF012196882321F00E94B8
:103650006412FE01F7CF2091060230E0A8EEB3E03D
:103660000E9456CE6C0D7D1D8E1D9F1D60933F05E3
:10367000709340058093410590934205DF91CF916F
:10368000FF90EF90DF90CF9008950F931F93CF930B
:10369000DF93CDB7DEB769970FB6F894DEBF0FBEE4
:1036A000CDBF84E795E00E945B816E8B7F8B888F16
:1036B000998FBE016F5F7F4FCE01469694D860E030
:1036C000CE0101960E94719EE7E6FFE084918F0192
:1036D0000F5F1F4F882321F00E946412F801F6CF7C
:1036E000BE016F5F7F4F8FE996E00E948E778AE080
:1036F0000E94641269960FB6F894DEBF0FBECDBF6C
:10370000DF91CF911F910F9108951F93CF93DF9376
:103710008091840781110E94C97FC091460CD0918D
:10372000470C80E514D9182F80918507882339F13B
:10373000212F41E0BE0182E897E00E94475183E5D6
:1037400006D9882379F061D9AB01BC014093000A06
:103750005093010A6093020A7093030A8FE499E080
:103760000E941A4082E897E00E94F04D111107C0B4
:1037700084E795E0DF91CF911F910C948881DF91D0
:10378000CF911F910895CF92DF92EF92FF92CF9346
:10379000DF9383E5DCD8882309F451C036D96B0167
:1037A0007C016F3F710511F008F049C080E5CFD86A
:1037B000882329F02AD9EB0177FD41C002C0CDE072
:1037C000D0E0EDE5F3E0CE01992721913191281762
:1037D000390729F023E0ED3AF207B9F716C0EDE614
:1037E000FFE08491EF012196882321F00E9464126A
:1037F000FE01F7CFE4E5F6E08491EF0121968823FE
:10380000F1F00E946412FE01F7CF61E08C2F0E945C
:1038100013C96C2D8C2F0E944CC9B6018C2F0E94AD
:10382000FDC7C730D10529F4D0929205C092910509
:1038300006C0299721F4D0929005C0928F05DF91A0
:10384000CF91FF90EF90DF90CF90089588E690E0C1
:1038500068DB81114DC08091810783FD49C083E5FC
:1038600076D8882309F442C09BD80E9447CB709336
:10387000901260938F1280E00E946A8591D820E0B8
:1038800030E04AEA52E40E94D8CA18164CF084E7A5
:1038900095E00E942E8160E08BE396E00E94819E7D
:1038A0007FD820919712309198124091991250919F
:1038B0009A120E94DBCC1816CCF48EE293E09F9310
:1038C0008F938091550590E001969F938F9384E3A9
:1038D00096E09F938F931F920E94D39E8DB79EB7C1
:1038E00007960FB6F8949EBF0FBE8DBF0C945A7703
:1038F0000895CF93DF93E3E6F7E08491EF012196FB
:10390000882321F00E946412FE01F7CF6091971284
:10391000709198128091991290919A1242E050E021
:103920000E948C13E0E6F7E08491EF012196882352
:1039300021F00E946412FE01F7CF6AE070E08091EE
:103940008F12909190120E940913ECE5F7E0849198
:10395000EF012196882321F00E946412FE01F7CF27
:103960006091931270919412809195129091961299
:1039700042E050E00E948C13E9E5F7E08491EF010A
:103980002196882321F00E946412FE01F7CF6AE09D
:1039900070E080918B1290918C120E940913E5E5E2
:1039A000F7E08491EF012196882321F00E946412B0
:1039B000FE01F7CF8091550590E00E9468826AE091
:1039C00070E00E940913E0E5F7E08491EF01219691
:1039D000882321F00E946412FE01F7CF8FEF9FEF42
:1039E0000E9468826AE070E0DF91CF910C94091325
:1039F000DF92EF92FF920F931F93CF93DF9383E5B4
:103A00000E94A714882311F020D801C080E0809381
:103A10008107E7E6FFE08491EF012196882321F0FA
:103A20000E946412FE01F7CFEDE2F6E08491EF010F
:103A30002196882321F00E946412FE01F7CF809125
:103A40008107882381F103E216E0C0E0D0E020E0A6
:103A50008091810790E00C2E02C0959587950A947D
:103A6000E2F780FF17C0DD24D394D20E222319F091
:103A70008CE20E946412F80125913491F90184913D
:103A80007901FFEFEF1AFF0A882329F00E946412E0
:103A90009701F4CFD22E21960E5F1F4FC530D1056E
:103AA00069F02D2DD5CFEFE1F6E08491EF0121965D
:103AB000882321F00E946412FE01F7CF8AE0DF9193
:103AC000CF911F910F91FF90EF90DF900C946412B3
:103AD000CF93DF9383E50E94A714882351F00E94BF
:103AE00025158D3308F08CE380930602DF91CF918A
:103AF0000895E7E6FFE08491EF012196882321F005
:103B00000E946412FE01F7CF4091060250E060E08F
:103B100070E089EE95E00E9429788AE0DF91CF91EC
:103B20000C946412CF93DF9383E50E94A71488233B
:103B3000E1F00E940515C62F6230C0F0EDE6FFE00F
:103B40008491EF012196882321F00E946412FE01E6
:103B5000F7CFEDE8F4E08491EF012196882309F492
:103B600053C00E946412FE01F6CFC0E088E40E94B8
:103B7000A7148823B1F00E940515EC2FF0E06A3AF3
:103B800071053CF06F3081E078072CF06EE071E059
:103B900002C06AEA70E0EE0FFF1FE75CFC4E718323
:103BA000608386E40E94A7148823A1F00E94051573
:103BB0006F3F710519F014F06FEF70E0EC2FF0E03B
:103BC000EE0FFF1FEF5CFC4E77FF02C060E070E07D
:103BD0007183608382E40E94A7148823A9F00E9465
:103BE0000515EC2FF0E06530710534F0683871058B
:103BF0002CF067E870E002C065E070E0EE0FFF1F98
:103C0000EB5CFC4E71836083DF91CF9108957F92CE
:103C10008F929F92AF92BF92CF92DF92EF92FF92DC
:103C20000F931F93CF93DF930DEA13E0C8EDDCE011
:103C3000712CF80181918F010E94A714882309F447
:103C40006CC0F3E07F1263C00E94D0146B017C0152
:103C500020E030E040EA51E40E94D8CA87FF4EC01D
:103C6000A70196016091E40C7091E50C8091E60C3F
:103C70009091E70C0E94DFCA4B015C019B01AC01F3
:103C80006091900C7091910C8091920C9091930C9A
:103C90000E9416CD6093900C7093910C8093920CBF
:103CA0009093930CA50194016091F40C7091F50C24
:103CB0008091F60C9091F70C0E9416CD6093F40C55
:103CC0007093F50C8093F60C9093F70C6091C40CF4
:103CD0007091C50C8091C60C9091C70C0E9478CB56
:103CE000A50194010E9416CD0E944CCB6093C40C98
:103CF0007093C50C8093C60C9093C70CC092E40CD3
:103D0000D092E50CE092E60CF092E70C06C00E941F
:103D1000D014688379838A839B837394249684E088
:103D2000781287CFDF91CF911F910F91FF90EF9085
:103D3000DF90CF90BF90AF909F908F907F900C942A
:103D40003677CF93DF93EDE4F7E08491EF0121968E
:103D5000882321F00E946412FE01F7CF6091710761
:103D600070917207809173079091740742E050E060
:103D70000E948C13E9E4F7E08491EF0121968823F7
:103D800021F00E946412FE01F7CF609175077091D7
:103D90007607809177079091780742E050E00E9483
:103DA0008C13E5E4F7E08491EF012196882321F05C
:103DB0000E946412FE01F7CF6091790770917A0733
:103DC00080917B0790917C0742E050E00E948C1329
:103DD000E1E4F7E08491EF012196882321F00E942D
:103DE0006412FE01F7CF60917D0770917E0780918C
:103DF0007F079091800742E050E00E948C13DF9192
:103E0000CF910C94AD80EF92FF920F931F93CF93BD
:103E1000DF9300D01F921F92CDB7DEB78D830E9433
:103E2000C97F40912502509126026091270270912E
:103E300028024093CA055093CB056093CC0570933C
:103E4000CD0520912302309124023093C90520939F
:103E5000C80524E630E030932402209323020E9418
:103E6000E81391E090932A028D81811118C088E5B2
:103E70000E94A714F82E89E50E94A714182F8AE53E
:103E80000E94A714F11007C0111110C0E12C882363
:103E900091F001E018C0082F112389F001C001E062
:103EA000102FEE24E394FF24F3940DC0082FE12C8F
:103EB000FF24F39407C0F12C00E011E004C0EE24CD
:103EC000E394F12C10E080E1E1E7F7E0A1E6B7E050
:103ED00001900D928A95E1F7111105C0E11003C020
:103EE000FF2009F43DC020E030E040EA50E460915A
:103EF000A7057091A8058091A9059091AA050E9437
:103F0000FFC96093690770936A0780936B0790936A
:103F10006C072091790730917A0740917B07509187
:103F20007C070E94DBCC181654F419821A821B827B
:103F30001C82BE016F5F7F4F89E697E0A3DA111103
:103F400005C0E11003C0F11006C00AC080E090E097
:103F50006ED81123C1F381E090E069D8111102C03D
:103F6000002319F082E090E062D80E947E158091D3
:103F7000200C80932A028091CA059091CB05A091D4
:103F8000CC05B091CD058093250290932602A09395
:103F90002702B09328028091C8059091C90590939B
:103FA0002402809323020E94E81383E080939A0204
:103FB000C8DE0F900F900F900F900F90DF91CF9170
:103FC0001F910F91FF90EF9008958F929F92AF9263
:103FD000BF92CF92DF92EF92FF920F931F93CF93F6
:103FE000DF9300D01F92CDB7DEB785E40E94A714FF
:103FF000B82E811102C00E94C97F5DEAC52E53E030
:10400000D52E67EBE62E65E0F62E01E717E0812C52
:10401000912CA12CF60181916F010E94A714882395
:1040200061F1F801208131814281538129833A83F2
:104030004B835C830E94D014F80160837183828378
:10404000938329813A814B815C81F3E08F16A9F03B
:104050000E94FEC99B01AC01F701608171818281E0
:1040600093810E94FFC9F7016083718382839383E8
:10407000C4010E94C517AA24A394FFEF8F1A9F0AB8
:1040800084E0E80EF11C0C5F1F4FE4E08E169104F3
:1040900009F6AA2019F00E947E1508C0BB2031F055
:1040A0006DE777E083E090E00E9471760F900F90CB
:1040B0000F900F90DF91CF911F910F91FF90EF9094
:1040C000DF90CF90BF90AF909F908F903ACE83E5D6
:1040D0000E94A7148823D9F00E94D014AB01BC0120
:1040E00040939C0C50939D0C60939E0C70939F0C7E
:1040F0004093940C5093950C6093960C7093970C8E
:1041000085E694E00E94ED778AE00E94641280E5E3
:104110000E94A714882399F00E94D014AB01BC011F
:1041200040939C0C50939D0C60939E0C70939F0C3D
:1041300088E494E00E94ED778AE00E94641282E5B0
:104140000E94A714882399F00E94D014AB01BC01EF
:104150004093980C5093990C60939A0C70939B0C1D
:1041600089E294E00E94ED778AE00E94641284E57F
:104170000E94A714882399F00E94D014AB01BC01BF
:104180004093940C5093950C6093960C7093970CFD
:104190008BE094E00E94ED778AE00C94641208951D
:1041A00083E50E94A714882351F00E94D0146093E5
:1041B000A00C7093A10C8093A20C9093A30C84E5A7
:1041C0000E94A714882351F00E94D0146093800CA1
:1041D0007093810C8093820C9093830C82E40E94F4
:1041E000A714882351F00E9415156093A40C7093B6
:1041F000A50C8093A60C9093A70C88E50E94A714A9
:10420000882351F00E94D0146093840C7093850C25
:104210008093860C9093870C89E50E94A7148823CD
:1042200051F00E94D0146093880C7093890C809395
:104230008A0C90938B0C8AE50E94A714882351F076
:104240000E94D01460938C0C70938D0C80938E0C14
:1042500090938F0C85E40E94A714882351F00E944C
:10426000D0146093900C7093910C8093920C909367
:10427000930C08958F929F92AF92BF92CF92DF924C
:10428000EF92FF920F931F93CF93DF937DEAC72E98
:1042900073E0D72EE1E7EE2EE7E0FE2E0BEA15E005
:1042A000C0E0D0E0F60181916F010E94A71488233D
:1042B00009F10E94D0144B015C01F8012081318189
:1042C000428153810E94FEC99B01AC01F7016081CC
:1042D0007181828193810E94FFC9F701608371839C
:1042E00082839383F80180829182A282B382CE017D
:1042F0000E94C5172196F4E0EF0EF11C0C5F1F4FD2
:10430000C330D10579F60E947E15DF91CF911F91C0
:104310000F91FF90EF90DF90CF90BF90AF909F9064
:104320008F900FCDCF93DF93E7E6FFE08491EF010D
:104330002196882321F00E946412FE01F7CF83E5C5
:104340000E94A714882321F00E943615809318023A
:10435000EBEFF3E08491EF012196882321F00E9496
:104360006412FE01F7CF80911802882319F0E7EF5D
:10437000F3E002C0E3EFF3E08491EF01219688239C
:1043800021F00E946412FE01F7CFEBEEF3E084917E
:10439000EF012196882321F00E946412FE01F7CFDD
:1043A0004091930550919405609195057091960503
:1043B00089EE93E00E94ED77409197055091980522
:1043C0006091990570919A0586EE93E00E94ED77D1
:1043D00040919B0550919C0560919D0570919E05B3
:1043E00083EE93E00E94ED77EBEDF3E08491EF0133
:1043F0002196882321F00E946412FE01F7CF40919C
:104400000C0250910D0260910E0270910F0289ED25
:1044100093E00E94ED77409110025091110260915B
:1044200012027091130286ED93E00E94ED774091A5
:10443000140250911502609116027091170283EDDB
:1044400093E00E94ED778AE0DF91CF910C946412A3
:10445000CF93DF9300D01F92CDB7DEB783E50E94E4
:10446000A714882319F00E94051502C064E071E0CA
:104470007C836B8380E50E94A714882339F00E9417
:104480000515693823E1720730F402C068EE73E065
:104490007A83698304C088E893E19A838983AE01B3
:1044A0004D5F5F4FBE016F5F7F4F86E595E00E94D5
:1044B00045150F900F900F900F90DF91CF910895B9
:1044C000CF93DF9385E40E94A714811110C080E58B
:1044D0000E94A714882399F00E94D0146093500280
:1044E00070935102809352029093530208C00E942D
:1044F0000515161617065CF7EDE6FFE06FC089E4B8
:104500000E94A714882381F00E94D0142CEA35EC75
:1045100047E25EE30E9416CD60934C0270934D0219
:1045200080934E0290934F0284E40E94A714882344
:1045300081F00E94D0142CEA35EC47E25EE30E9441
:10454000DFCA609348027093490280934A029093B5
:104550004B020E946782E7E6FFE08491EF0121961B
:10456000882321F00E946412FE01F7CF409150028F
:104570005091510260915202709153028FEC93E07E
:104580000E94ED772CEA35EC47E25EE360914C0245
:1045900070914D0280914E0290914F020E94DFCAAD
:1045A000AB01BC018BEC93E00E940B782CEA35EC5C
:1045B00047E25EE3609148027091490280914A02AD
:1045C00090914B020E9416CDAB01BC0187EC93E0A9
:1045D0000E940B7810C00E946412FE018491EF01CA
:1045E00021968111F8CFC9E3D3E08991882319F08E
:1045F0000E946412FACF8AE0DF91CF910C9464128A
:10460000CF93DF9383E50E94A714C82F882371F00E
:104610000E94D0140E944CCB7093470260934602D4
:1046200021E0672B09F020E020937E1280E50E94B4
:10463000A714882369F08091460290914702892B44
:1046400019F00E94361501C081E080937E122DC0C2
:10465000C1112BC0E7E6FFE08491EF01219688238A
:1046600021F00E946412FE01F7CF80917E12882310
:1046700019F06DEE73E002C06AE473E084EB93E03E
:104680000E948E77609146027091470283EA93E020
:104690000E94B677EFE9F3E08491EF012196882339
:1046A00021F00E946412FE01F7CFDF91CF910895AF
:1046B000EF92FF920F93CF93DF9385E40E94A714AC
:1046C000882321F00E940515EB0102C0C0E0D0E074
:1046D00083E40E94A714882321F00E9405157B0122
:1046E00003C0F5E0EF2EF12C85E50E94A714882386
:1046F00021F00E943615082F01C000E083E50E94DA
:10470000A714882329F00E94D0140E9447CB04C02C
:10471000D7FD07C066E970E0209729F4109255058F
:1047200002C066E470E010924405109243058827A9
:1047300077FD8095982F0E947ACB9701AE010E9459
:10474000268681E090E09093440580934305DF91B5
:10475000CF910F91FF90EF9008952F923F924F923B
:104760005F926F927F928F929F92AF92BF92CF9201
:10477000DF92EF92FF920F931F93CF93DF9300D0BE
:1047800000D0CDB7DEB7AEE52A2EA7E03A2EBBEAC1
:104790008B2EB5E09B2E11E7A12E17E0B12E00E085
:1047A00010E0C1018E5597409E838D83F101819168
:1047B0001F01882309F499C0F801E45FFD4F2081AF
:1047C000318142815381F801ED56FA4F6081718148
:1047D000828193810E94FFC920E030E040E05FE3E6
:1047E0000E9416CD9B01AC01F5016081718182812F
:1047F00093810E94DBCC181644F4C801835A964F6B
:104800000E948D136B017C0103C0C12CD12C760159
:10481000F5014080518062807380F801E156FA4FC3
:104820002081318142815381C301B2010E94FEC9BE
:104830009B01AC01C701B6010E94FEC96B017C015E
:1048400020E030E040EA51EC0E94DBCC87FD28C03C
:1048500020E030E040EA51E4C701B6010E94D8CA26
:104860001816F4F0F4012081318142815381C7018F
:10487000B6010E94FEC99B01AC01C301B2010E94B6
:10488000FFC9F5016083718382839383F401C08241
:10489000D182E282F3828D819E810E94C51725C05C
:1048A000EDE6FFE084918F010F5F1F4F882321F019
:1048B0000E946412F801F6CFE1E8F3E084918F01E1
:1048C0000F5F1F4F882321F00E946412F801F6CF7A
:1048D00083E793E00E94F09E88E290E09A838983C8
:1048E00088EC90E09C838B832CC0F4E08F0E911CAD
:1048F0000C5F1F4F84E0A80EB11C0C30110509F0AD
:1049000050CF0E947E151DDA60E083E693E00E949E
:10491000819E83E992E09A83898304E610E01C83F8
:104920000B83AE014F5F5F4FBE016D5F7F4F86E52A
:1049300095E00E9445158AEB92E09A8389831C8357
:104940000B83AE014F5F5F4FBE016D5F7F4F86E50A
:1049500095E00E94451526960FB6F894DEBF0FBE6F
:10496000CDBFDF91CF911F910F91FF90EF90DF901E
:10497000CF90BF90AF909F908F907F906F905F90FF
:104980004F903F902F900895CF93DF9380938E05A3
:10499000E7E6FFE08491EF012196882321F00E9451
:1049A0006412FE01F7CF60918E0570E08FE297E010
:1049B0000E94B6778AE0DF91CF910C946412CF9376
:1049C000DF930E94E813E0915107F0E0EB5BFA4FB0
:1049D0008081882381F0E8E4F3E08491EF0121965F
:1049E000882321F00E946412FE01F7CF8AE0DF9154
:1049F000CF910C946412DF91CF910895CF93DF9300
:104A00000E945C12EBE4F3E08491EF01219688238D
:104A100021F00E946412FE01F7CF6091530770915C
:104A2000540780915507909156076F5F7F4F8F4FC6
:104A30009F4F4AE050E00E94FF128AE00E946412F9
:104A4000DF91CF91BCCFEF92FF920F931F93CF9343
:104A5000DF931F92CDB7DEB7082F162FEDE6FFE0EC
:104A600084917F012FEFE21AF20A882331F09983B3
:104A70000E946412F7019981F3CFE02FF92F8491FE
:104A80007F019FEFE91AF90A882321F00E9464123E
:104A9000F701F5CF60915307709154078091550746
:104AA000909156074AE050E00E94FF128AE00E946F
:104AB00064121111A3DF10928B0510928A050F90DA
:104AC000DF91CF911F910F91FF90EF900895CF92BA
:104AD000DF92EF92FF92CF93DF93EC018091180267
:104AE000882309F484C0C0909305D0909405E09089
:104AF0009505F0909605A7019601688179818A81D4
:104B00009B810E94D8CA87FF04C0C882D982EA82EA
:104B1000FB82C0909705D0909805E0909905F090A1
:104B20009A05A70196016C817D818E819F810E94EB
:104B3000D8CA87FF04C0CC82DD82EE82FF82C0909B
:104B40009B05D0909C05E0909D05F0909E05A701E7
:104B50009601688579858A859B850E94D8CA87FFDA
:104B600004C0C886D986EA86FB86C0900C02D09025
:104B70000D02E0900E02F0900F02A70196016881ED
:104B800079818A819B810E94DBCC181624F4C8822B
:104B9000D982EA82FB82C0901002D0901102E0908C
:104BA0001202F0901302A70196016C817D818E8123
:104BB0009F810E94DBCC181624F4CC82DD82EE8229
:104BC000FF82C0901402D0901502E0901602F0907F
:104BD0001702A7019601688579858A859B850E94C1
:104BE000DBCC181624F4C886D986EA86FB86DF91CA
:104BF000CF91FF90EF90DF90CF90089580E090E00C
:104C00000E9448806093490570934A0580934B0544
:104C100090934C0581E090E00E94488060934D05A0
:104C200070934E0580934F059093500582E090E07D
:104C30000E944880609351057093520580935305FC
:104C4000909354050895CF93DF93EC01D7DFC436DA
:104C5000D10551F48CE0E9E4F5E0A1E7B7E001907B
:104C60000D928A95E1F711C0CC0FDD1FCC0FDD1F2F
:104C7000FE01EF58F84FC75BDA4F88819981AA810E
:104C8000BB8180839183A283B383DF91CF91089509
:104C90000E9461800E94C97F84E690E0D4DF0C947A
:104CA0007E15CF92DF92EF92FF9281E697E00FDFC1
:104CB0000E94E8138091810783FD99C0C0906D0721
:104CC000D0906E07E0906F07F090700720917D07FD
:104CD00030917E0740917F0750918007C701B60150
:104CE0000E94D8CA882309F482C080917E12811163
:104CF00038C0609146027091470280E090E00E94C7
:104D000078CB9B01AC0160919712709198128091C1
:104D1000991290919A120E94D8CA87FF22C0C0921D
:104D20007D07D0927E07E0927F07F0928007E7E64A
:104D3000FFE084917F019FEFE91AF90A882321F0AF
:104D40000E946412F701F5CFEDE2F3E084917F0158
:104D50009FEFE91AF90A882321F00E946412F701F3
:104D6000F5CFC0906D07D0906E07E0906F07F09080
:104D7000700720917D0730917E0740917F07509109
:104D80008007C701B6010E94FEC90E9447CB97FF6A
:104D900007C090958095709561957F4F8F4F9F4F7D
:104DA000693C71058105910514F1C0927D07D0928F
:104DB0007E07E0927F07F0928007E7E6FFE08491AC
:104DC0007F019FEFE91AF90A882321F00E946412FB
:104DD000F701F5CFEEE0F3E084917F019FEFE91A50
:104DE000F90A882321F00E946412F701F5CF20917F
:104DF00061073091620740916307509164076091A9
:104E000071077091720780917307909174070E94E7
:104E1000D8CA81111DC02091650730916607409165
:104E200067075091680760917507709176078091C8
:104E30007707909178070E94D8CA811109C06091C4
:104E400025027091260280912702909128021AC0B3
:104E50006091230270912402882777FD8095982F16
:104E60000E947ACB209125023091260240912702A0
:104E7000509128020E9416CD2AE037ED43E25CE310
:104E80000E9416CD0E942D19FF90EF90DF90CF90D9
:104E90000C944619CF92DF92EF92FF926B017C0146
:104EA0008091C305882321F120E030E0A901C701EA
:104EB000B6010E94D8CA8823D9F020E030E040E053
:104EC0005FE3C701B6010E9416CD9B01AC010E94B1
:104ED00016CD2BED3FE049E450E40E9416CD9B0136
:104EE000AC0160E070E080E89FE30E94DFCA04C08C
:104EF00060E070E080E89FE3FF90EF90DF90CF905C
:104F0000089560911D0270911E0280911F02909180
:104F10002002C0DF6093190270931A0280931B0273
:104F200090931C020895CF93DF9388EC90E00E9449
:104F30009117811142C084E40E94A7148823D1F103
:104F40000E94D014C1E020E030E0A9010E94D8CA3C
:104F5000811101C0C0E0C093C305CC2359F1C091B9
:104F60005505D0E00E94D014FE01EE0FFF1FEE0F9A
:104F7000FF1FE35EFD4F608371838283938320E094
:104F800030E0A90160911D0270911E0280911F0204
:104F9000909120020E94D8CA81110CC080E090E05C
:104FA000A0EEBFE380931D0290931E02A0931F0208
:104FB000B0932002DF91CF91A4CFDF91CF910895DC
:104FC0005F988A989FB7F894E8E0F1E080818E7F3F
:104FD00080839FBF12980895129A089583E50E94D6
:104FE000A714882399F00E94D01420E030E04AE70B
:104FF00054E40E9416CD0E944CCB6093070270933C
:1050000008028093090290930A02089588E50E949D
:10501000A714811111C089E50E94A71481110CC049
:105020008AE50E94A714811107C085E40E94A71495
:10503000811102C00C945E800E94C97F88E50E94A5
:10504000A714882319F05F9A10925B0789E50E94E4
:10505000A714882319F08A9A10925C078AE50E94A7
:10506000A714882351F09FB7F894809108018160BC
:10507000809308019FBF10925D0785E40E94A714EA
:105080008111AACF08955F9A10925B078A9A1092B5
:105090005C079FB7F894E8E0F1E08081816080834D
:1050A0009FBF10925D0798CFEC01EDE6FFE0849181
:1050B0008F010F5F1F4F882321F00E946412F801B7
:1050C000F6CFE2E8F2E084918F010F5F1F4F882353
:1050D00021F00E946412F801F6CF0E94FE85D3DF12
:1050E000CE010E94ABA12FEF8BE49DE121508040C7
:1050F0009040E1F700C00000F8942FEF84E39CE0BB
:10510000215080409040E1F700C000000E94FE85E1
:10511000A895FECF8F929F92AF92BF92DF92EF92AF
:10512000FF920F931F93CF93DF93809152078430A8
:1051300008F02DC10E945212882309F428C10E9450
:105140003B1220918A0530918B058A3019F08D3001
:1051500009F0F2C010923E052115310531F3F90135
:10516000E252FB4F108210928B0510928A058EED51
:1051700094E07C01FC01208101962032D1F3E7010B
:105180002E3411F0E12CF12C6AE270E0CE010E9485
:10519000AED28C01E114F10409F474C060E379E04B
:1051A000CE010E9460D2DD24D394892B11F4D12C3E
:1051B00009C06EE470E0CE0104960E94AED2009762
:1051C00009F07C014AE050E060E070E0C701019620
:1051D0000E94E7CF60935707709358078093590751
:1051E00090935A078090530790905407A0905507CA
:1051F000B0905607FFEF8F1A9F0AAF0ABF0A6815D3
:1052000079058A059B0531F0D11004C061E08DEF6E
:1052100098E03DC00115110501F180E0F12CFE017F
:10522000E80FF11D90819A3219F08F5FF926F7CFC0
:105230004AE050E060E070E0C80101960E94E7CFCC
:105240000F2D10E020E030E0601771078207930710
:1052500041F061E08EED98E01AC061E084EB98E0E7
:1052600016C08091570790915807A0915907B091A7
:105270005A078093530790935407A0935507B09310
:10528000560711C0009779F060E08AE898E0DF9156
:10529000CF911F910F91FF90EF90DF90BF90AF9053
:1052A0009F908F90D0CB80912902811122C067E41A
:1052B00070E0CE010E94AED20097D9F04AE050E0F3
:1052C00060E070E001960E94E7CF6430710588F4D9
:1052D000E3E1F8E084918F010F5F1F4F882321F0F5
:1052E0000E946412F801F6CF60E089E098E00E9425
:1052F000819E6EE473E0CE010E94B9D2892B21F425
:1053000010920B0210928C0563E573E0CE010E94AF
:10531000B9D2892B19F480E098E0C6DE68E573E025
:10532000CE010E94B9D2892B09F4B2DC61E08EED86
:1053300094E00E940916F9CE2F3531050CF0F5CE18
:105340008C3581F40E945212882309F4EECE0E941B
:105350003B1290913E059111E8CE20918A05309143
:105360008B0509C08B3319F491E090933E05909121
:105370003E059111DACEA9014F5F5F4F50938B0527
:1053800040938A05F901E252FB4F8083CECEDF9134
:10539000CF911F910F91FF90EF90DF90BF90AF9052
:1053A0009F908F9008950E944916811103C0B2DE2C
:1053B0000C94AC160895CF92DF92EF92FF920F9368
:1053C0001F93CF93C82F80915207843008F4EBDFEE
:1053D0000E943CC7C0908205D0908305E090840570
:1053E000F0908505C114D104E104F10471F100913C
:1053F00086051091870520918805309189050C0D4F
:105400001D1D2E1D3F1D6B017C01C01AD10AE20A31
:10541000F30AF7FC1AC0EDE6FFE084918F010F5FFD
:105420001F4F882321F00E946412F801F6CF60918B
:10543000480C7091490C84ED92E00E948E778AE0CE
:105440000E9464128BEC92E05BC0C0900702D09087
:105450000802E0900902F0900A02C114D104E104AC
:10546000F104E9F0009186051091870520918805E7
:10547000309189050C0D1D1D2E1D3F1D6B017C01FA
:10548000C01AD10AE20AF30AF7FC09C0C11107C029
:105490009091F90C8091F80C981709F43BC0809119
:1054A000DA049091DB04909902C0019604C01816AA
:1054B00019062CF401979093DB048093DA04809111
:1054C000DA049091DB048E3E9240DCF0EDE6FFE0E2
:1054D00084918F010F5F1F4F882321F00E94641277
:1054E000F801F6CFEBEAF2E084918F010F5F1F4FD6
:1054F000882321F00E946412F801F6CF82EA92E03C
:10550000D3DDCF911F910F91FF90EF90DF90CF905F
:105510000C94926A5F9A10925B078A9A10925C07C9
:105520009FB7F894809108018160809308019FBF24
:1055300010925D0751DDB3CF0E94679F0E94B41A9D
:1055400080E039DF0E94288B86E595E00C94931368
:105550008F929F92AF92BF92CF92DF92EF92FF9283
:1055600080E50E94A714882329F00E9415154B019D
:105570005C0103C0812C912C540183E50E94A71487
:10558000882361F00E94D01420E030E04AE754E420
:105590000E9416CD0E944CCB4B015C010E94C97F3A
:1055A0000E94E813C0908605D0908705E09088059A
:1055B000F0908905C80CD91CEA1CFB1C0E946A9E4D
:1055C000811105C060E080E197E00E94819E0E9409
:1055D0003CC76C197D098E099F0997FF02C0ACDF9B
:1055E000F6CFFF90EF90DF90CF90BF90AF909F905D
:1055F0008F9008958F929F92AF92BF92CF92DF9239
:10560000EF92FF921F93CF93DF93C091460CD091FE
:10561000470C80E50E94A714882361F00E941515AD
:105620006B017C0111E0611571058105910531F473
:1056300010E004C010E0C12CD12C760183E50E945B
:10564000A7148823E9F00E94D01420E030E04AE754
:1056500054E40E9416CD0E944CCB6B017C011111C9
:1056600011C0611571058105910561F4209751F014
:105670008881882339F061E0CE010E94719E07C0C5
:105680001123A1F360E08DEF96E00E94819E83E0FC
:1056900090E0909344058093430581E080938C05CE
:1056A0000E94C97F0E94E813C114D104E104F104EF
:1056B000C9F08090860590908705A0908805B090ED
:1056C00089058C0C9D1CAE1CBF1C0E943CC7681930
:1056D00079098A099B0997FF1BC080918C0581116C
:1056E0002BC016C00E9464A1882391F080918C0584
:1056F000882311F021DFFACF8091840760E08823AE
:1057000019F08EEE96E002C085ED96E00E94819E33
:1057100010928C0581E090E09093440580934305BE
:10572000DF91CF911F91FF90EF90DF90CF90BF90CE
:10573000AF909F908F900895FFDEC7CF2F923F923A
:105740004F925F926F927F928F929F92AF92BF9291
:10575000CF92DF92EF92FF920F931F93CF93DF933D
:10576000CDB7DEB72E970FB6F894DEBF0FBECDBF14
:105770008DE690E00E949117811199C18091810777
:1057800083FD95C183E50E94A714482E811106C0B0
:1057900082E50E94A714882309F489C10E94D014CD
:1057A0000E9447CB7093901260938F1280E00E940A
:1057B0006A850E94D01420E030E04AEA52E40E9458
:1057C000D8CA181654F084E795E00E942E8160E054
:1057D0008DEC95E00E94819E04C084E795E00E94D4
:1057E000888160918F1270919012882777FD809543
:1057F000982F0E947ACB2091971230919812409165
:10580000991250919A120E94DBCC1816B4F48EE2D1
:1058100093E09F938F938091550590E001969F931D
:105820008F9386EC95E09F938F931F920E94D39E57
:105830000FB6F894DEBF0FBECDBF0E945A7781E04D
:1058400080930B02109244051092430519821A822C
:105850001B821C821D821E821F821886512C198673
:105860003CE33A874CE14B8756E45C87E12CF12C12
:1058700030E8C32E4FEBD42E812C912C5401809113
:105880008F1290919012BC01882777FD8095982FF8
:105890000E947ACB162F072F782E692E262F372FAE
:1058A000482F592FB701C6010E94D8CA882309F191
:1058B00020919712309198124091991250919A121A
:1058C000612F702F872D962D0E94D8CA582E551CF7
:1058D0005524551C442089F0552079F080910B0205
:1058E000882309F4DEC060E081EB95E00E94819E90
:1058F000D8C01E2D0F2D7C2C6D2C0E943CC76B0137
:105900007C01DC01CB012D813E814F815885821BBA
:10591000930BA40BB50BB7FD45C0D701C601885149
:105920009C4FAF4FBF4F8D839E83AF83B8870E943C
:10593000791CE2ECF5E084911F019FEF291A390AE6
:10594000882321F00E946412F101F5CF81149104A3
:10595000A104B104D1F0C501B401605F784D8F4F4F
:105960009F4F6C197D098E099F0928EE33E040E0B6
:1059700050E00E9412CECA01B9014AE050E00E94F4
:10598000FF128AE00E9464120DC0EFEBF5E08491F3
:105990001F01AFEF2A1A3A0A882321F00E946412ED
:1059A000F101F5CFC9DD0E94E813209097123090E5
:1059B0009812B0919912BE87E0919A12ED879101E9
:1059C0004B2F5E2F612F702F872D962D0E94FEC9C1
:1059D0009F7781149104A104B10449F420E030E0E0
:1059E00040E85FE30E94D8CA87FF0BC008C020E0F0
:1059F00030E040E450E40E94DBCC181614F4460179
:105A00005701552091F129813A814B815C81211503
:105A100031054105510541F0D701C601821B930BA9
:105A2000A40BB50BB7FD21C091014E855D8569853D
:105A30007A858B859C850E94FEC920E030E040EC91
:105A40005FE30E94D8CA87FD49CFD701C601805ABB
:105A50009541AF4FBF4F89839A83AB83BC8329861F
:105A60003A869E859B87AD85AC8780910B02882303
:105A700009F434CF81149104A104B10429F4E12E76
:105A8000F02EC72CD62CFBCEB0E1CB1AB7E2DB0A46
:105A9000E108F108C818D908EA08FB08F7FE1ECF8C
:105AA000EECF81E090E090934405809343052E96DD
:105AB0000FB6F894DEBF0FBECDBFDF91CF911F911F
:105AC0000F91FF90EF90DF90CF90BF90AF909F909D
:105AD0008F907F906F905F904F903F902F900895A0
